{
  "address": "0xc0f6567a4a653d315d829f6d2b3535dce101cd72",
  "abi": [
    {
      "inputs": [
        {
          "internalType": "string",
          "name": "_name",
          "type": "string"
        },
        {
          "internalType": "string",
          "name": "_symbol",
          "type": "string"
        },
        {
          "internalType": "string",
          "name": "_initBaseURI",
          "type": "string"
        },
        {
          "internalType": "string",
          "name": "_initNotRevealedUri",
          "type": "string"
        }
      ],
      "stateMutability": "nonpayable",
      "type": "constructor"
    },
    {
      "anonymous": false,
      "inputs": [
        {
          "indexed": true,
          "internalType": "address",
          "name": "owner",
          "type": "address"
        },
        {
          "indexed": true,
          "internalType": "address",
          "name": "approved",
          "type": "address"
        },
        {
          "indexed": true,
          "internalType": "uint256",
          "name": "tokenId",
          "type": "uint256"
        }
      ],
      "name": "Approval",
      "type": "event"
    },
    {
      "anonymous": false,
      "inputs": [
        {
          "indexed": true,
          "internalType": "address",
          "name": "owner",
          "type": "address"
        },
        {
          "indexed": true,
          "internalType": "address",
          "name": "operator",
          "type": "address"
        },
        {
          "indexed": false,
          "internalType": "bool",
          "name": "approved",
          "type": "bool"
        }
      ],
      "name": "ApprovalForAll",
      "type": "event"
    },
    {
      "anonymous": false,
      "inputs": [
        {
          "indexed": true,
          "internalType": "address",
          "name": "previousOwner",
          "type": "address"
        },
        {
          "indexed": true,
          "internalType": "address",
          "name": "newOwner",
          "type": "address"
        }
      ],
      "name": "OwnershipTransferred",
      "type": "event"
    },
    {
      "anonymous": false,
      "inputs": [
        {
          "indexed": true,
          "internalType": "address",
          "name": "from",
          "type": "address"
        },
        {
          "indexed": true,
          "internalType": "address",
          "name": "to",
          "type": "address"
        },
        {
          "indexed": true,
          "internalType": "uint256",
          "name": "tokenId",
          "type": "uint256"
        }
      ],
      "name": "Transfer",
      "type": "event"
    },
    {
      "inputs": [
        {
          "internalType": "address",
          "name": "_add",
          "type": "address"
        }
      ],
      "name": "addAdmin",
      "outputs": [],
      "stateMutability": "nonpayable",
      "type": "function"
    },
    {
      "inputs": [
        {
          "internalType": "address[]",
          "name": "wallets",
          "type": "address[]"
        }
      ],
      "name": "addToWhitelist",
      "outputs": [],
      "stateMutability": "nonpayable",
      "type": "function"
    },
    {
      "inputs": [
        {
          "internalType": "address",
          "name": "to",
          "type": "address"
        },
        {
          "internalType": "uint256",
          "name": "tokenId",
          "type": "uint256"
        }
      ],
      "name": "approve",
      "outputs": [],
      "stateMutability": "nonpayable",
      "type": "function"
    },
    {
      "inputs": [
        {
          "internalType": "address",
          "name": "owner",
          "type": "address"
        }
      ],
      "name": "balanceOf",
      "outputs": [
        {
          "internalType": "uint256",
          "name": "",
          "type": "uint256"
        }
      ],
      "stateMutability": "view",
      "type": "function"
    },
    {
      "inputs": [],
      "name": "baseExtension",
      "outputs": [
        {
          "internalType": "string",
          "name": "",
          "type": "string"
        }
      ],
      "stateMutability": "view",
      "type": "function"
    },
    {
      "inputs": [
        {
          "internalType": "address",
          "name": "_new",
          "type": "address"
        }
      ],
      "name": "changeLiquidity",
      "outputs": [],
      "stateMutability": "nonpayable",
      "type": "function"
    },
    {
      "inputs": [
        {
          "internalType": "uint256",
          "name": "",
          "type": "uint256"
        }
      ],
      "name": "cost",
      "outputs": [
        {
          "internalType": "uint256",
          "name": "",
          "type": "uint256"
        }
      ],
      "stateMutability": "view",
      "type": "function"
    },
    {
      "inputs": [
        {
          "internalType": "uint256",
          "name": "tokenId",
          "type": "uint256"
        }
      ],
      "name": "getApproved",
      "outputs": [
        {
          "internalType": "address",
          "name": "",
          "type": "address"
        }
      ],
      "stateMutability": "view",
      "type": "function"
    },
    {
      "inputs": [
        {
          "internalType": "uint256",
          "name": "_mintAmount",
          "type": "uint256"
        },
        {
          "internalType": "address",
          "name": "_to",
          "type": "address"
        }
      ],
      "name": "giveAway",
      "outputs": [],
      "stateMutability": "payable",
      "type": "function"
    },
    {
      "inputs": [
        {
          "internalType": "address",
          "name": "",
          "type": "address"
        }
      ],
      "name": "isAdmin",
      "outputs": [
        {
          "internalType": "bool",
          "name": "",
          "type": "bool"
        }
      ],
      "stateMutability": "view",
      "type": "function"
    },
    {
      "inputs": [
        {
          "internalType": "address",
          "name": "owner",
          "type": "address"
        },
        {
          "internalType": "address",
          "name": "operator",
          "type": "address"
        }
      ],
      "name": "isApprovedForAll",
      "outputs": [
        {
          "internalType": "bool",
          "name": "",
          "type": "bool"
        }
      ],
      "stateMutability": "view",
      "type": "function"
    },
    {
      "inputs": [
        {
          "internalType": "address",
          "name": "",
          "type": "address"
        }
      ],
      "name": "isWhitelisted",
      "outputs": [
        {
          "internalType": "bool",
          "name": "",
          "type": "bool"
        }
      ],
      "stateMutability": "view",
      "type": "function"
    },
    {
      "inputs": [],
      "name": "lockExt",
      "outputs": [
        {
          "internalType": "bool",
          "name": "",
          "type": "bool"
        }
      ],
      "stateMutability": "view",
      "type": "function"
    },
    {
      "inputs": [],
      "name": "lockURI",
      "outputs": [
        {
          "internalType": "bool",
          "name": "",
          "type": "bool"
        }
      ],
      "stateMutability": "view",
      "type": "function"
    },
    {
      "inputs": [],
      "name": "maxMintAmount",
      "outputs": [
        {
          "internalType": "uint256",
          "name": "",
          "type": "uint256"
        }
      ],
      "stateMutability": "view",
      "type": "function"
    },
    {
      "inputs": [
        {
          "internalType": "uint256",
          "name": "_mintAmount",
          "type": "uint256"
        }
      ],
      "name": "mint",
      "outputs": [],
      "stateMutability": "payable",
      "type": "function"
    },
    {
      "inputs": [],
      "name": "name",
      "outputs": [
        {
          "internalType": "string",
          "name": "",
          "type": "string"
        }
      ],
      "stateMutability": "view",
      "type": "function"
    },
    {
      "inputs": [],
      "name": "notRevealedUri",
      "outputs": [
        {
          "internalType": "string",
          "name": "",
          "type": "string"
        }
      ],
      "stateMutability": "view",
      "type": "function"
    },
    {
      "inputs": [],
      "name": "owner",
      "outputs": [
        {
          "internalType": "address",
          "name": "",
          "type": "address"
        }
      ],
      "stateMutability": "view",
      "type": "function"
    },
    {
      "inputs": [
        {
          "internalType": "uint256",
          "name": "tokenId",
          "type": "uint256"
        }
      ],
      "name": "ownerOf",
      "outputs": [
        {
          "internalType": "address",
          "name": "",
          "type": "address"
        }
      ],
      "stateMutability": "view",
      "type": "function"
    },
    {
      "inputs": [],
      "name": "paused",
      "outputs": [
        {
          "internalType": "bool",
          "name": "",
          "type": "bool"
        }
      ],
      "stateMutability": "view",
      "type": "function"
    },
    {
      "inputs": [],
      "name": "playPause",
      "outputs": [],
      "stateMutability": "nonpayable",
      "type": "function"
    },
    {
      "inputs": [],
      "name": "previousMaxSupply",
      "outputs": [
        {
          "internalType": "uint256",
          "name": "",
          "type": "uint256"
        }
      ],
      "stateMutability": "view",
      "type": "function"
    },
    {
      "inputs": [],
      "name": "renounceOwnership",
      "outputs": [],
      "stateMutability": "nonpayable",
      "type": "function"
    },
    {
      "inputs": [
        {
          "internalType": "uint256",
          "name": "_tokenId",
          "type": "uint256"
        }
      ],
      "name": "reservedMint",
      "outputs": [],
      "stateMutability": "payable",
      "type": "function"
    },
    {
      "inputs": [
        {
          "internalType": "uint256",
          "name": "",
          "type": "uint256"
        }
      ],
      "name": "reservedMints",
      "outputs": [
        {
          "internalType": "bool",
          "name": "",
          "type": "bool"
        }
      ],
      "stateMutability": "view",
      "type": "function"
    },
    {
      "inputs": [],
      "name": "reveal",
      "outputs": [],
      "stateMutability": "nonpayable",
      "type": "function"
    },
    {
      "inputs": [],
      "name": "revealAlreadyMinted",
      "outputs": [],
      "stateMutability": "nonpayable",
      "type": "function"
    },
    {
      "inputs": [],
      "name": "revealed",
      "outputs": [
        {
          "internalType": "bool",
          "name": "",
          "type": "bool"
        }
      ],
      "stateMutability": "view",
      "type": "function"
    },
    {
      "inputs": [
        {
          "internalType": "address",
          "name": "from",
          "type": "address"
        },
        {
          "internalType": "address",
          "name": "to",
          "type": "address"
        },
        {
          "internalType": "uint256",
          "name": "tokenId",
          "type": "uint256"
        }
      ],
      "name": "safeTransferFrom",
      "outputs": [],
      "stateMutability": "nonpayable",
      "type": "function"
    },
    {
      "inputs": [
        {
          "internalType": "address",
          "name": "from",
          "type": "address"
        },
        {
          "internalType": "address",
          "name": "to",
          "type": "address"
        },
        {
          "internalType": "uint256",
          "name": "tokenId",
          "type": "uint256"
        },
        {
          "internalType": "bytes",
          "name": "_data",
          "type": "bytes"
        }
      ],
      "name": "safeTransferFrom",
      "outputs": [],
      "stateMutability": "nonpayable",
      "type": "function"
    },
    {
      "inputs": [
        {
          "internalType": "address",
          "name": "operator",
          "type": "address"
        },
        {
          "internalType": "bool",
          "name": "approved",
          "type": "bool"
        }
      ],
      "name": "setApprovalForAll",
      "outputs": [],
      "stateMutability": "nonpayable",
      "type": "function"
    },
    {
      "inputs": [
        {
          "internalType": "string",
          "name": "_newBaseExtension",
          "type": "string"
        }
      ],
      "name": "setBaseExtension",
      "outputs": [],
      "stateMutability": "nonpayable",
      "type": "function"
    },
    {
      "inputs": [
        {
          "internalType": "string",
          "name": "_newBaseURI",
          "type": "string"
        }
      ],
      "name": "setBaseURI",
      "outputs": [],
      "stateMutability": "nonpayable",
      "type": "function"
    },
    {
      "inputs": [
        {
          "internalType": "uint256",
          "name": "_newCost",
          "type": "uint256"
        },
        {
          "internalType": "uint256",
          "name": "index",
          "type": "uint256"
        }
      ],
      "name": "setCost",
      "outputs": [],
      "stateMutability": "nonpayable",
      "type": "function"
    },
    {
      "inputs": [
        {
          "internalType": "string",
          "name": "_notRevealedURI",
          "type": "string"
        }
      ],
      "name": "setNotRevealedURI",
      "outputs": [],
      "stateMutability": "nonpayable",
      "type": "function"
    },
    {
      "inputs": [],
      "name": "setWhitelistPhase",
      "outputs": [],
      "stateMutability": "nonpayable",
      "type": "function"
    },
    {
      "inputs": [
        {
          "internalType": "uint256",
          "name": "_newmaxMintAmount",
          "type": "uint256"
        }
      ],
      "name": "setmaxMintAmount",
      "outputs": [],
      "stateMutability": "nonpayable",
      "type": "function"
    },
    {
      "inputs": [
        {
          "internalType": "bytes4",
          "name": "interfaceId",
          "type": "bytes4"
        }
      ],
      "name": "supportsInterface",
      "outputs": [
        {
          "internalType": "bool",
          "name": "",
          "type": "bool"
        }
      ],
      "stateMutability": "view",
      "type": "function"
    },
    {
      "inputs": [],
      "name": "symbol",
      "outputs": [
        {
          "internalType": "string",
          "name": "",
          "type": "string"
        }
      ],
      "stateMutability": "view",
      "type": "function"
    },
    {
      "inputs": [
        {
          "internalType": "uint256",
          "name": "index",
          "type": "uint256"
        }
      ],
      "name": "tokenByIndex",
      "outputs": [
        {
          "internalType": "uint256",
          "name": "",
          "type": "uint256"
        }
      ],
      "stateMutability": "view",
      "type": "function"
    },
    {
      "inputs": [
        {
          "internalType": "address",
          "name": "owner",
          "type": "address"
        },
        {
          "internalType": "uint256",
          "name": "index",
          "type": "uint256"
        }
      ],
      "name": "tokenOfOwnerByIndex",
      "outputs": [
        {
          "internalType": "uint256",
          "name": "",
          "type": "uint256"
        }
      ],
      "stateMutability": "view",
      "type": "function"
    },
    {
      "inputs": [
        {
          "internalType": "uint256",
          "name": "tokenId",
          "type": "uint256"
        }
      ],
      "name": "tokenURI",
      "outputs": [
        {
          "internalType": "string",
          "name": "",
          "type": "string"
        }
      ],
      "stateMutability": "view",
      "type": "function"
    },
    {
      "inputs": [
        {
          "internalType": "uint256",
          "name": "_tokenId",
          "type": "uint256"
        }
      ],
      "name": "tokenUsed",
      "outputs": [
        {
          "internalType": "bool",
          "name": "",
          "type": "bool"
        }
      ],
      "stateMutability": "view",
      "type": "function"
    },
    {
      "inputs": [],
      "name": "totalMaxSupply",
      "outputs": [
        {
          "internalType": "uint256",
          "name": "",
          "type": "uint256"
        }
      ],
      "stateMutability": "view",
      "type": "function"
    },
    {
      "inputs": [],
      "name": "totalSupply",
      "outputs": [
        {
          "internalType": "uint256",
          "name": "",
          "type": "uint256"
        }
      ],
      "stateMutability": "view",
      "type": "function"
    },
    {
      "inputs": [
        {
          "internalType": "address",
          "name": "from",
          "type": "address"
        },
        {
          "internalType": "address",
          "name": "to",
          "type": "address"
        },
        {
          "internalType": "uint256",
          "name": "tokenId",
          "type": "uint256"
        }
      ],
      "name": "transferFrom",
      "outputs": [],
      "stateMutability": "nonpayable",
      "type": "function"
    },
    {
      "inputs": [
        {
          "internalType": "address",
          "name": "newOwner",
          "type": "address"
        }
      ],
      "name": "transferOwnership",
      "outputs": [],
      "stateMutability": "nonpayable",
      "type": "function"
    },
    {
      "inputs": [
        {
          "internalType": "address",
          "name": "_owner",
          "type": "address"
        }
      ],
      "name": "walletOfOwner",
      "outputs": [
        {
          "internalType": "uint256[]",
          "name": "",
          "type": "uint256[]"
        }
      ],
      "stateMutability": "view",
      "type": "function"
    },
    {
      "inputs": [],
      "name": "whitelistOn",
      "outputs": [
        {
          "internalType": "bool",
          "name": "",
          "type": "bool"
        }
      ],
      "stateMutability": "view",
      "type": "function"
    },
    {
      "inputs": [],
      "name": "withdraw",
      "outputs": [],
      "stateMutability": "payable",
      "type": "function"
    }
  ],
  "transactionHash": "0x491bd18c8461bfac85c9874fc68f8adb9f35139fcd96f06d36ac6e4088c57cde",
  "args": [
    "Mr. Crypto",
    "MRC",
    "baseURI/",
    "notRevURI/"
  ],
  "numDeployments": 1,
  "solcInputHash": "91ad156410faf815462551bab807058a",
  "bytecode": "0x60c06040526005608081905264173539b7b760d91b60a09081526200002891600c919062000258565b5060408051606081018252680100bd33fb98ba00008152680168d28e3f0028000060208201526802017a67f731740000918101919091526200006f90600e906003620002e7565b5061271060115560006012556014601381905580546001600160c81b031916789931f0108a281a0a4b78613156a039e6aefc59e40000000001179055348015620000b857600080fd5b50604051620030eb380380620030eb833981016040819052620000db91620003f1565b835184908490620000f490600090602085019062000258565b5080516200010a90600190602084019062000258565b50505062000127620001216200014760201b60201c565b6200014b565b62000132826200019d565b6200013d8162000215565b50505050620004fd565b3390565b600a80546001600160a01b038381166001600160a01b0319831681179093556040519116919082907f8be0079c531659141344cd1fd0a4f28419497f9722a3daafe3b4186f6b6457e090600090a35050565b600a546001600160a01b03163314620001fc5760405162461bcd60e51b815260206004820181905260248201527f4f776e61626c653a2063616c6c6572206973206e6f7420746865206f776e6572604482015260640160405180910390fd5b80516200021190600b90602084019062000258565b5050565b3360009081526017602052604090205460ff16806200023e5750600a546001600160a01b031633145b6200024857600080fd5b80516200021190600d9060208401905b8280546200026690620004aa565b90600052602060002090601f0160209004810192826200028a5760008555620002d5565b82601f10620002a557805160ff1916838001178555620002d5565b82800160010185558215620002d5579182015b82811115620002d5578251825591602001919060010190620002b8565b50620002e392915062000323565b5090565b8260038101928215620002d5579160200282015b82811115620002d557825182906001600160481b0316905591602001919060010190620002fb565b5b80821115620002e3576000815560010162000324565b600082601f8301126200034c57600080fd5b81516001600160401b0380821115620003695762000369620004e7565b604051601f8301601f19908116603f01168101908282118183101715620003945762000394620004e7565b81604052838152602092508683858801011115620003b157600080fd5b600091505b83821015620003d55785820183015181830184015290820190620003b6565b83821115620003e75760008385830101525b9695505050505050565b600080600080608085870312156200040857600080fd5b84516001600160401b03808211156200042057600080fd5b6200042e888389016200033a565b955060208701519150808211156200044557600080fd5b62000453888389016200033a565b945060408701519150808211156200046a57600080fd5b62000478888389016200033a565b935060608701519150808211156200048f57600080fd5b506200049e878288016200033a565b91505092959194509250565b600181811c90821680620004bf57607f821691505b60208210811415620004e157634e487b7160e01b600052602260045260246000fd5b50919050565b634e487b7160e01b600052604160045260246000fd5b612bde806200050d6000396000f3fe6080604052600436106102e45760003560e01c80637048027511610190578063a22cb465116100dc578063c8eb449e11610095578063e985e9c51161006f578063e985e9c51461089a578063f2c4ce1e146108e3578063f2fde38b14610903578063f376b2f61461092357600080fd5b8063c8eb449e14610835578063d4c520b614610865578063da3ef23f1461087a57600080fd5b8063a22cb4651461077b578063a475b5dd1461079b578063b7d1a1e1146107b0578063b88d4fde146107e0578063c668286214610800578063c87b56dd1461081557600080fd5b80638c74bf0e116101495780639097548d116101235780639097548d1461071d57806395d89b411461073d578063a0617ad014610752578063a0712d681461076857600080fd5b80638c74bf0e146106cb5780638da5cb5b146106de5780638e021c06146106fc57600080fd5b8063704802751461061657806370a0823114610636578063715018a6146106565780637696e0881461066b5780637f00c7a61461068b5780637f649783146106ab57600080fd5b806324d7806c1161024f578063438b63001161020857806351830227116101e2578063518302271461059d57806355f804b3146105bc5780635c975abb146105dc5780636352211e146105f657600080fd5b8063438b6300146105305780634917aa3f1461055d5780634f6ccce71461057d57600080fd5b806324d7806c14610475578063261d3b21146104a55780632f745c59146104b85780633af32abf146104d85780633ccfd60b1461050857806342842e0e1461051057600080fd5b80631155fb91116102a15780631155fb91146103d357806318160ddd146103f55780631d7398fe1461040a578063239c70ae1461042a57806323b872dd1461044057806323e699e01461046057600080fd5b806301ffc9a7146102e957806306fdde031461031e578063081812fc14610340578063081c8c4414610378578063095ea7b31461038d5780630de1ff62146103af575b600080fd5b3480156102f557600080fd5b506103096103043660046126d4565b610938565b60405190151581526020015b60405180910390f35b34801561032a57600080fd5b50610333610963565b604051610315919061292f565b34801561034c57600080fd5b5061036061035b366004612757565b6109f5565b6040516001600160a01b039091168152602001610315565b34801561038457600080fd5b50610333610a8f565b34801561039957600080fd5b506103ad6103a83660046125f6565b610b1d565b005b3480156103bb57600080fd5b506103c560125481565b604051908152602001610315565b3480156103df57600080fd5b5060145461030990640100000000900460ff1681565b34801561040157600080fd5b506008546103c5565b34801561041657600080fd5b506103ad6104253660046124ad565b610c33565b34801561043657600080fd5b506103c560135481565b34801561044c57600080fd5b506103ad61045b366004612502565b610c8d565b34801561046c57600080fd5b506103ad610cbe565b34801561048157600080fd5b506103096104903660046124ad565b60176020526000908152604090205460ff1681565b6103ad6104b3366004612770565b610d04565b3480156104c457600080fd5b506103c56104d33660046125f6565b610d93565b3480156104e457600080fd5b506103096104f33660046124ad565b60156020526000908152604090205460ff1681565b6103ad610e29565b34801561051c57600080fd5b506103ad61052b366004612502565b610efe565b34801561053c57600080fd5b5061055061054b3660046124ad565b610f19565b60405161031591906128eb565b34801561056957600080fd5b506014546103099062010000900460ff1681565b34801561058957600080fd5b506103c5610598366004612757565b610fb9565b3480156105a957600080fd5b5060145461030990610100900460ff1681565b3480156105c857600080fd5b506103ad6105d736600461270e565b61104c565b3480156105e857600080fd5b506014546103099060ff1681565b34801561060257600080fd5b50610360610611366004612757565b61108d565b34801561062257600080fd5b506103ad6106313660046124ad565b611104565b34801561064257600080fd5b506103c56106513660046124ad565b611152565b34801561066257600080fd5b506103ad6111d9565b34801561067757600080fd5b506103ad610686366004612793565b61120f565b34801561069757600080fd5b506103ad6106a6366004612757565b611253565b3480156106b757600080fd5b506103ad6106c6366004612620565b611289565b6103ad6106d9366004612757565b611320565b3480156106ea57600080fd5b50600a546001600160a01b0316610360565b34801561070857600080fd5b50601454610309906301000000900460ff1681565b34801561072957600080fd5b506103c5610738366004612757565b6114df565b34801561074957600080fd5b506103336114f6565b34801561075e57600080fd5b506103c560115481565b6103ad610776366004612757565b611505565b34801561078757600080fd5b506103ad6107963660046125ba565b61153a565b3480156107a757600080fd5b506103ad611545565b3480156107bc57600080fd5b506103096107cb366004612757565b60166020526000908152604090205460ff1681565b3480156107ec57600080fd5b506103ad6107fb36600461253e565b611593565b34801561080c57600080fd5b506103336115c5565b34801561082157600080fd5b50610333610830366004612757565b6115d2565b34801561084157600080fd5b50610309610850366004612757565b60009081526016602052604090205460ff1690565b34801561087157600080fd5b506103ad611760565b34801561088657600080fd5b506103ad61089536600461270e565b611799565b3480156108a657600080fd5b506103096108b53660046124cf565b6001600160a01b03918216600090815260056020908152604080832093909416825291909152205460ff1690565b3480156108ef57600080fd5b506103ad6108fe36600461270e565b6117d6565b34801561090f57600080fd5b506103ad61091e3660046124ad565b61181a565b34801561092f57600080fd5b506103ad6118b2565b60006001600160e01b0319821663780e9d6360e01b148061095d575061095d82611902565b92915050565b60606000805461097290612aba565b80601f016020809104026020016040519081016040528092919081815260200182805461099e90612aba565b80156109eb5780601f106109c0576101008083540402835291602001916109eb565b820191906000526020600020905b8154815290600101906020018083116109ce57829003601f168201915b5050505050905090565b6000818152600260205260408120546001600160a01b0316610a735760405162461bcd60e51b815260206004820152602c60248201527f4552433732313a20617070726f76656420717565727920666f72206e6f6e657860448201526b34b9ba32b73a103a37b5b2b760a11b60648201526084015b60405180910390fd5b506000908152600460205260409020546001600160a01b031690565b600d8054610a9c90612aba565b80601f0160208091040260200160405190810160405280929190818152602001828054610ac890612aba565b8015610b155780601f10610aea57610100808354040283529160200191610b15565b820191906000526020600020905b815481529060010190602001808311610af857829003601f168201915b505050505081565b6000610b288261108d565b9050806001600160a01b0316836001600160a01b03161415610b965760405162461bcd60e51b815260206004820152602160248201527f4552433732313a20617070726f76616c20746f2063757272656e74206f776e656044820152603960f91b6064820152608401610a6a565b336001600160a01b0382161480610bb25750610bb281336108b5565b610c245760405162461bcd60e51b815260206004820152603860248201527f4552433732313a20617070726f76652063616c6c6572206973206e6f74206f7760448201527f6e6572206e6f7220617070726f76656420666f7220616c6c00000000000000006064820152608401610a6a565b610c2e8383611952565b505050565b600a546001600160a01b03163314610c5d5760405162461bcd60e51b8152600401610a6a90612994565b601480546001600160a01b03909216650100000000000265010000000000600160c81b0319909216919091179055565b610c9733826119c0565b610cb35760405162461bcd60e51b8152600401610a6a906129c9565b610c2e838383611ab7565b3360009081526017602052604090205460ff1680610ce65750600a546001600160a01b031633145b610cef57600080fd5b6014805461ffff19811660ff90911615179055565b600a546001600160a01b03163314610d2e5760405162461bcd60e51b8152600401610a6a90612994565b6000610d3960085490565b905060008311610d4857600080fd5b601154610d558483612a4b565b1115610d6057600080fd5b60015b838111610d8d57610d7d83610d788385612a4b565b611c5e565b610d8681612af5565b9050610d63565b50505050565b6000610d9e83611152565b8210610e005760405162461bcd60e51b815260206004820152602b60248201527f455243373231456e756d657261626c653a206f776e657220696e646578206f7560448201526a74206f6620626f756e647360a81b6064820152608401610a6a565b506001600160a01b03919091166000908152600660209081526040808320938352929052205490565b3360009081526017602052604090205460ff1680610e515750600a546001600160a01b031633145b610e5a57600080fd5b6014546040516000916501000000000090046001600160a01b03169047908381818185875af1925050503d8060008114610eb0576040519150601f19603f3d011682016040523d82523d6000602084013e610eb5565b606091505b5050905080610efb5760405162461bcd60e51b81526020600482015260126024820152711d1c985b9cd858dd1a5bdb8819985a5b195960721b6044820152606401610a6a565b50565b610c2e83838360405180602001604052806000815250611593565b60606000610f2683611152565b905060008167ffffffffffffffff811115610f4357610f43612b7c565b604051908082528060200260200182016040528015610f6c578160200160208202803683370190505b50905060005b82811015610fb157610f848582610d93565b828281518110610f9657610f96612b66565b6020908102919091010152610faa81612af5565b9050610f72565b509392505050565b6000610fc460085490565b82106110275760405162461bcd60e51b815260206004820152602c60248201527f455243373231456e756d657261626c653a20676c6f62616c20696e646578206f60448201526b7574206f6620626f756e647360a01b6064820152608401610a6a565b6008828154811061103a5761103a612b66565b90600052602060002001549050919050565b600a546001600160a01b031633146110765760405162461bcd60e51b8152600401610a6a90612994565b805161108990600b9060208401906123a0565b5050565b6000818152600260205260408120546001600160a01b03168061095d5760405162461bcd60e51b815260206004820152602960248201527f4552433732313a206f776e657220717565727920666f72206e6f6e657869737460448201526832b73a103a37b5b2b760b91b6064820152608401610a6a565b600a546001600160a01b0316331461112e5760405162461bcd60e51b8152600401610a6a90612994565b6001600160a01b03166000908152601760205260409020805460ff19166001179055565b60006001600160a01b0382166111bd5760405162461bcd60e51b815260206004820152602a60248201527f4552433732313a2062616c616e636520717565727920666f7220746865207a65604482015269726f206164647265737360b01b6064820152608401610a6a565b506001600160a01b031660009081526003602052604090205490565b600a546001600160a01b031633146112035760405162461bcd60e51b8152600401610a6a90612994565b61120d6000611c78565b565b600a546001600160a01b031633146112395760405162461bcd60e51b8152600401610a6a90612994565b81600e826003811061124d5761124d612b66565b01555050565b3360009081526017602052604090205460ff168061127b5750600a546001600160a01b031633145b61128457600080fd5b601355565b3360009081526017602052604090205460ff16806112b15750600a546001600160a01b031633145b6112ba57600080fd5b60005b8151811015611089576001601560008484815181106112de576112de612b66565b6020908102919091018101516001600160a01b03168252810191909152604001600020805460ff191691151591909117905561131981612af5565b90506112bd565b600061132b60085490565b60145490915060ff161561133e57600080fd5b336113488361108d565b6001600160a01b0316146113a85760405162461bcd60e51b815260206004820152602160248201527f796f7520617265206e6f7420746865206f776e6572206f662074686174204e466044820152601560fa1b6064820152608401610a6a565b6011546113b6826001612a4b565b11156113c157600080fd5b60008281526016602052604090205460ff16156114345760405162461bcd60e51b815260206004820152602b60248201527f546f6b656e20616c72656479207573656420746f206d696e742061742072657360448201526a657276656420707269636560a81b6064820152608401610a6a565b6103e882116114c8576103e7811180156114505750610f9f8111155b61149c5760405162461bcd60e51b815260206004820152601860248201527f537570706c79206973206c657373207468616e203130303000000000000000006044820152606401610a6a565b6114ab33610d78836001612a4b565b6000828152601660205260409020805460ff191660011790555050565b610fa0821161108957610f9f811161149c57600080fd5b600e81600381106114ef57600080fd5b0154905081565b60606001805461097290612aba565b600061151060085490565b905060015b828111610c2e5761152a33610d788385612a4b565b61153381612af5565b9050611515565b611089338383611cca565b3360009081526017602052604090205460ff168061156d5750600a546001600160a01b031633145b61157657600080fd5b6014805461ff00191661010017905561158e60085490565b601255565b61159d33836119c0565b6115b95760405162461bcd60e51b8152600401610a6a906129c9565b610d8d84848484611d99565b600c8054610a9c90612aba565b6000818152600260205260409020546060906001600160a01b03166116515760405162461bcd60e51b815260206004820152602f60248201527f4552433732314d657461646174613a2055524920717565727920666f72206e6f60448201526e3732bc34b9ba32b73a103a37b5b2b760891b6064820152608401610a6a565b601454610100900460ff1615801561166a575060125482115b1561170157600d805461167c90612aba565b80601f01602080910402602001604051908101604052809291908181526020018280546116a890612aba565b80156116f55780601f106116ca576101008083540402835291602001916116f5565b820191906000526020600020905b8154815290600101906020018083116116d857829003601f168201915b50505050509050919050565b6000600b805461171090612aba565b90501161172c576040518060200160405280600081525061095d565b600b61173783611dcc565b600c60405160200161174b9392919061287b565b60405160208183030381529060405292915050565b3360009081526017602052604090205460ff16806117885750600a546001600160a01b031633145b61179157600080fd5b600854601255565b600a546001600160a01b031633146117c35760405162461bcd60e51b8152600401610a6a90612994565b805161108990600c9060208401906123a0565b3360009081526017602052604090205460ff16806117fe5750600a546001600160a01b031633145b61180757600080fd5b805161108990600d9060208401906123a0565b600a546001600160a01b031633146118445760405162461bcd60e51b8152600401610a6a90612994565b6001600160a01b0381166118a95760405162461bcd60e51b815260206004820152602660248201527f4f776e61626c653a206e6577206f776e657220697320746865207a65726f206160448201526564647265737360d01b6064820152608401610a6a565b610efb81611c78565b3360009081526017602052604090205460ff16806118da5750600a546001600160a01b031633145b6118e357600080fd5b6014805462ff0000198116620100009182900460ff1615909102179055565b60006001600160e01b031982166380ac58cd60e01b148061193357506001600160e01b03198216635b5e139f60e01b145b8061095d57506301ffc9a760e01b6001600160e01b031983161461095d565b600081815260046020526040902080546001600160a01b0319166001600160a01b03841690811790915581906119878261108d565b6001600160a01b03167f8c5be1e5ebec7d5bd14f71427d1e84f3dd0314c0f7b2291e5b200ac8c7c3b92560405160405180910390a45050565b6000818152600260205260408120546001600160a01b0316611a395760405162461bcd60e51b815260206004820152602c60248201527f4552433732313a206f70657261746f7220717565727920666f72206e6f6e657860448201526b34b9ba32b73a103a37b5b2b760a11b6064820152608401610a6a565b6000611a448361108d565b9050806001600160a01b0316846001600160a01b03161480611a8b57506001600160a01b0380821660009081526005602090815260408083209388168352929052205460ff165b80611aaf5750836001600160a01b0316611aa4846109f5565b6001600160a01b0316145b949350505050565b826001600160a01b0316611aca8261108d565b6001600160a01b031614611b2e5760405162461bcd60e51b815260206004820152602560248201527f4552433732313a207472616e736665722066726f6d20696e636f72726563742060448201526437bbb732b960d91b6064820152608401610a6a565b6001600160a01b038216611b905760405162461bcd60e51b8152602060048201526024808201527f4552433732313a207472616e7366657220746f20746865207a65726f206164646044820152637265737360e01b6064820152608401610a6a565b611b9b838383611eca565b611ba6600082611952565b6001600160a01b0383166000908152600360205260408120805460019290611bcf908490612a77565b90915550506001600160a01b0382166000908152600360205260408120805460019290611bfd908490612a4b565b909155505060008181526002602052604080822080546001600160a01b0319166001600160a01b0386811691821790925591518493918716917fddf252ad1be2c89b69c2b068fc378daa952ba7f163c4a11628f55a4df523b3ef91a4505050565b611089828260405180602001604052806000815250611f82565b600a80546001600160a01b038381166001600160a01b0319831681179093556040519116919082907f8be0079c531659141344cd1fd0a4f28419497f9722a3daafe3b4186f6b6457e090600090a35050565b816001600160a01b0316836001600160a01b03161415611d2c5760405162461bcd60e51b815260206004820152601960248201527f4552433732313a20617070726f766520746f2063616c6c6572000000000000006044820152606401610a6a565b6001600160a01b03838116600081815260056020908152604080832094871680845294825291829020805460ff191686151590811790915591519182527f17307eab39ab6107e8899845ad3d59bd9653f200f220920489ca2b5937696c31910160405180910390a3505050565b611da4848484611ab7565b611db084848484611fb5565b610d8d5760405162461bcd60e51b8152600401610a6a90612942565b606081611df05750506040805180820190915260018152600360fc1b602082015290565b8160005b8115611e1a5780611e0481612af5565b9150611e139050600a83612a63565b9150611df4565b60008167ffffffffffffffff811115611e3557611e35612b7c565b6040519080825280601f01601f191660200182016040528015611e5f576020820181803683370190505b5090505b8415611aaf57611e74600183612a77565b9150611e81600a86612b10565b611e8c906030612a4b565b60f81b818381518110611ea157611ea1612b66565b60200101906001600160f81b031916908160001a905350611ec3600a86612a63565b9450611e63565b6001600160a01b038316611f2557611f2081600880546000838152600960205260408120829055600182018355919091527ff3f7a9fe364faab93b216da50a3214154f22a0a2b415b23a84c8169e8b636ee30155565b611f48565b816001600160a01b0316836001600160a01b031614611f4857611f4883826120c2565b6001600160a01b038216611f5f57610c2e8161215f565b826001600160a01b0316826001600160a01b031614610c2e57610c2e828261220e565b611f8c8383612252565b611f996000848484611fb5565b610c2e5760405162461bcd60e51b8152600401610a6a90612942565b60006001600160a01b0384163b156120b757604051630a85bd0160e11b81526001600160a01b0385169063150b7a0290611ff99033908990889088906004016128ae565b602060405180830381600087803b15801561201357600080fd5b505af1925050508015612043575060408051601f3d908101601f19168201909252612040918101906126f1565b60015b61209d573d808015612071576040519150601f19603f3d011682016040523d82523d6000602084013e612076565b606091505b5080516120955760405162461bcd60e51b8152600401610a6a90612942565b805181602001fd5b6001600160e01b031916630a85bd0160e11b149050611aaf565b506001949350505050565b600060016120cf84611152565b6120d99190612a77565b60008381526007602052604090205490915080821461212c576001600160a01b03841660009081526006602090815260408083208584528252808320548484528184208190558352600790915290208190555b5060009182526007602090815260408084208490556001600160a01b039094168352600681528383209183525290812055565b60085460009061217190600190612a77565b6000838152600960205260408120546008805493945090928490811061219957612199612b66565b9060005260206000200154905080600883815481106121ba576121ba612b66565b60009182526020808320909101929092558281526009909152604080822084905585825281205560088054806121f2576121f2612b50565b6001900381819060005260206000200160009055905550505050565b600061221983611152565b6001600160a01b039093166000908152600660209081526040808320868452825280832085905593825260079052919091209190915550565b6001600160a01b0382166122a85760405162461bcd60e51b815260206004820181905260248201527f4552433732313a206d696e7420746f20746865207a65726f20616464726573736044820152606401610a6a565b6000818152600260205260409020546001600160a01b03161561230d5760405162461bcd60e51b815260206004820152601c60248201527f4552433732313a20746f6b656e20616c7265616479206d696e746564000000006044820152606401610a6a565b61231960008383611eca565b6001600160a01b0382166000908152600360205260408120805460019290612342908490612a4b565b909155505060008181526002602052604080822080546001600160a01b0319166001600160a01b03861690811790915590518392907fddf252ad1be2c89b69c2b068fc378daa952ba7f163c4a11628f55a4df523b3ef908290a45050565b8280546123ac90612aba565b90600052602060002090601f0160209004810192826123ce5760008555612414565b82601f106123e757805160ff1916838001178555612414565b82800160010185558215612414579182015b828111156124145782518255916020019190600101906123f9565b50612420929150612424565b5090565b5b808211156124205760008155600101612425565b600067ffffffffffffffff83111561245357612453612b7c565b612466601f8401601f1916602001612a1a565b905082815283838301111561247a57600080fd5b828260208301376000602084830101529392505050565b80356001600160a01b03811681146124a857600080fd5b919050565b6000602082840312156124bf57600080fd5b6124c882612491565b9392505050565b600080604083850312156124e257600080fd5b6124eb83612491565b91506124f960208401612491565b90509250929050565b60008060006060848603121561251757600080fd5b61252084612491565b925061252e60208501612491565b9150604084013590509250925092565b6000806000806080858703121561255457600080fd5b61255d85612491565b935061256b60208601612491565b925060408501359150606085013567ffffffffffffffff81111561258e57600080fd5b8501601f8101871361259f57600080fd5b6125ae87823560208401612439565b91505092959194509250565b600080604083850312156125cd57600080fd5b6125d683612491565b9150602083013580151581146125eb57600080fd5b809150509250929050565b6000806040838503121561260957600080fd5b61261283612491565b946020939093013593505050565b6000602080838503121561263357600080fd5b823567ffffffffffffffff8082111561264b57600080fd5b818501915085601f83011261265f57600080fd5b81358181111561267157612671612b7c565b8060051b9150612682848301612a1a565b8181528481019084860184860187018a101561269d57600080fd5b600095505b838610156126c7576126b381612491565b8352600195909501949186019186016126a2565b5098975050505050505050565b6000602082840312156126e657600080fd5b81356124c881612b92565b60006020828403121561270357600080fd5b81516124c881612b92565b60006020828403121561272057600080fd5b813567ffffffffffffffff81111561273757600080fd5b8201601f8101841361274857600080fd5b611aaf84823560208401612439565b60006020828403121561276957600080fd5b5035919050565b6000806040838503121561278357600080fd5b823591506124f960208401612491565b600080604083850312156127a657600080fd5b50508035926020909101359150565b600081518084526127cd816020860160208601612a8e565b601f01601f19169290920160200192915050565b8054600090600181811c90808316806127fb57607f831692505b602080841082141561281d57634e487b7160e01b600052602260045260246000fd5b81801561283157600181146128425761286f565b60ff1986168952848901965061286f565b60008881526020902060005b868110156128675781548b82015290850190830161284e565b505084890196505b50505050505092915050565b600061288782866127e1565b8451612897818360208901612a8e565b6128a3818301866127e1565b979650505050505050565b6001600160a01b03858116825284166020820152604081018390526080606082018190526000906128e1908301846127b5565b9695505050505050565b6020808252825182820181905260009190848201906040850190845b8181101561292357835183529284019291840191600101612907565b50909695505050505050565b6020815260006124c860208301846127b5565b60208082526032908201527f4552433732313a207472616e7366657220746f206e6f6e20455243373231526560408201527131b2b4bb32b91034b6b83632b6b2b73a32b960711b606082015260800190565b6020808252818101527f4f776e61626c653a2063616c6c6572206973206e6f7420746865206f776e6572604082015260600190565b60208082526031908201527f4552433732313a207472616e736665722063616c6c6572206973206e6f74206f6040820152701ddb995c881b9bdc88185c1c1c9bdd9959607a1b606082015260800190565b604051601f8201601f1916810167ffffffffffffffff81118282101715612a4357612a43612b7c565b604052919050565b60008219821115612a5e57612a5e612b24565b500190565b600082612a7257612a72612b3a565b500490565b600082821015612a8957612a89612b24565b500390565b60005b83811015612aa9578181015183820152602001612a91565b83811115610d8d5750506000910152565b600181811c90821680612ace57607f821691505b60208210811415612aef57634e487b7160e01b600052602260045260246000fd5b50919050565b6000600019821415612b0957612b09612b24565b5060010190565b600082612b1f57612b1f612b3a565b500690565b634e487b7160e01b600052601160045260246000fd5b634e487b7160e01b600052601260045260246000fd5b634e487b7160e01b600052603160045260246000fd5b634e487b7160e01b600052603260045260246000fd5b634e487b7160e01b600052604160045260246000fd5b6001600160e01b031981168114610efb57600080fdfea26469706673582212200020863624a01b03f58be8ac47df3a7d3fc1fe5314341488c91e4d0ac7df301e64736f6c63430008070033",
  "devdoc": {
    "kind": "dev",
    "methods": {
      "approve(address,uint256)": {
        "details": "See {IERC721-approve}."
      },
      "balanceOf(address)": {
        "details": "See {IERC721-balanceOf}."
      },
      "getApproved(uint256)": {
        "details": "See {IERC721-getApproved}."
      },
      "isApprovedForAll(address,address)": {
        "details": "See {IERC721-isApprovedForAll}."
      },
      "name()": {
        "details": "See {IERC721Metadata-name}."
      },
      "owner()": {
        "details": "Returns the address of the current owner."
      },
      "ownerOf(uint256)": {
        "details": "See {IERC721-ownerOf}."
      },
      "renounceOwnership()": {
        "details": "Leaves the contract without owner. It will not be possible to call `onlyOwner` functions anymore. Can only be called by the current owner. NOTE: Renouncing ownership will leave the contract without an owner, thereby removing any functionality that is only available to the owner."
      },
      "safeTransferFrom(address,address,uint256)": {
        "details": "See {IERC721-safeTransferFrom}."
      },
      "safeTransferFrom(address,address,uint256,bytes)": {
        "details": "See {IERC721-safeTransferFrom}."
      },
      "setApprovalForAll(address,bool)": {
        "details": "See {IERC721-setApprovalForAll}."
      },
      "supportsInterface(bytes4)": {
        "details": "See {IERC165-supportsInterface}."
      },
      "symbol()": {
        "details": "See {IERC721Metadata-symbol}."
      },
      "tokenByIndex(uint256)": {
        "details": "See {IERC721Enumerable-tokenByIndex}."
      },
      "tokenOfOwnerByIndex(address,uint256)": {
        "details": "See {IERC721Enumerable-tokenOfOwnerByIndex}."
      },
      "tokenURI(uint256)": {
        "details": "See {IERC721Metadata-tokenURI}."
      },
      "totalSupply()": {
        "details": "See {IERC721Enumerable-totalSupply}."
      },
      "transferFrom(address,address,uint256)": {
        "details": "See {IERC721-transferFrom}."
      },
      "transferOwnership(address)": {
        "details": "Transfers ownership of the contract to a new account (`newOwner`). Can only be called by the current owner."
      }
    },
    "version": 1
  },
  "userdoc": {
    "kind": "user",
    "methods": {},
    "version": 1
  },
  "storageLayout": {
    "storage": [
      {
        "astId": 1212,
        "contract": "contracts/mock/MRCRYPTO.sol:MRCRYPTO",
        "label": "_name",
        "offset": 0,
        "slot": "0",
        "type": "t_string_storage"
      },
      {
        "astId": 1214,
        "contract": "contracts/mock/MRCRYPTO.sol:MRCRYPTO",
        "label": "_symbol",
        "offset": 0,
        "slot": "1",
        "type": "t_string_storage"
      },
      {
        "astId": 1218,
        "contract": "contracts/mock/MRCRYPTO.sol:MRCRYPTO",
        "label": "_owners",
        "offset": 0,
        "slot": "2",
        "type": "t_mapping(t_uint256,t_address)"
      },
      {
        "astId": 1222,
        "contract": "contracts/mock/MRCRYPTO.sol:MRCRYPTO",
        "label": "_balances",
        "offset": 0,
        "slot": "3",
        "type": "t_mapping(t_address,t_uint256)"
      },
      {
        "astId": 1226,
        "contract": "contracts/mock/MRCRYPTO.sol:MRCRYPTO",
        "label": "_tokenApprovals",
        "offset": 0,
        "slot": "4",
        "type": "t_mapping(t_uint256,t_address)"
      },
      {
        "astId": 1232,
        "contract": "contracts/mock/MRCRYPTO.sol:MRCRYPTO",
        "label": "_operatorApprovals",
        "offset": 0,
        "slot": "5",
        "type": "t_mapping(t_address,t_mapping(t_address,t_bool))"
      },
      {
        "astId": 2201,
        "contract": "contracts/mock/MRCRYPTO.sol:MRCRYPTO",
        "label": "_ownedTokens",
        "offset": 0,
        "slot": "6",
        "type": "t_mapping(t_address,t_mapping(t_uint256,t_uint256))"
      },
      {
        "astId": 2205,
        "contract": "contracts/mock/MRCRYPTO.sol:MRCRYPTO",
        "label": "_ownedTokensIndex",
        "offset": 0,
        "slot": "7",
        "type": "t_mapping(t_uint256,t_uint256)"
      },
      {
        "astId": 2208,
        "contract": "contracts/mock/MRCRYPTO.sol:MRCRYPTO",
        "label": "_allTokens",
        "offset": 0,
        "slot": "8",
        "type": "t_array(t_uint256)dyn_storage"
      },
      {
        "astId": 2212,
        "contract": "contracts/mock/MRCRYPTO.sol:MRCRYPTO",
        "label": "_allTokensIndex",
        "offset": 0,
        "slot": "9",
        "type": "t_mapping(t_uint256,t_uint256)"
      },
      {
        "astId": 400,
        "contract": "contracts/mock/MRCRYPTO.sol:MRCRYPTO",
        "label": "_owner",
        "offset": 0,
        "slot": "10",
        "type": "t_address"
      },
      {
        "astId": 4541,
        "contract": "contracts/mock/MRCRYPTO.sol:MRCRYPTO",
        "label": "baseURI",
        "offset": 0,
        "slot": "11",
        "type": "t_string_storage"
      },
      {
        "astId": 4544,
        "contract": "contracts/mock/MRCRYPTO.sol:MRCRYPTO",
        "label": "baseExtension",
        "offset": 0,
        "slot": "12",
        "type": "t_string_storage"
      },
      {
        "astId": 4546,
        "contract": "contracts/mock/MRCRYPTO.sol:MRCRYPTO",
        "label": "notRevealedUri",
        "offset": 0,
        "slot": "13",
        "type": "t_string_storage"
      },
      {
        "astId": 4554,
        "contract": "contracts/mock/MRCRYPTO.sol:MRCRYPTO",
        "label": "cost",
        "offset": 0,
        "slot": "14",
        "type": "t_array(t_uint256)3_storage"
      },
      {
        "astId": 4557,
        "contract": "contracts/mock/MRCRYPTO.sol:MRCRYPTO",
        "label": "totalMaxSupply",
        "offset": 0,
        "slot": "17",
        "type": "t_uint256"
      },
      {
        "astId": 4560,
        "contract": "contracts/mock/MRCRYPTO.sol:MRCRYPTO",
        "label": "previousMaxSupply",
        "offset": 0,
        "slot": "18",
        "type": "t_uint256"
      },
      {
        "astId": 4563,
        "contract": "contracts/mock/MRCRYPTO.sol:MRCRYPTO",
        "label": "maxMintAmount",
        "offset": 0,
        "slot": "19",
        "type": "t_uint256"
      },
      {
        "astId": 4566,
        "contract": "contracts/mock/MRCRYPTO.sol:MRCRYPTO",
        "label": "paused",
        "offset": 0,
        "slot": "20",
        "type": "t_bool"
      },
      {
        "astId": 4569,
        "contract": "contracts/mock/MRCRYPTO.sol:MRCRYPTO",
        "label": "revealed",
        "offset": 1,
        "slot": "20",
        "type": "t_bool"
      },
      {
        "astId": 4572,
        "contract": "contracts/mock/MRCRYPTO.sol:MRCRYPTO",
        "label": "whitelistOn",
        "offset": 2,
        "slot": "20",
        "type": "t_bool"
      },
      {
        "astId": 4575,
        "contract": "contracts/mock/MRCRYPTO.sol:MRCRYPTO",
        "label": "lockURI",
        "offset": 3,
        "slot": "20",
        "type": "t_bool"
      },
      {
        "astId": 4578,
        "contract": "contracts/mock/MRCRYPTO.sol:MRCRYPTO",
        "label": "lockExt",
        "offset": 4,
        "slot": "20",
        "type": "t_bool"
      },
      {
        "astId": 4581,
        "contract": "contracts/mock/MRCRYPTO.sol:MRCRYPTO",
        "label": "liquidity",
        "offset": 5,
        "slot": "20",
        "type": "t_address"
      },
      {
        "astId": 4585,
        "contract": "contracts/mock/MRCRYPTO.sol:MRCRYPTO",
        "label": "isWhitelisted",
        "offset": 0,
        "slot": "21",
        "type": "t_mapping(t_address,t_bool)"
      },
      {
        "astId": 4589,
        "contract": "contracts/mock/MRCRYPTO.sol:MRCRYPTO",
        "label": "reservedMints",
        "offset": 0,
        "slot": "22",
        "type": "t_mapping(t_uint256,t_bool)"
      },
      {
        "astId": 4593,
        "contract": "contracts/mock/MRCRYPTO.sol:MRCRYPTO",
        "label": "isAdmin",
        "offset": 0,
        "slot": "23",
        "type": "t_mapping(t_address,t_bool)"
      }
    ],
    "types": {
      "t_address": {
        "encoding": "inplace",
        "label": "address",
        "numberOfBytes": "20"
      },
      "t_array(t_uint256)3_storage": {
        "base": "t_uint256",
        "encoding": "inplace",
        "label": "uint256[3]",
        "numberOfBytes": "96"
      },
      "t_array(t_uint256)dyn_storage": {
        "base": "t_uint256",
        "encoding": "dynamic_array",
        "label": "uint256[]",
        "numberOfBytes": "32"
      },
      "t_bool": {
        "encoding": "inplace",
        "label": "bool",
        "numberOfBytes": "1"
      },
      "t_mapping(t_address,t_bool)": {
        "encoding": "mapping",
        "key": "t_address",
        "label": "mapping(address => bool)",
        "numberOfBytes": "32",
        "value": "t_bool"
      },
      "t_mapping(t_address,t_mapping(t_address,t_bool))": {
        "encoding": "mapping",
        "key": "t_address",
        "label": "mapping(address => mapping(address => bool))",
        "numberOfBytes": "32",
        "value": "t_mapping(t_address,t_bool)"
      },
      "t_mapping(t_address,t_mapping(t_uint256,t_uint256))": {
        "encoding": "mapping",
        "key": "t_address",
        "label": "mapping(address => mapping(uint256 => uint256))",
        "numberOfBytes": "32",
        "value": "t_mapping(t_uint256,t_uint256)"
      },
      "t_mapping(t_address,t_uint256)": {
        "encoding": "mapping",
        "key": "t_address",
        "label": "mapping(address => uint256)",
        "numberOfBytes": "32",
        "value": "t_uint256"
      },
      "t_mapping(t_uint256,t_address)": {
        "encoding": "mapping",
        "key": "t_uint256",
        "label": "mapping(uint256 => address)",
        "numberOfBytes": "32",
        "value": "t_address"
      },
      "t_mapping(t_uint256,t_bool)": {
        "encoding": "mapping",
        "key": "t_uint256",
        "label": "mapping(uint256 => bool)",
        "numberOfBytes": "32",
        "value": "t_bool"
      },
      "t_mapping(t_uint256,t_uint256)": {
        "encoding": "mapping",
        "key": "t_uint256",
        "label": "mapping(uint256 => uint256)",
        "numberOfBytes": "32",
        "value": "t_uint256"
      },
      "t_string_storage": {
        "encoding": "bytes",
        "label": "string",
        "numberOfBytes": "32"
      },
      "t_uint256": {
        "encoding": "inplace",
        "label": "uint256",
        "numberOfBytes": "32"
      }
    }
  }
}