{
  "address": "0x463Fe11B357f13b892e212f1AB9b57AbbD533988",
  "abi": [
    {
      "inputs": [
        {
          "internalType": "contract IMRC",
          "name": "_mrc",
          "type": "address"
        },
        {
          "internalType": "contract IERC20",
          "name": "_erc20",
          "type": "address"
        }
      ],
      "stateMutability": "nonpayable",
      "type": "constructor"
    },
    {
      "inputs": [],
      "name": "adminErr",
      "type": "error"
    },
    {
      "inputs": [],
      "name": "contributorAlreadyExistsErr",
      "type": "error"
    },
    {
      "inputs": [],
      "name": "erc20TransferFailed",
      "type": "error"
    },
    {
      "inputs": [],
      "name": "holderErr",
      "type": "error"
    },
    {
      "inputs": [],
      "name": "noFundsWithdrawErr",
      "type": "error"
    },
    {
      "inputs": [],
      "name": "projectInvalidParameterErr",
      "type": "error"
    },
    {
      "anonymous": false,
      "inputs": [
        {
          "indexed": true,
          "internalType": "address",
          "name": "previousOwner",
          "type": "address"
        },
        {
          "indexed": true,
          "internalType": "address",
          "name": "newOwner",
          "type": "address"
        }
      ],
      "name": "OwnershipTransferred",
      "type": "event"
    },
    {
      "anonymous": false,
      "inputs": [
        {
          "indexed": true,
          "internalType": "bytes32",
          "name": "role",
          "type": "bytes32"
        },
        {
          "indexed": true,
          "internalType": "bytes32",
          "name": "previousAdminRole",
          "type": "bytes32"
        },
        {
          "indexed": true,
          "internalType": "bytes32",
          "name": "newAdminRole",
          "type": "bytes32"
        }
      ],
      "name": "RoleAdminChanged",
      "type": "event"
    },
    {
      "anonymous": false,
      "inputs": [
        {
          "indexed": true,
          "internalType": "bytes32",
          "name": "role",
          "type": "bytes32"
        },
        {
          "indexed": true,
          "internalType": "address",
          "name": "account",
          "type": "address"
        },
        {
          "indexed": true,
          "internalType": "address",
          "name": "sender",
          "type": "address"
        }
      ],
      "name": "RoleGranted",
      "type": "event"
    },
    {
      "anonymous": false,
      "inputs": [
        {
          "indexed": true,
          "internalType": "bytes32",
          "name": "role",
          "type": "bytes32"
        },
        {
          "indexed": true,
          "internalType": "address",
          "name": "account",
          "type": "address"
        },
        {
          "indexed": true,
          "internalType": "address",
          "name": "sender",
          "type": "address"
        }
      ],
      "name": "RoleRevoked",
      "type": "event"
    },
    {
      "anonymous": false,
      "inputs": [
        {
          "indexed": false,
          "internalType": "address",
          "name": "newContributor",
          "type": "address"
        }
      ],
      "name": "newContributorRegistered",
      "type": "event"
    },
    {
      "anonymous": false,
      "inputs": [
        {
          "indexed": false,
          "internalType": "string",
          "name": "name",
          "type": "string"
        },
        {
          "indexed": false,
          "internalType": "address",
          "name": "newProjectAddress",
          "type": "address"
        }
      ],
      "name": "newProjectCreated",
      "type": "event"
    },
    {
      "inputs": [],
      "name": "DEFAULT_ADMIN_ROLE",
      "outputs": [
        {
          "internalType": "bytes32",
          "name": "",
          "type": "bytes32"
        }
      ],
      "stateMutability": "view",
      "type": "function"
    },
    {
      "inputs": [
        {
          "internalType": "address",
          "name": "_newAdmin",
          "type": "address"
        }
      ],
      "name": "addAdmin",
      "outputs": [],
      "stateMutability": "nonpayable",
      "type": "function"
    },
    {
      "inputs": [
        {
          "internalType": "string",
          "name": "_name",
          "type": "string"
        },
        {
          "internalType": "uint256",
          "name": "_colateralCost",
          "type": "uint256"
        },
        {
          "internalType": "uint256",
          "name": "_reputationLevel",
          "type": "uint256"
        },
        {
          "internalType": "uint256",
          "name": "_maxContributorsNumber",
          "type": "uint256"
        }
      ],
      "name": "createProject",
      "outputs": [],
      "stateMutability": "nonpayable",
      "type": "function"
    },
    {
      "inputs": [
        {
          "internalType": "address",
          "name": "_account",
          "type": "address"
        }
      ],
      "name": "getAccountToContributorData",
      "outputs": [
        {
          "components": [
            {
              "internalType": "address",
              "name": "wallet",
              "type": "address"
            },
            {
              "internalType": "uint256",
              "name": "reputationLevel",
              "type": "uint256"
            },
            {
              "internalType": "uint256",
              "name": "reputationPoints",
              "type": "uint256"
            },
            {
              "internalType": "bool",
              "name": "banned",
              "type": "bool"
            }
          ],
          "internalType": "struct Contributor",
          "name": "",
          "type": "tuple"
        }
      ],
      "stateMutability": "view",
      "type": "function"
    },
    {
      "inputs": [
        {
          "internalType": "uint256",
          "name": "_index",
          "type": "uint256"
        }
      ],
      "name": "getContributor",
      "outputs": [
        {
          "components": [
            {
              "internalType": "address",
              "name": "wallet",
              "type": "address"
            },
            {
              "internalType": "uint256",
              "name": "reputationLevel",
              "type": "uint256"
            },
            {
              "internalType": "uint256",
              "name": "reputationPoints",
              "type": "uint256"
            },
            {
              "internalType": "bool",
              "name": "banned",
              "type": "bool"
            }
          ],
          "internalType": "struct Contributor",
          "name": "",
          "type": "tuple"
        }
      ],
      "stateMutability": "view",
      "type": "function"
    },
    {
      "inputs": [],
      "name": "getContributorsNumber",
      "outputs": [
        {
          "internalType": "uint256",
          "name": "",
          "type": "uint256"
        }
      ],
      "stateMutability": "view",
      "type": "function"
    },
    {
      "inputs": [],
      "name": "getERC20Interface",
      "outputs": [
        {
          "internalType": "contract IERC20",
          "name": "",
          "type": "address"
        }
      ],
      "stateMutability": "view",
      "type": "function"
    },
    {
      "inputs": [],
      "name": "getMRCInterface",
      "outputs": [
        {
          "internalType": "contract IMRC",
          "name": "",
          "type": "address"
        }
      ],
      "stateMutability": "view",
      "type": "function"
    },
    {
      "inputs": [],
      "name": "getProjects",
      "outputs": [
        {
          "internalType": "contract Project[]",
          "name": "",
          "type": "address[]"
        }
      ],
      "stateMutability": "view",
      "type": "function"
    },
    {
      "inputs": [],
      "name": "getProjectsNumber",
      "outputs": [
        {
          "internalType": "uint256",
          "name": "",
          "type": "uint256"
        }
      ],
      "stateMutability": "view",
      "type": "function"
    },
    {
      "inputs": [],
      "name": "getRacksPMOwner",
      "outputs": [
        {
          "internalType": "address",
          "name": "",
          "type": "address"
        }
      ],
      "stateMutability": "view",
      "type": "function"
    },
    {
      "inputs": [
        {
          "internalType": "bytes32",
          "name": "role",
          "type": "bytes32"
        }
      ],
      "name": "getRoleAdmin",
      "outputs": [
        {
          "internalType": "bytes32",
          "name": "",
          "type": "bytes32"
        }
      ],
      "stateMutability": "view",
      "type": "function"
    },
    {
      "inputs": [
        {
          "internalType": "bytes32",
          "name": "role",
          "type": "bytes32"
        },
        {
          "internalType": "address",
          "name": "account",
          "type": "address"
        }
      ],
      "name": "grantRole",
      "outputs": [],
      "stateMutability": "nonpayable",
      "type": "function"
    },
    {
      "inputs": [
        {
          "internalType": "bytes32",
          "name": "role",
          "type": "bytes32"
        },
        {
          "internalType": "address",
          "name": "account",
          "type": "address"
        }
      ],
      "name": "hasRole",
      "outputs": [
        {
          "internalType": "bool",
          "name": "",
          "type": "bool"
        }
      ],
      "stateMutability": "view",
      "type": "function"
    },
    {
      "inputs": [
        {
          "internalType": "address",
          "name": "_account",
          "type": "address"
        }
      ],
      "name": "isAdmin",
      "outputs": [
        {
          "internalType": "bool",
          "name": "",
          "type": "bool"
        }
      ],
      "stateMutability": "view",
      "type": "function"
    },
    {
      "inputs": [
        {
          "internalType": "address",
          "name": "_account",
          "type": "address"
        }
      ],
      "name": "isContributorBanned",
      "outputs": [
        {
          "internalType": "bool",
          "name": "",
          "type": "bool"
        }
      ],
      "stateMutability": "view",
      "type": "function"
    },
    {
      "inputs": [
        {
          "internalType": "address",
          "name": "_account",
          "type": "address"
        }
      ],
      "name": "isWalletContributor",
      "outputs": [
        {
          "internalType": "bool",
          "name": "",
          "type": "bool"
        }
      ],
      "stateMutability": "view",
      "type": "function"
    },
    {
      "inputs": [],
      "name": "owner",
      "outputs": [
        {
          "internalType": "address",
          "name": "",
          "type": "address"
        }
      ],
      "stateMutability": "view",
      "type": "function"
    },
    {
      "inputs": [],
      "name": "registerContributor",
      "outputs": [],
      "stateMutability": "nonpayable",
      "type": "function"
    },
    {
      "inputs": [
        {
          "internalType": "address",
          "name": "_account",
          "type": "address"
        }
      ],
      "name": "removeAdmin",
      "outputs": [],
      "stateMutability": "nonpayable",
      "type": "function"
    },
    {
      "inputs": [],
      "name": "renounceOwnership",
      "outputs": [],
      "stateMutability": "nonpayable",
      "type": "function"
    },
    {
      "inputs": [
        {
          "internalType": "bytes32",
          "name": "role",
          "type": "bytes32"
        },
        {
          "internalType": "address",
          "name": "account",
          "type": "address"
        }
      ],
      "name": "renounceRole",
      "outputs": [],
      "stateMutability": "nonpayable",
      "type": "function"
    },
    {
      "inputs": [
        {
          "internalType": "bytes32",
          "name": "role",
          "type": "bytes32"
        },
        {
          "internalType": "address",
          "name": "account",
          "type": "address"
        }
      ],
      "name": "revokeRole",
      "outputs": [],
      "stateMutability": "nonpayable",
      "type": "function"
    },
    {
      "inputs": [
        {
          "internalType": "address",
          "name": "_account",
          "type": "address"
        },
        {
          "components": [
            {
              "internalType": "address",
              "name": "wallet",
              "type": "address"
            },
            {
              "internalType": "uint256",
              "name": "reputationLevel",
              "type": "uint256"
            },
            {
              "internalType": "uint256",
              "name": "reputationPoints",
              "type": "uint256"
            },
            {
              "internalType": "bool",
              "name": "banned",
              "type": "bool"
            }
          ],
          "internalType": "struct Contributor",
          "name": "_newData",
          "type": "tuple"
        }
      ],
      "name": "setAccountToContributorData",
      "outputs": [],
      "stateMutability": "nonpayable",
      "type": "function"
    },
    {
      "inputs": [
        {
          "internalType": "address",
          "name": "_account",
          "type": "address"
        },
        {
          "internalType": "bool",
          "name": "_state",
          "type": "bool"
        }
      ],
      "name": "setContributorStateToBanList",
      "outputs": [],
      "stateMutability": "nonpayable",
      "type": "function"
    },
    {
      "inputs": [
        {
          "internalType": "address",
          "name": "_erc20",
          "type": "address"
        }
      ],
      "name": "setERC20Address",
      "outputs": [],
      "stateMutability": "nonpayable",
      "type": "function"
    },
    {
      "inputs": [
        {
          "internalType": "bytes4",
          "name": "interfaceId",
          "type": "bytes4"
        }
      ],
      "name": "supportsInterface",
      "outputs": [
        {
          "internalType": "bool",
          "name": "",
          "type": "bool"
        }
      ],
      "stateMutability": "view",
      "type": "function"
    },
    {
      "inputs": [
        {
          "internalType": "address",
          "name": "newOwner",
          "type": "address"
        }
      ],
      "name": "transferOwnership",
      "outputs": [],
      "stateMutability": "nonpayable",
      "type": "function"
    },
    {
      "inputs": [
        {
          "internalType": "address",
          "name": "_wallet",
          "type": "address"
        }
      ],
      "name": "withdrawAllFunds",
      "outputs": [],
      "stateMutability": "nonpayable",
      "type": "function"
    }
  ],
  "transactionHash": "0xbbfda9c57f60d19592327e69531a46f487bdabe2298ee2793c5b00f619f2074e",
  "args": [
    "0xc0f6567a4a653d315d829f6d2b3535dce101cd72",
    "0x4e777b826fbD60453CE9701dE5328a45E3fF1d44"
  ],
  "numDeployments": 6,
  "solcInputHash": "0fea47491c3c271dabdd3870c5e4a52e",
  "bytecode": "0x60a06040523480156200001157600080fd5b506040516200497738038062004977833981016040819052620000349162000169565b6200003f3362000081565b600280546001600160a01b0319166001600160a01b038316179055606082901b6001600160601b03191660805262000079600033620000d1565b5050620001c1565b600080546001600160a01b038381166001600160a01b0319831681178455604051919092169283917f8be0079c531659141344cd1fd0a4f28419497f9722a3daafe3b4186f6b6457e09190a35050565b620000dd8282620000e1565b5050565b60008281526001602090815260408083206001600160a01b038516845290915290205460ff16620000dd5760008281526001602081815260408084206001600160a01b0386168086529252808420805460ff19169093179092559051339285917f2f8788117e7eff1d82e926ec794901d17c78024a50270940304540a733656f0d9190a45050565b600080604083850312156200017d57600080fd5b82516200018a81620001a8565b60208401519092506200019d81620001a8565b809150509250929050565b6001600160a01b0381168114620001be57600080fd5b50565b60805160601c61477462000203600039600081816103f9015281816105c501528181610ccd01528181610e5e01528181611144015261131401526147746000f3fe60806040523480156200001157600080fd5b5060043610620001f55760003560e01c8063704802751162000119578063c6f5b0e011620000af578063dcc60128116200007a578063dcc601281462000530578063de05d1d81462000549578063f2fde38b1462000553578063f385e62f14620003c557600080fd5b8063c6f5b0e014620004e1578063cdc6c05a14620004f8578063d547741f1462000502578063d753a54e146200051957600080fd5b806391d1485411620000f057806391d1485414620003d7578063a217fddf14620003ee578063ad961f1314620003f7578063bd4fd7b3146200041e57600080fd5b80637048027514620003a4578063715018a614620003bb5780638da5cb5b14620003c557600080fd5b80632f2ff15d116200018f57806341bec0d2116200016657806341bec0d214620003395780634e8720601462000350578063610a6a2a14620003765780636e1989a0146200038d57600080fd5b80632f2ff15d14620002f457806332dee40b146200030b57806336568abe146200032257600080fd5b80631785f53c11620001d05780631785f53c146200026e578063248a9ca3146200028757806324d7806c14620002ae5780632b6acf8a14620002c557600080fd5b806301ffc9a714620001fa5780630fa059f31462000226578063123091ae146200023f575b600080fd5b620002116200020b36600462001a99565b6200056a565b60405190151581526020015b60405180910390f35b62000230620005a2565b6040519081526020016200021d565b620002116200025036600462001933565b6001600160a01b031660009081526006602052604090205460ff1690565b620002856200027f36600462001933565b62000681565b005b620002306200029836600462001a50565b6000908152600160208190526040909120015490565b62000211620002bf36600462001933565b620006c7565b62000211620002d636600462001933565b6001600160a01b031660009081526005602052604090205460ff1690565b620002856200030536600462001a6a565b620006d5565b620002856200031c36600462001933565b62000704565b620002856200033336600462001a6a565b620008f9565b620002856200034a36600462001933565b6200097b565b6002546001600160a01b03165b6040516001600160a01b0390911681526020016200021d565b620002856200038736600462001ac5565b620009c8565b620002856200039e36600462001951565b62000b11565b62000285620003b536600462001933565b62000b67565b6200028562000ba1565b6000546001600160a01b03166200035d565b62000211620003e836600462001a6a565b62000bdc565b62000230600081565b7f00000000000000000000000000000000000000000000000000000000000000006200035d565b620004a26200042f36600462001933565b60408051608080820183526000808352602080840182905283850182905260609384018290526001600160a01b0395861682526007815290849020845192830185528054909516825260018501549082015260028401549281019290925260039092015460ff1615159181019190915290565b6040516200021d919081516001600160a01b03168152602080830151908201526040808301519082015260609182015115159181019190915260800190565b620004a2620004f236600462001a50565b62000c07565b6200023062000caa565b620002856200051336600462001a6a565b62000d89565b620002856200052a3660046200198d565b62000db3565b6200053a62000e3b565b6040516200021d919062001c3b565b62000285620012fc565b620002856200056436600462001933565b620014f9565b60006001600160e01b03198216637965db0b60e01b14806200059c57506301ffc9a760e01b6001600160e01b03198316145b92915050565b6040516370a0823160e01b81523360048201526000906001906001600160a01b037f000000000000000000000000000000000000000000000000000000000000000016906370a082319060240160206040518083038186803b1580156200060857600080fd5b505afa1580156200061d573d6000803e3d6000fd5b505050506040513d601f19601f8201168201806040525081019062000643919062001b7a565b1080156200065b57506200065960003362000bdc565b155b156200067a57604051630e4316e360e01b815260040160405180910390fd5b5060035490565b6000546001600160a01b03163314620006b75760405162461bcd60e51b8152600401620006ae9062001d0e565b60405180910390fd5b620006c460008262000d89565b50565b60006200059c818362000bdc565b60008281526001602081905260409091200154620006f38162001598565b620006ff8383620015a4565b505050565b6000546001600160a01b03163314620007315760405162461bcd60e51b8152600401620006ae9062001d0e565b6002546040516370a0823160e01b81523060048201526000916001600160a01b0316906370a082319060240160206040518083038186803b1580156200077657600080fd5b505afa1580156200078b573d6000803e3d6000fd5b505050506040513d601f19601f82011682018060405250810190620007b1919062001b7a565b11620007d057604051630eecc76760e21b815260040160405180910390fd5b6002546040516370a0823160e01b81523060048201526001600160a01b039091169063a9059cbb90839083906370a082319060240160206040518083038186803b1580156200081e57600080fd5b505afa15801562000833573d6000803e3d6000fd5b505050506040513d601f19601f8201168201806040525081019062000859919062001b7a565b6040516001600160e01b031960e085901b1681526001600160a01b0390921660048301526024820152604401602060405180830381600087803b158015620008a057600080fd5b505af1158015620008b5573d6000803e3d6000fd5b505050506040513d601f19601f82011682018060405250810190620008db919062001a30565b620006c45760405163c145dbb160e01b815260040160405180910390fd5b6001600160a01b03811633146200096b5760405162461bcd60e51b815260206004820152602f60248201527f416363657373436f6e74726f6c3a2063616e206f6e6c792072656e6f756e636560448201526e103937b632b9903337b91039b2b63360891b6064820152608401620006ae565b62000977828262001612565b5050565b6200098860003362000bdc565b620009a65760405163f2ccaea160e01b815260040160405180910390fd5b600280546001600160a01b0319166001600160a01b0392909216919091179055565b620009d560003362000bdc565b620009f35760405163f2ccaea160e01b815260040160405180910390fd5b821580620009ff575081155b8062000a09575080155b8062000a1457508351155b1562000a3357604051637d7469fd60e01b815260040160405180910390fd5b6000308585858560405162000a489062001908565b62000a5895949392919062001c8a565b604051809103906000f08015801562000a75573d6000803e3d6000fd5b506003805460018101825560009182527fc2575a0e9e593c00f959f8c92f12db2869c3395a3b0502d05e2516446f71f85b0180546001600160a01b0319166001600160a01b03841617905590915062000acf90826200167c565b7fe5fa4b83d53d02837558550b56d2dc3cfdda3e2e3bfad34cb78b26a543235017858260405162000b0292919062001ce2565b60405180910390a15050505050565b62000b1e60003362000bdc565b62000b3c5760405163f2ccaea160e01b815260040160405180910390fd5b6001600160a01b03919091166000908152600660205260409020805460ff1916911515919091179055565b6000546001600160a01b0316331462000b945760405162461bcd60e51b8152600401620006ae9062001d0e565b620006c4600082620006d5565b6000546001600160a01b0316331462000bce5760405162461bcd60e51b8152600401620006ae9062001d0e565b62000bda600062001688565b565b60009182526001602090815260408084206001600160a01b0393909316845291905290205460ff1690565b604080516080810182526000808252602082018190529181018290526060810191909152600760006004848154811062000c455762000c4562001e17565b60009182526020808320909101546001600160a01b0390811684528382019490945260409283019091208251608081018452815490941684526001810154918401919091526002810154918301919091526003015460ff161515606082015292915050565b6040516370a0823160e01b81523360048201526000906001906001600160a01b037f000000000000000000000000000000000000000000000000000000000000000016906370a082319060240160206040518083038186803b15801562000d1057600080fd5b505afa15801562000d25573d6000803e3d6000fd5b505050506040513d601f19601f8201168201806040525081019062000d4b919062001b7a565b10801562000d63575062000d6160003362000bdc565b155b1562000d8257604051630e4316e360e01b815260040160405180910390fd5b5060045490565b6000828152600160208190526040909120015462000da78162001598565b620006ff838362001612565b62000dc060003362000bdc565b62000dde5760405163f2ccaea160e01b815260040160405180910390fd5b6001600160a01b03918216600090815260076020908152604091829020835181546001600160a01b031916951694909417845582015160018401558101516002830155606001516003909101805460ff1916911515919091179055565b6040516370a0823160e01b81523360048201526060906001906001600160a01b037f000000000000000000000000000000000000000000000000000000000000000016906370a082319060240160206040518083038186803b15801562000ea157600080fd5b505afa15801562000eb6573d6000803e3d6000fd5b505050506040513d601f19601f8201168201806040525081019062000edc919062001b7a565b10801562000ef4575062000ef260003362000bdc565b155b1562000f1357604051630e4316e360e01b815260040160405180910390fd5b60035460009067ffffffffffffffff81111562000f345762000f3462001e2d565b60405190808252806020026020018201604052801562000f5e578160200160208202803683370190505b50905062000f6e60003362000bdc565b1562000fd757600380548060200260200160405190810160405280929190818152602001828054801562000fcc57602002820191906000526020600020905b81546001600160a01b0316815260019091019060200180831162000fad575b505050505091505090565b3360009081526005602052604090205460ff16156200112c573360009081526007602052604081206001015490805b6003548110156200112457826003828154811062001028576200102862001e17565b6000918252602091829020015460408051634da9e84960e01b815290516001600160a01b0390921692634da9e84992600480840193829003018186803b1580156200107257600080fd5b505afa15801562001087573d6000803e3d6000fd5b505050506040513d601f19601f82011682018060405250810190620010ad919062001b7a565b116200111b5760038181548110620010c957620010c962001e17565b9060005260206000200160009054906101000a90046001600160a01b0316848381518110620010fc57620010fc62001e17565b6001600160a01b03909216602092830291909101909101526001909101905b60010162001006565b505050905090565b6040516370a0823160e01b81523360048201526001907f00000000000000000000000000000000000000000000000000000000000000006001600160a01b0316906370a082319060240160206040518083038186803b1580156200118f57600080fd5b505afa158015620011a4573d6000803e3d6000fd5b505050506040513d601f19601f82011682018060405250810190620011ca919062001b7a565b10620012f7576000805b600354811015620012f45760038181548110620011f557620011f562001e17565b6000918252602091829020015460408051634da9e84960e01b815290516001600160a01b0390921692634da9e84992600480840193829003018186803b1580156200123f57600080fd5b505afa15801562001254573d6000803e3d6000fd5b505050506040513d601f19601f820116820180604052508101906200127a919062001b7a565b60011415620012eb576003818154811062001299576200129962001e17565b9060005260206000200160009054906101000a90046001600160a01b0316838381518110620012cc57620012cc62001e17565b6001600160a01b03909216602092830291909101909101526001909101905b600101620011d4565b50505b905090565b6040516370a0823160e01b81523360048201526001907f00000000000000000000000000000000000000000000000000000000000000006001600160a01b0316906370a082319060240160206040518083038186803b1580156200135f57600080fd5b505afa15801562001374573d6000803e3d6000fd5b505050506040513d601f19601f820116820180604052508101906200139a919062001b7a565b108015620013b25750620013b060003362000bdc565b155b15620013d157604051630e4316e360e01b815260040160405180910390fd5b3360009081526005602052604090205460ff16156200140257604051623e263360e61b815260040160405180910390fd5b6004805460018082019092557f8a35acfbc15ff81a39ae7d344fd709f28e8600b4aa8c65c6b64bfe7fe36bd19b018054336001600160a01b031991821681179092556000828152600560209081526040808320805460ff1990811688179091558151608081018352868152808401888152818401868152606083018781528988526007875296859020925183549098166001600160a01b0390981697909717825551978101979097559351600287015591516003909501805490931694151594909417909155519081527f8f444dc6f9b291701e8d4ae03fbb8cb1ce697ddbac3e0969f391589c23523758910160405180910390a1565b6000546001600160a01b03163314620015265760405162461bcd60e51b8152600401620006ae9062001d0e565b6001600160a01b0381166200158d5760405162461bcd60e51b815260206004820152602660248201527f4f776e61626c653a206e6577206f776e657220697320746865207a65726f206160448201526564647265737360d01b6064820152608401620006ae565b620006c48162001688565b620006c48133620016d8565b620015b0828262000bdc565b620009775760008281526001602081815260408084206001600160a01b0386168086529252808420805460ff19169093179092559051339285917f2f8788117e7eff1d82e926ec794901d17c78024a50270940304540a733656f0d9190a45050565b6200161e828262000bdc565b15620009775760008281526001602090815260408083206001600160a01b0385168085529252808320805460ff1916905551339285917ff6391f5c32d9c69d2a47ea670b442974b53935d1edc7fd64eb21e047a839171b9190a45050565b620009778282620015a4565b600080546001600160a01b038381166001600160a01b0319831681178455604051919092169283917f8be0079c531659141344cd1fd0a4f28419497f9722a3daafe3b4186f6b6457e09190a35050565b620016e4828262000bdc565b6200097757620016ff816001600160a01b0316601462001747565b6200170c83602062001747565b6040516020016200171f92919062001bc2565b60408051601f198184030181529082905262461bcd60e51b8252620006ae9160040162001ccd565b606060006200175883600262001d92565b6200176590600262001d77565b67ffffffffffffffff81111562001780576200178062001e2d565b6040519080825280601f01601f191660200182016040528015620017ab576020820181803683370190505b509050600360fc1b81600081518110620017c957620017c962001e17565b60200101906001600160f81b031916908160001a905350600f60fb1b81600181518110620017fb57620017fb62001e17565b60200101906001600160f81b031916908160001a90535060006200182184600262001d92565b6200182e90600162001d77565b90505b6001811115620018b0576f181899199a1a9b1b9c1cb0b131b232b360811b85600f166010811062001866576200186662001e17565b1a60f81b8282815181106200187f576200187f62001e17565b60200101906001600160f81b031916908160001a90535060049490941c93620018a88162001de7565b905062001831565b508315620019015760405162461bcd60e51b815260206004820181905260248201527f537472696e67733a20686578206c656e67746820696e73756666696369656e746044820152606401620006ae565b9392505050565b6128ec8062001e5383390190565b80356001600160a01b03811681146200192e57600080fd5b919050565b6000602082840312156200194657600080fd5b620019018262001916565b600080604083850312156200196557600080fd5b620019708362001916565b91506020830135620019828162001e43565b809150509250929050565b60008082840360a0811215620019a257600080fd5b620019ad8462001916565b92506080601f1982011215620019c257600080fd5b506040516080810181811067ffffffffffffffff82111715620019e957620019e962001e2d565b604052620019fa6020850162001916565b81526040840135602082015260608401356040820152608084013562001a208162001e43565b6060820152919491935090915050565b60006020828403121562001a4357600080fd5b8151620019018162001e43565b60006020828403121562001a6357600080fd5b5035919050565b6000806040838503121562001a7e57600080fd5b8235915062001a906020840162001916565b90509250929050565b60006020828403121562001aac57600080fd5b81356001600160e01b0319811681146200190157600080fd5b6000806000806080858703121562001adc57600080fd5b843567ffffffffffffffff8082111562001af557600080fd5b818701915087601f83011262001b0a57600080fd5b813560208282111562001b215762001b2162001e2d565b62001b35601f8301601f1916820162001d43565b9250818352898183860101111562001b4c57600080fd5b8181850182850137600091830181019190915290989087013597506040870135966060013595509350505050565b60006020828403121562001b8d57600080fd5b5051919050565b6000815180845262001bae81602086016020860162001db4565b601f01601f19169290920160200192915050565b7f416363657373436f6e74726f6c3a206163636f756e742000000000000000000081526000835162001bfc81601785016020880162001db4565b7001034b99036b4b9b9b4b733903937b6329607d1b601791840191820152835162001c2f81602884016020880162001db4565b01602801949350505050565b6020808252825182820181905260009190848201906040850190845b8181101562001c7e5783516001600160a01b03168352928401929184019160010162001c57565b50909695505050505050565b6001600160a01b038616815260a06020820181905260009062001cb09083018762001b94565b604083019590955250606081019290925260809091015292915050565b60208152600062001901602083018462001b94565b60408152600062001cf7604083018562001b94565b905060018060a01b03831660208301529392505050565b6020808252818101527f4f776e61626c653a2063616c6c6572206973206e6f7420746865206f776e6572604082015260600190565b604051601f8201601f1916810167ffffffffffffffff8111828210171562001d6f5762001d6f62001e2d565b604052919050565b6000821982111562001d8d5762001d8d62001e01565b500190565b600081600019048311821515161562001daf5762001daf62001e01565b500290565b60005b8381101562001dd157818101518382015260200162001db7565b8381111562001de1576000848401525b50505050565b60008162001df95762001df962001e01565b506000190190565b634e487b7160e01b600052601160045260246000fd5b634e487b7160e01b600052603260045260246000fd5b634e487b7160e01b600052604160045260246000fd5b8015158114620006c457600080fdfe60c06040523480156200001157600080fd5b50604051620028ec380380620028ec83398101604081905262000034916200038c565b6200003f33620001d7565b8215806200004b575081155b8062000055575080155b806200006057508351155b156200007f57604051637d7469fd60e01b815260040160405180910390fd5b6001600160601b0319606086901b166080528351620000a6906002906020870190620002bf565b50600383905560048290556005819055620000c360003362000227565b620001466000801b866001600160a01b031663f385e62f6040518163ffffffff1660e01b815260040160206040518083038186803b1580156200010557600080fd5b505afa1580156200011a573d6000803e3d6000fd5b505050506040513d601f19601f8201168201806040525081019062000140919062000365565b62000227565b846001600160a01b0316634e8720606040518163ffffffff1660e01b815260040160206040518083038186803b1580156200018057600080fd5b505afa15801562000195573d6000803e3d6000fd5b505050506040513d601f19601f82011682018060405250810190620001bb919062000365565b60601b6001600160601b03191660a05250620005069350505050565b600080546001600160a01b038381166001600160a01b0319831681178455604051919092169283917f8be0079c531659141344cd1fd0a4f28419497f9722a3daafe3b4186f6b6457e09190a35050565b62000233828262000237565b5050565b60008281526001602090815260408083206001600160a01b038516845290915290205460ff16620002335760008281526001602081815260408084206001600160a01b0386168086529252808420805460ff19169093179092559051339285917f2f8788117e7eff1d82e926ec794901d17c78024a50270940304540a733656f0d9190a45050565b828054620002cd906200049a565b90600052602060002090601f016020900481019282620002f157600085556200033c565b82601f106200030c57805160ff19168380011785556200033c565b828001600101855582156200033c579182015b828111156200033c5782518255916020019190600101906200031f565b506200034a9291506200034e565b5090565b5b808211156200034a57600081556001016200034f565b6000602082840312156200037857600080fd5b81516200038581620004ed565b9392505050565b600080600080600060a08688031215620003a557600080fd5b8551620003b281620004ed565b602087810151919650906001600160401b0380821115620003d257600080fd5b818901915089601f830112620003e757600080fd5b815181811115620003fc57620003fc620004d7565b604051601f8201601f19908116603f01168101908382118183101715620004275762000427620004d7565b816040528281528c868487010111156200044057600080fd5b600093505b8284101562000464578484018601518185018701529285019262000445565b82841115620004765760008684830101525b60408c015160608d01516080909d01519b9e919d509b9a9950975050505050505050565b600181811c90821680620004af57607f821691505b60208210811415620004d157634e487b7160e01b600052602260045260246000fd5b50919050565b634e487b7160e01b600052604160045260246000fd5b6001600160a01b03811681146200050357600080fd5b50565b60805160601c60a05160601c6123746200057860003960008181610b2001528181610fb0015281816110ca015281816118bb0152818161195f01526119b3015260008181610736015281816108670152818161090d01528181610d5801528181610ea401526114ce01526123746000f3fe6080604052600436106101bb5760003560e01c80638da5cb5b116100ec578063cdc6c05a1161008a578063e91f760f11610064578063e91f760f14610527578063f2fde38b14610547578063f7723f8114610567578063fa391c641461057c57600080fd5b8063cdc6c05a146104dd578063d0c433d3146104f2578063d547741f1461050757600080fd5b80639710ce0f116100c65780639710ce0f14610473578063a217fddf14610488578063b61241431461049d578063c47f0027146104bd57600080fd5b80638da5cb5b146103cd5780638df8be65146103f557806391d148541461045357600080fd5b806336568abe11610159578063606aead411610133578063606aead4146103585780637048027514610378578063715018a614610398578063838e5e62146103ad57600080fd5b806336568abe1461030e57806342bb32fa1461032e5780634da9e8491461034357600080fd5b80631785f53c116101955780631785f53c1461027957806317d7de7c1461029b578063248a9ca3146102bd5780632f2ff15d146102ee57600080fd5b806301ffc9a7146101c757806311754f11146101fc57806311f244f71461023557600080fd5b366101c257005b600080fd5b3480156101d357600080fd5b506101e76101e2366004611ecb565b610594565b60405190151581526020015b60405180910390f35b34801561020857600080fd5b506101e7610217366004611e4a565b6001600160a01b031660009081526008602052604090205460ff1690565b34801561024157600080fd5b5061026b610250366004611e4a565b6001600160a01b031660009081526009602052604090205490565b6040519081526020016101f3565b34801561028557600080fd5b50610299610294366004611e4a565b6105a5565b005b3480156102a757600080fd5b506102b06105e6565b6040516101f3919061215f565b3480156102c957600080fd5b5061026b6102d8366004611e82565b6000908152600160208190526040909120015490565b3480156102fa57600080fd5b50610299610309366004611e9b565b610678565b34801561031a57600080fd5b50610299610329366004611e9b565b6106a3565b34801561033a57600080fd5b50610299610721565b34801561034f57600080fd5b5060045461026b565b34801561036457600080fd5b50610299610373366004612016565b610bc4565b34801561038457600080fd5b50610299610393366004611e4a565b611160565b3480156103a457600080fd5b50610299611195565b3480156103b957600080fd5b506102996103c8366004611e82565b6111cb565b3480156103d957600080fd5b506000546040516001600160a01b0390911681526020016101f3565b34801561040157600080fd5b50610415610410366004611e82565b61123a565b6040516101f3919081516001600160a01b03168152602080830151908201526040808301519082015260609182015115159181019190915260800190565b34801561045f57600080fd5b506101e761046e366004611e9b565b6112f3565b34801561047f57600080fd5b5060035461026b565b34801561049457600080fd5b5061026b600081565b3480156104a957600080fd5b506102996104b8366004611e82565b61131e565b3480156104c957600080fd5b506102996104d8366004611ef5565b61138d565b3480156104e957600080fd5b5060075461026b565b3480156104fe57600080fd5b5061029961140b565b34801561051357600080fd5b50610299610522366004611e9b565b6115e0565b34801561053357600080fd5b50610299610542366004611e82565b611606565b34801561055357600080fd5b50610299610562366004611e4a565b611675565b34801561057357600080fd5b5060055461026b565b34801561058857600080fd5b5060065460ff166101e7565b600061059f8261170d565b92915050565b6000546001600160a01b031633146105d85760405162461bcd60e51b81526004016105cf90612192565b60405180910390fd5b6105e36000826115e0565b50565b6060600280546105f590612296565b80601f016020809104026020016040519081016040528092919081815260200182805461062190612296565b801561066e5780601f106106435761010080835404028352916020019161066e565b820191906000526020600020905b81548152906001019060200180831161065157829003601f168201915b5050505050905090565b6000828152600160208190526040909120015461069481611742565b61069e838361174c565b505050565b6001600160a01b03811633146107135760405162461bcd60e51b815260206004820152602f60248201527f416363657373436f6e74726f6c3a2063616e206f6e6c792072656e6f756e636560448201526e103937b632b9903337b91039b2b63360891b60648201526084016105cf565b61071d82826117b7565b5050565b6040516315b567c560e11b81523360048201527f00000000000000000000000000000000000000000000000000000000000000006001600160a01b031690632b6acf8a9060240160206040518083038186803b15801561078057600080fd5b505afa158015610794573d6000803e3d6000fd5b505050506040513d601f19601f820116820180604052508101906107b89190611e67565b6107d5576040516389eb8ec360e01b815260040160405180910390fd5b60065460ff16156107f957604051631305bef760e11b815260040160405180910390fd5b3360009081526008602052604090205460ff161561082a57604051637e63c82d60e11b815260040160405180910390fd5b600554600754141561084f57604051633f538f0360e11b815260040160405180910390fd5b60405163bd4fd7b360e01b81523360048201526000907f00000000000000000000000000000000000000000000000000000000000000006001600160a01b03169063bd4fd7b39060240160806040518083038186803b1580156108b157600080fd5b505afa1580156108c5573d6000803e3d6000fd5b505050506040513d601f19601f820116820180604052508101906108e99190611f8a565b805160405163091848d760e11b81526001600160a01b0391821660048201529192507f0000000000000000000000000000000000000000000000000000000000000000169063123091ae9060240160206040518083038186803b15801561094f57600080fd5b505afa158015610963573d6000803e3d6000fd5b505050506040513d601f19601f820116820180604052508101906109879190611e67565b156109a55760405163022a8d2b60e51b815260040160405180910390fd5b600454816020015110156109cc57604051630622fed760e41b815260040160405180910390fd5b60078054600180820183556000928352835160049092027fa66cc928b5edb82af9bd49922954155ab7b0942694bea4ce44661d9a8736c688810180546001600160a01b039094166001600160a01b0319909416939093179092556020808501517fa66cc928b5edb82af9bd49922954155ab7b0942694bea4ce44661d9a8736c6898401556040808601517fa66cc928b5edb82af9bd49922954155ab7b0942694bea4ce44661d9a8736c68a85015560608601517fa66cc928b5edb82af9bd49922954155ab7b0942694bea4ce44661d9a8736c68b909401805494151560ff199586161790553380865260088352948190208054909416909217909255519182527ff5da5eb274636ac306fbf0a82a1f3aeba8366f6053d784396ae36d02a839d0b5910160405180910390a16003546040516323b872dd60e01b815233600482015230602482015260448101919091526000907f00000000000000000000000000000000000000000000000000000000000000006001600160a01b0316906323b872dd90606401602060405180830381600087803b158015610b6c57600080fd5b505af1158015610b80573d6000803e3d6000fd5b505050506040513d601f19601f82011682018060405250810190610ba49190611e67565b90508061071d5760405163c145dbb160e01b815260040160405180910390fd5b610bcf6000336112f3565b610bec5760405163f2ccaea160e01b815260040160405180910390fd5b60065460ff1615610c1057604051631305bef760e11b815260040160405180910390fd5b821580610c205750600754825114155b80610c2e5750600754815114155b15610c4c57604051637d7469fd60e01b815260040160405180910390fd5b6006805460ff191660011790556000805b8351811015610d265760086000858381518110610c7c57610c7c6122fd565b6020908102919091018101516001600160a01b031682528101919091526040016000205460ff16610cc0576040516389eb8ec360e01b815260040160405180910390fd5b6000838281518110610cd457610cd46122fd565b602002602001015190508060096000878581518110610cf557610cf56122fd565b6020908102919091018101516001600160a01b03168252810191909152604001600020559190910190600101610c5d565b506064811115610d4957604051637d7469fd60e01b815260040160405180910390fd5b60005b6007548110156110b1577f00000000000000000000000000000000000000000000000000000000000000006001600160a01b031663123091ae60078381548110610d9857610d986122fd565b600091825260209091206004918202015460405160e084901b6001600160e01b03191681526001600160a01b039091169181019190915260240160206040518083038186803b158015610dea57600080fd5b505afa158015610dfe573d6000803e3d6000fd5b505050506040513d601f19601f82011682018060405250810190610e229190611e67565b6110a957610ea260646009600060078581548110610e4257610e426122fd565b600091825260208083206004909202909101546001600160a01b03168352820192909252604001902054870281610e7b57610e7b6122e7565b0460078381548110610e8f57610e8f6122fd565b906000526020600020906004020161181e565b7f00000000000000000000000000000000000000000000000000000000000000006001600160a01b031663d753a54e60078381548110610ee457610ee46122fd565b6000918252602090912060049091020154600780546001600160a01b039092169185908110610f1557610f156122fd565b90600052602060002090600402016040518363ffffffff1660e01b8152600401610f7a9291906001600160a01b0392831681528154909216602083015260018101546040830152600281015460608301526003015460ff161515608082015260a00190565b600060405180830381600087803b158015610f9457600080fd5b505af1158015610fa8573d6000803e3d6000fd5b5050505060007f00000000000000000000000000000000000000000000000000000000000000006001600160a01b031663a9059cbb60078481548110610ff057610ff06122fd565b600091825260209091206004918202015460035460405160e085901b6001600160e01b03191681526001600160a01b03909216928201929092526024810191909152604401602060405180830381600087803b15801561104f57600080fd5b505af1158015611063573d6000803e3d6000fd5b505050506040513d601f19601f820116820180604052508101906110879190611e67565b9050806110a75760405163c145dbb160e01b815260040160405180910390fd5b505b600101610d4c565b506040516370a0823160e01b81523060048201526000907f00000000000000000000000000000000000000000000000000000000000000006001600160a01b0316906370a082319060240160206040518083038186803b15801561111457600080fd5b505afa158015611128573d6000803e3d6000fd5b505050506040513d601f19601f8201168201806040525081019061114c9190611ffd565b111561115a5761115a61187b565b50505050565b6000546001600160a01b0316331461118a5760405162461bcd60e51b81526004016105cf90612192565b6105e3600082610678565b6000546001600160a01b031633146111bf5760405162461bcd60e51b81526004016105cf90612192565b6111c96000611ad3565b565b6111d66000336112f3565b6111f35760405163f2ccaea160e01b815260040160405180910390fd5b600754156112145760405163175208ef60e21b815260040160405180910390fd5b6000811161123557604051637d7469fd60e01b815260040160405180910390fd5b600355565b6040805160808101825260008082526020820181905291810182905260608101919091526007548210158061126d575060005b1561128b57604051637d7469fd60e01b815260040160405180910390fd5b6007828154811061129e5761129e6122fd565b600091825260209182902060408051608081018252600490930290910180546001600160a01b0316835260018101549383019390935260028301549082015260039091015460ff161515606082015292915050565b60009182526001602090815260408084206001600160a01b0393909316845291905290205460ff1690565b6113296000336112f3565b6113465760405163f2ccaea160e01b815260040160405180910390fd5b600754156113675760405163175208ef60e21b815260040160405180910390fd5b6000811161138857604051637d7469fd60e01b815260040160405180910390fd5b600455565b6113986000336112f3565b6113b55760405163f2ccaea160e01b815260040160405180910390fd5b600754156113d65760405163175208ef60e21b815260040160405180910390fd5b60008151116113f857604051637d7469fd60e01b815260040160405180910390fd5b805161071d906002906020840190611d2a565b6114166000336112f3565b6114335760405163f2ccaea160e01b815260040160405180910390fd5b60065460ff1661145657604051634342f06d60e01b815260040160405180910390fd5b6000471161147757604051633868d38360e01b815260040160405180910390fd5b4760005b60075481101561071d5760006007828154811061149a5761149a6122fd565b600091825260209091206004918202015460405163091848d760e11b81526001600160a01b039182169281018390529192507f0000000000000000000000000000000000000000000000000000000000000000169063123091ae9060240160206040518083038186803b15801561151057600080fd5b505afa158015611524573d6000803e3d6000fd5b505050506040513d601f19601f820116820180604052508101906115489190611e67565b6115d7576001600160a01b03811660008181526009602052604081205490919060649086020460405160006040518083038185875af1925050503d80600081146115ae576040519150601f19603f3d011682016040523d82523d6000602084013e6115b3565b606091505b50509050806115d55760405163169940fd60e21b815260040160405180910390fd5b505b5060010161147b565b600082815260016020819052604090912001546115fc81611742565b61069e83836117b7565b6116116000336112f3565b61162e5760405163f2ccaea160e01b815260040160405180910390fd5b6007541561164f5760405163175208ef60e21b815260040160405180910390fd5b6000811161167057604051637d7469fd60e01b815260040160405180910390fd5b600555565b6000546001600160a01b0316331461169f5760405162461bcd60e51b81526004016105cf90612192565b6001600160a01b0381166117045760405162461bcd60e51b815260206004820152602660248201527f4f776e61626c653a206e6577206f776e657220697320746865207a65726f206160448201526564647265737360d01b60648201526084016105cf565b6105e381611ad3565b60006001600160e01b03198216637965db0b60e01b148061059f57506301ffc9a760e01b6001600160e01b031983161461059f565b6105e38133611b23565b61175682826112f3565b61071d5760008281526001602081815260408084206001600160a01b0386168086529252808420805460ff19169093179092559051339285917f2f8788117e7eff1d82e926ec794901d17c78024a50270940304540a733656f0d9190a45050565b6117c182826112f3565b1561071d5760008281526001602090815260408083206001600160a01b0385168085529252808320805460ff1916905551339285917ff6391f5c32d9c69d2a47ea670b442974b53935d1edc7fd64eb21e047a839171b9190a45050565b6118296000336112f3565b6118465760405163f2ccaea160e01b815260040160405180910390fd5b600281015482015b8160010154606402811061187257600180830180549182019055606402900361184e565b60029091015550565b6118866000336112f3565b6118a35760405163f2ccaea160e01b815260040160405180910390fd5b6040516370a0823160e01b81523060048201526000907f00000000000000000000000000000000000000000000000000000000000000006001600160a01b0316906370a082319060240160206040518083038186803b15801561190557600080fd5b505afa158015611919573d6000803e3d6000fd5b505050506040513d601f19601f8201168201806040525081019061193d9190611ffd565b1161195b57604051630eecc76760e21b815260040160405180910390fd5b60007f00000000000000000000000000000000000000000000000000000000000000006001600160a01b031663a9059cbb61199e6000546001600160a01b031690565b6040516370a0823160e01b81523060048201527f00000000000000000000000000000000000000000000000000000000000000006001600160a01b0316906370a082319060240160206040518083038186803b1580156119fd57600080fd5b505afa158015611a11573d6000803e3d6000fd5b505050506040513d601f19601f82011682018060405250810190611a359190611ffd565b6040516001600160e01b031960e085901b1681526001600160a01b0390921660048301526024820152604401602060405180830381600087803b158015611a7b57600080fd5b505af1158015611a8f573d6000803e3d6000fd5b505050506040513d601f19601f82011682018060405250810190611ab39190611e67565b9050806105e35760405163c145dbb160e01b815260040160405180910390fd5b600080546001600160a01b038381166001600160a01b0319831681178455604051919092169283917f8be0079c531659141344cd1fd0a4f28419497f9722a3daafe3b4186f6b6457e09190a35050565b611b2d82826112f3565b61071d57611b45816001600160a01b03166014611b87565b611b50836020611b87565b604051602001611b619291906120ea565b60408051601f198184030181529082905262461bcd60e51b82526105cf9160040161215f565b60606000611b96836002612234565b611ba190600261221c565b67ffffffffffffffff811115611bb957611bb9612313565b6040519080825280601f01601f191660200182016040528015611be3576020820181803683370190505b509050600360fc1b81600081518110611bfe57611bfe6122fd565b60200101906001600160f81b031916908160001a905350600f60fb1b81600181518110611c2d57611c2d6122fd565b60200101906001600160f81b031916908160001a9053506000611c51846002612234565b611c5c90600161221c565b90505b6001811115611cd4576f181899199a1a9b1b9c1cb0b131b232b360811b85600f1660108110611c9057611c906122fd565b1a60f81b828281518110611ca657611ca66122fd565b60200101906001600160f81b031916908160001a90535060049490941c93611ccd8161227f565b9050611c5f565b508315611d235760405162461bcd60e51b815260206004820181905260248201527f537472696e67733a20686578206c656e67746820696e73756666696369656e7460448201526064016105cf565b9392505050565b828054611d3690612296565b90600052602060002090601f016020900481019282611d585760008555611d9e565b82601f10611d7157805160ff1916838001178555611d9e565b82800160010185558215611d9e579182015b82811115611d9e578251825591602001919060010190611d83565b50611daa929150611dae565b5090565b5b80821115611daa5760008155600101611daf565b600082601f830112611dd457600080fd5b81356020611de9611de4836121f8565b6121c7565b80838252828201915082860187848660051b8901011115611e0957600080fd5b60005b85811015611e2857813584529284019290840190600101611e0c565b5090979650505050505050565b80518015158114611e4557600080fd5b919050565b600060208284031215611e5c57600080fd5b8135611d2381612329565b600060208284031215611e7957600080fd5b611d2382611e35565b600060208284031215611e9457600080fd5b5035919050565b60008060408385031215611eae57600080fd5b823591506020830135611ec081612329565b809150509250929050565b600060208284031215611edd57600080fd5b81356001600160e01b031981168114611d2357600080fd5b60006020808385031215611f0857600080fd5b823567ffffffffffffffff80821115611f2057600080fd5b818501915085601f830112611f3457600080fd5b813581811115611f4657611f46612313565b611f58601f8201601f191685016121c7565b91508082528684828501011115611f6e57600080fd5b8084840185840137600090820190930192909252509392505050565b600060808284031215611f9c57600080fd5b6040516080810181811067ffffffffffffffff82111715611fbf57611fbf612313565b6040528251611fcd81612329565b808252506020830151602082015260408301516040820152611ff160608401611e35565b60608201529392505050565b60006020828403121561200f57600080fd5b5051919050565b60008060006060848603121561202b57600080fd5b8335925060208085013567ffffffffffffffff8082111561204b57600080fd5b818701915087601f83011261205f57600080fd5b813561206d611de4826121f8565b8082825285820191508585018b878560051b880101111561208d57600080fd5b600095505b838610156120b95780356120a581612329565b835260019590950194918601918601612092565b509650505060408701359250808311156120d257600080fd5b50506120e086828701611dc3565b9150509250925092565b7f416363657373436f6e74726f6c3a206163636f756e7420000000000000000000815260008351612122816017850160208801612253565b7001034b99036b4b9b9b4b733903937b6329607d1b6017918401918201528351612153816028840160208801612253565b01602801949350505050565b602081526000825180602084015261217e816040850160208701612253565b601f01601f19169190910160400192915050565b6020808252818101527f4f776e61626c653a2063616c6c6572206973206e6f7420746865206f776e6572604082015260600190565b604051601f8201601f1916810167ffffffffffffffff811182821017156121f0576121f0612313565b604052919050565b600067ffffffffffffffff82111561221257612212612313565b5060051b60200190565b6000821982111561222f5761222f6122d1565b500190565b600081600019048311821515161561224e5761224e6122d1565b500290565b60005b8381101561226e578181015183820152602001612256565b8381111561115a5750506000910152565b60008161228e5761228e6122d1565b506000190190565b600181811c908216806122aa57607f821691505b602082108114156122cb57634e487b7160e01b600052602260045260246000fd5b50919050565b634e487b7160e01b600052601160045260246000fd5b634e487b7160e01b600052601260045260246000fd5b634e487b7160e01b600052603260045260246000fd5b634e487b7160e01b600052604160045260246000fd5b6001600160a01b03811681146105e357600080fdfea2646970667358221220edfa9970565028f128124bbd16c94c8fe5b15e7d251b1317ad536d046c0a87e864736f6c63430008070033a2646970667358221220fd6ae03c0ce96873f52714dceccafc3ad88633614b81a31bee51bea8f5bfcf8464736f6c63430008070033",
  "devdoc": {
    "kind": "dev",
    "methods": {
      "addAdmin(address)": {
        "details": "Only callable by the Admin"
      },
      "createProject(string,uint256,uint256,uint256)": {
        "details": "Only callable by Admins"
      },
      "getContributorsNumber()": {
        "details": "Only callable by Holders"
      },
      "getProjects()": {
        "details": "Only callable by Holders"
      },
      "getProjectsNumber()": {
        "details": "Only callable by Holders"
      },
      "getRoleAdmin(bytes32)": {
        "details": "Returns the admin role that controls `role`. See {grantRole} and {revokeRole}. To change a role's admin, use {_setRoleAdmin}."
      },
      "grantRole(bytes32,address)": {
        "details": "Grants `role` to `account`. If `account` had not been already granted `role`, emits a {RoleGranted} event. Requirements: - the caller must have ``role``'s admin role."
      },
      "hasRole(bytes32,address)": {
        "details": "Returns `true` if `account` has been granted `role`."
      },
      "isContributorBanned(address)": {
        "details": "Only callable by Admins."
      },
      "owner()": {
        "details": "Returns the address of the current owner."
      },
      "registerContributor()": {
        "details": "Only callable by Holders who are not already Contributors"
      },
      "removeAdmin(address)": {
        "details": "Only callable by the Admin"
      },
      "renounceOwnership()": {
        "details": "Leaves the contract without owner. It will not be possible to call `onlyOwner` functions anymore. Can only be called by the current owner. NOTE: Renouncing ownership will leave the contract without an owner, thereby removing any functionality that is only available to the owner."
      },
      "renounceRole(bytes32,address)": {
        "details": "Revokes `role` from the calling account. Roles are often managed via {grantRole} and {revokeRole}: this function's purpose is to provide a mechanism for accounts to lose their privileges if they are compromised (such as when a trusted device is misplaced). If the calling account had been revoked `role`, emits a {RoleRevoked} event. Requirements: - the caller must be `account`."
      },
      "revokeRole(bytes32,address)": {
        "details": "Revokes `role` from `account`. If `account` had been granted `role`, emits a {RoleRevoked} event. Requirements: - the caller must have ``role``'s admin role."
      },
      "setAccountToContributorData(address,(address,uint256,uint256,bool))": {
        "details": "Only callable by Admins."
      },
      "setContributorStateToBanList(address,bool)": {
        "details": "Only callable by Admins."
      },
      "setERC20Address(address)": {
        "details": "Only callable by the Admin"
      },
      "supportsInterface(bytes4)": {
        "details": "See {IERC165-supportsInterface}."
      },
      "transferOwnership(address)": {
        "details": "Transfers ownership of the contract to a new account (`newOwner`). Can only be called by the current owner."
      },
      "withdrawAllFunds(address)": {
        "details": "Only owner is able to call this function"
      }
    },
    "version": 1
  },
  "userdoc": {
    "events": {
      "newContributorRegistered(address)": {
        "notice": "Events"
      }
    },
    "kind": "user",
    "methods": {
      "addAdmin(address)": {
        "notice": "Set new Admin"
      },
      "createProject(string,uint256,uint256,uint256)": {
        "notice": "Create Project"
      },
      "getAccountToContributorData(address)": {
        "notice": "Get Contributor Data by address"
      },
      "getContributor(uint256)": {
        "notice": "Get Contributor by index"
      },
      "getContributorsNumber()": {
        "notice": "Get total number of contributors"
      },
      "getERC20Interface()": {
        "notice": "Returns ERC20 address"
      },
      "getMRCInterface()": {
        "notice": "Returns MRC address"
      },
      "getProjects()": {
        "notice": "Get projects depending on Level"
      },
      "getProjectsNumber()": {
        "notice": "Get total number of projects"
      },
      "getRacksPMOwner()": {
        "notice": "Returns Contract Owner"
      },
      "isAdmin(address)": {
        "notice": "Returns whether an address is admin or not"
      },
      "isContributorBanned(address)": {
        "notice": "Check whether an account is banned or not"
      },
      "isWalletContributor(address)": {
        "notice": "Check whether an address is Contributor or not"
      },
      "registerContributor()": {
        "notice": "Add Contributor"
      },
      "removeAdmin(address)": {
        "notice": "Remove an account from the user role"
      },
      "setAccountToContributorData(address,(address,uint256,uint256,bool))": {
        "notice": "Set Contributor Data by address"
      },
      "setContributorStateToBanList(address,bool)": {
        "notice": "Set a ban state for a Contributor"
      },
      "setERC20Address(address)": {
        "notice": "Set new ERC20 Token"
      },
      "withdrawAllFunds(address)": {
        "notice": "Used to withdraw All funds"
      }
    },
    "version": 1
  },
  "storageLayout": {
    "storage": [
      {
        "astId": 400,
        "contract": "contracts/RacksProjectManager.sol:RacksProjectManager",
        "label": "_owner",
        "offset": 0,
        "slot": "0",
        "type": "t_address"
      },
      {
        "astId": 24,
        "contract": "contracts/RacksProjectManager.sol:RacksProjectManager",
        "label": "_roles",
        "offset": 0,
        "slot": "1",
        "type": "t_mapping(t_bytes32,t_struct(RoleData)19_storage)"
      },
      {
        "astId": 4151,
        "contract": "contracts/RacksProjectManager.sol:RacksProjectManager",
        "label": "erc20",
        "offset": 0,
        "slot": "2",
        "type": "t_contract(IERC20)1161"
      },
      {
        "astId": 4159,
        "contract": "contracts/RacksProjectManager.sol:RacksProjectManager",
        "label": "projects",
        "offset": 0,
        "slot": "3",
        "type": "t_array(t_contract(Project)4128)dyn_storage"
      },
      {
        "astId": 4162,
        "contract": "contracts/RacksProjectManager.sol:RacksProjectManager",
        "label": "contributors",
        "offset": 0,
        "slot": "4",
        "type": "t_array(t_address)dyn_storage"
      },
      {
        "astId": 4166,
        "contract": "contracts/RacksProjectManager.sol:RacksProjectManager",
        "label": "walletIsContributor",
        "offset": 0,
        "slot": "5",
        "type": "t_mapping(t_address,t_bool)"
      },
      {
        "astId": 4170,
        "contract": "contracts/RacksProjectManager.sol:RacksProjectManager",
        "label": "accountIsBanned",
        "offset": 0,
        "slot": "6",
        "type": "t_mapping(t_address,t_bool)"
      },
      {
        "astId": 4175,
        "contract": "contracts/RacksProjectManager.sol:RacksProjectManager",
        "label": "accountToContributorData",
        "offset": 0,
        "slot": "7",
        "type": "t_mapping(t_address,t_struct(Contributor)3149_storage)"
      }
    ],
    "types": {
      "t_address": {
        "encoding": "inplace",
        "label": "address",
        "numberOfBytes": "20"
      },
      "t_array(t_address)dyn_storage": {
        "base": "t_address",
        "encoding": "dynamic_array",
        "label": "address[]",
        "numberOfBytes": "32"
      },
      "t_array(t_contract(Project)4128)dyn_storage": {
        "base": "t_contract(Project)4128",
        "encoding": "dynamic_array",
        "label": "contract Project[]",
        "numberOfBytes": "32"
      },
      "t_bool": {
        "encoding": "inplace",
        "label": "bool",
        "numberOfBytes": "1"
      },
      "t_bytes32": {
        "encoding": "inplace",
        "label": "bytes32",
        "numberOfBytes": "32"
      },
      "t_contract(IERC20)1161": {
        "encoding": "inplace",
        "label": "contract IERC20",
        "numberOfBytes": "20"
      },
      "t_contract(Project)4128": {
        "encoding": "inplace",
        "label": "contract Project",
        "numberOfBytes": "20"
      },
      "t_mapping(t_address,t_bool)": {
        "encoding": "mapping",
        "key": "t_address",
        "label": "mapping(address => bool)",
        "numberOfBytes": "32",
        "value": "t_bool"
      },
      "t_mapping(t_address,t_struct(Contributor)3149_storage)": {
        "encoding": "mapping",
        "key": "t_address",
        "label": "mapping(address => struct Contributor)",
        "numberOfBytes": "32",
        "value": "t_struct(Contributor)3149_storage"
      },
      "t_mapping(t_bytes32,t_struct(RoleData)19_storage)": {
        "encoding": "mapping",
        "key": "t_bytes32",
        "label": "mapping(bytes32 => struct AccessControl.RoleData)",
        "numberOfBytes": "32",
        "value": "t_struct(RoleData)19_storage"
      },
      "t_struct(Contributor)3149_storage": {
        "encoding": "inplace",
        "label": "struct Contributor",
        "members": [
          {
            "astId": 3142,
            "contract": "contracts/RacksProjectManager.sol:RacksProjectManager",
            "label": "wallet",
            "offset": 0,
            "slot": "0",
            "type": "t_address"
          },
          {
            "astId": 3144,
            "contract": "contracts/RacksProjectManager.sol:RacksProjectManager",
            "label": "reputationLevel",
            "offset": 0,
            "slot": "1",
            "type": "t_uint256"
          },
          {
            "astId": 3146,
            "contract": "contracts/RacksProjectManager.sol:RacksProjectManager",
            "label": "reputationPoints",
            "offset": 0,
            "slot": "2",
            "type": "t_uint256"
          },
          {
            "astId": 3148,
            "contract": "contracts/RacksProjectManager.sol:RacksProjectManager",
            "label": "banned",
            "offset": 0,
            "slot": "3",
            "type": "t_bool"
          }
        ],
        "numberOfBytes": "128"
      },
      "t_struct(RoleData)19_storage": {
        "encoding": "inplace",
        "label": "struct AccessControl.RoleData",
        "members": [
          {
            "astId": 16,
            "contract": "contracts/RacksProjectManager.sol:RacksProjectManager",
            "label": "members",
            "offset": 0,
            "slot": "0",
            "type": "t_mapping(t_address,t_bool)"
          },
          {
            "astId": 18,
            "contract": "contracts/RacksProjectManager.sol:RacksProjectManager",
            "label": "adminRole",
            "offset": 0,
            "slot": "1",
            "type": "t_bytes32"
          }
        ],
        "numberOfBytes": "64"
      },
      "t_uint256": {
        "encoding": "inplace",
        "label": "uint256",
        "numberOfBytes": "32"
      }
    }
  }
}