{
  "address": "0xb07E94EFf32698259878C8f86826D40AB82f2cf5",
  "abi": [
    {
      "inputs": [
        {
          "internalType": "contract IMRC",
          "name": "mrc_",
          "type": "address"
        },
        {
          "internalType": "contract IERC20",
          "name": "erc20_",
          "type": "address"
        }
      ],
      "stateMutability": "nonpayable",
      "type": "constructor"
    },
    {
      "inputs": [],
      "name": "adminErr",
      "type": "error"
    },
    {
      "inputs": [],
      "name": "contributorAlreadyExistsErr",
      "type": "error"
    },
    {
      "inputs": [],
      "name": "erc20TransferFailed",
      "type": "error"
    },
    {
      "inputs": [],
      "name": "holderErr",
      "type": "error"
    },
    {
      "inputs": [],
      "name": "noFundsWithdrawErr",
      "type": "error"
    },
    {
      "inputs": [],
      "name": "projectInvalidParameterErr",
      "type": "error"
    },
    {
      "anonymous": false,
      "inputs": [
        {
          "indexed": true,
          "internalType": "address",
          "name": "previousOwner",
          "type": "address"
        },
        {
          "indexed": true,
          "internalType": "address",
          "name": "newOwner",
          "type": "address"
        }
      ],
      "name": "OwnershipTransferred",
      "type": "event"
    },
    {
      "anonymous": false,
      "inputs": [
        {
          "indexed": true,
          "internalType": "bytes32",
          "name": "role",
          "type": "bytes32"
        },
        {
          "indexed": true,
          "internalType": "bytes32",
          "name": "previousAdminRole",
          "type": "bytes32"
        },
        {
          "indexed": true,
          "internalType": "bytes32",
          "name": "newAdminRole",
          "type": "bytes32"
        }
      ],
      "name": "RoleAdminChanged",
      "type": "event"
    },
    {
      "anonymous": false,
      "inputs": [
        {
          "indexed": true,
          "internalType": "bytes32",
          "name": "role",
          "type": "bytes32"
        },
        {
          "indexed": true,
          "internalType": "address",
          "name": "account",
          "type": "address"
        },
        {
          "indexed": true,
          "internalType": "address",
          "name": "sender",
          "type": "address"
        }
      ],
      "name": "RoleGranted",
      "type": "event"
    },
    {
      "anonymous": false,
      "inputs": [
        {
          "indexed": true,
          "internalType": "bytes32",
          "name": "role",
          "type": "bytes32"
        },
        {
          "indexed": true,
          "internalType": "address",
          "name": "account",
          "type": "address"
        },
        {
          "indexed": true,
          "internalType": "address",
          "name": "sender",
          "type": "address"
        }
      ],
      "name": "RoleRevoked",
      "type": "event"
    },
    {
      "anonymous": false,
      "inputs": [
        {
          "indexed": false,
          "internalType": "address",
          "name": "newContributor",
          "type": "address"
        }
      ],
      "name": "newContributorRegistered",
      "type": "event"
    },
    {
      "anonymous": false,
      "inputs": [
        {
          "indexed": false,
          "internalType": "address",
          "name": "newProjectAddress",
          "type": "address"
        }
      ],
      "name": "newProjectCreated",
      "type": "event"
    },
    {
      "inputs": [],
      "name": "DEFAULT_ADMIN_ROLE",
      "outputs": [
        {
          "internalType": "bytes32",
          "name": "",
          "type": "bytes32"
        }
      ],
      "stateMutability": "view",
      "type": "function"
    },
    {
      "inputs": [
        {
          "internalType": "address",
          "name": "_newAdmin",
          "type": "address"
        }
      ],
      "name": "addAdmin",
      "outputs": [],
      "stateMutability": "nonpayable",
      "type": "function"
    },
    {
      "inputs": [
        {
          "internalType": "uint256",
          "name": "colateralCost_",
          "type": "uint256"
        },
        {
          "internalType": "uint256",
          "name": "reputationLevel_",
          "type": "uint256"
        },
        {
          "internalType": "uint256",
          "name": "maxContributorsNumber_",
          "type": "uint256"
        }
      ],
      "name": "createProject",
      "outputs": [],
      "stateMutability": "nonpayable",
      "type": "function"
    },
    {
      "inputs": [
        {
          "internalType": "address",
          "name": "account",
          "type": "address"
        }
      ],
      "name": "getAccountToContributorData",
      "outputs": [
        {
          "components": [
            {
              "internalType": "address",
              "name": "wallet",
              "type": "address"
            },
            {
              "internalType": "uint256",
              "name": "reputationLevel",
              "type": "uint256"
            },
            {
              "internalType": "uint256",
              "name": "reputationPoints",
              "type": "uint256"
            },
            {
              "internalType": "bool",
              "name": "banned",
              "type": "bool"
            }
          ],
          "internalType": "struct Contributor",
          "name": "",
          "type": "tuple"
        }
      ],
      "stateMutability": "view",
      "type": "function"
    },
    {
      "inputs": [
        {
          "internalType": "uint256",
          "name": "index",
          "type": "uint256"
        }
      ],
      "name": "getContributor",
      "outputs": [
        {
          "components": [
            {
              "internalType": "address",
              "name": "wallet",
              "type": "address"
            },
            {
              "internalType": "uint256",
              "name": "reputationLevel",
              "type": "uint256"
            },
            {
              "internalType": "uint256",
              "name": "reputationPoints",
              "type": "uint256"
            },
            {
              "internalType": "bool",
              "name": "banned",
              "type": "bool"
            }
          ],
          "internalType": "struct Contributor",
          "name": "",
          "type": "tuple"
        }
      ],
      "stateMutability": "view",
      "type": "function"
    },
    {
      "inputs": [],
      "name": "getContributorsNumber",
      "outputs": [
        {
          "internalType": "uint256",
          "name": "",
          "type": "uint256"
        }
      ],
      "stateMutability": "view",
      "type": "function"
    },
    {
      "inputs": [],
      "name": "getERC20Interface",
      "outputs": [
        {
          "internalType": "contract IERC20",
          "name": "",
          "type": "address"
        }
      ],
      "stateMutability": "view",
      "type": "function"
    },
    {
      "inputs": [],
      "name": "getMRCInterface",
      "outputs": [
        {
          "internalType": "contract IMRC",
          "name": "",
          "type": "address"
        }
      ],
      "stateMutability": "view",
      "type": "function"
    },
    {
      "inputs": [],
      "name": "getProjects",
      "outputs": [
        {
          "internalType": "contract Project[]",
          "name": "",
          "type": "address[]"
        }
      ],
      "stateMutability": "view",
      "type": "function"
    },
    {
      "inputs": [],
      "name": "getProjectsNumber",
      "outputs": [
        {
          "internalType": "uint256",
          "name": "",
          "type": "uint256"
        }
      ],
      "stateMutability": "view",
      "type": "function"
    },
    {
      "inputs": [],
      "name": "getRacksPMOwner",
      "outputs": [
        {
          "internalType": "address",
          "name": "",
          "type": "address"
        }
      ],
      "stateMutability": "view",
      "type": "function"
    },
    {
      "inputs": [
        {
          "internalType": "bytes32",
          "name": "role",
          "type": "bytes32"
        }
      ],
      "name": "getRoleAdmin",
      "outputs": [
        {
          "internalType": "bytes32",
          "name": "",
          "type": "bytes32"
        }
      ],
      "stateMutability": "view",
      "type": "function"
    },
    {
      "inputs": [
        {
          "internalType": "bytes32",
          "name": "role",
          "type": "bytes32"
        },
        {
          "internalType": "address",
          "name": "account",
          "type": "address"
        }
      ],
      "name": "grantRole",
      "outputs": [],
      "stateMutability": "nonpayable",
      "type": "function"
    },
    {
      "inputs": [
        {
          "internalType": "bytes32",
          "name": "role",
          "type": "bytes32"
        },
        {
          "internalType": "address",
          "name": "account",
          "type": "address"
        }
      ],
      "name": "hasRole",
      "outputs": [
        {
          "internalType": "bool",
          "name": "",
          "type": "bool"
        }
      ],
      "stateMutability": "view",
      "type": "function"
    },
    {
      "inputs": [
        {
          "internalType": "address",
          "name": "account",
          "type": "address"
        }
      ],
      "name": "isAdmin",
      "outputs": [
        {
          "internalType": "bool",
          "name": "",
          "type": "bool"
        }
      ],
      "stateMutability": "view",
      "type": "function"
    },
    {
      "inputs": [
        {
          "internalType": "address",
          "name": "account",
          "type": "address"
        }
      ],
      "name": "isContributorBanned",
      "outputs": [
        {
          "internalType": "bool",
          "name": "",
          "type": "bool"
        }
      ],
      "stateMutability": "view",
      "type": "function"
    },
    {
      "inputs": [
        {
          "internalType": "address",
          "name": "account",
          "type": "address"
        }
      ],
      "name": "isWalletContributor",
      "outputs": [
        {
          "internalType": "bool",
          "name": "",
          "type": "bool"
        }
      ],
      "stateMutability": "view",
      "type": "function"
    },
    {
      "inputs": [],
      "name": "owner",
      "outputs": [
        {
          "internalType": "address",
          "name": "",
          "type": "address"
        }
      ],
      "stateMutability": "view",
      "type": "function"
    },
    {
      "inputs": [],
      "name": "registerContributor",
      "outputs": [],
      "stateMutability": "nonpayable",
      "type": "function"
    },
    {
      "inputs": [
        {
          "internalType": "address",
          "name": "account",
          "type": "address"
        }
      ],
      "name": "removeAdmin",
      "outputs": [],
      "stateMutability": "nonpayable",
      "type": "function"
    },
    {
      "inputs": [],
      "name": "renounceOwnership",
      "outputs": [],
      "stateMutability": "nonpayable",
      "type": "function"
    },
    {
      "inputs": [
        {
          "internalType": "bytes32",
          "name": "role",
          "type": "bytes32"
        },
        {
          "internalType": "address",
          "name": "account",
          "type": "address"
        }
      ],
      "name": "renounceRole",
      "outputs": [],
      "stateMutability": "nonpayable",
      "type": "function"
    },
    {
      "inputs": [
        {
          "internalType": "bytes32",
          "name": "role",
          "type": "bytes32"
        },
        {
          "internalType": "address",
          "name": "account",
          "type": "address"
        }
      ],
      "name": "revokeRole",
      "outputs": [],
      "stateMutability": "nonpayable",
      "type": "function"
    },
    {
      "inputs": [
        {
          "internalType": "address",
          "name": "account",
          "type": "address"
        },
        {
          "components": [
            {
              "internalType": "address",
              "name": "wallet",
              "type": "address"
            },
            {
              "internalType": "uint256",
              "name": "reputationLevel",
              "type": "uint256"
            },
            {
              "internalType": "uint256",
              "name": "reputationPoints",
              "type": "uint256"
            },
            {
              "internalType": "bool",
              "name": "banned",
              "type": "bool"
            }
          ],
          "internalType": "struct Contributor",
          "name": "newData",
          "type": "tuple"
        }
      ],
      "name": "setAccountToContributorData",
      "outputs": [],
      "stateMutability": "nonpayable",
      "type": "function"
    },
    {
      "inputs": [
        {
          "internalType": "address",
          "name": "account",
          "type": "address"
        },
        {
          "internalType": "bool",
          "name": "state",
          "type": "bool"
        }
      ],
      "name": "setContributorStateToBanList",
      "outputs": [],
      "stateMutability": "nonpayable",
      "type": "function"
    },
    {
      "inputs": [
        {
          "internalType": "address",
          "name": "erc20_",
          "type": "address"
        }
      ],
      "name": "setERC20Address",
      "outputs": [],
      "stateMutability": "nonpayable",
      "type": "function"
    },
    {
      "inputs": [
        {
          "internalType": "bytes4",
          "name": "interfaceId",
          "type": "bytes4"
        }
      ],
      "name": "supportsInterface",
      "outputs": [
        {
          "internalType": "bool",
          "name": "",
          "type": "bool"
        }
      ],
      "stateMutability": "view",
      "type": "function"
    },
    {
      "inputs": [
        {
          "internalType": "address",
          "name": "newOwner",
          "type": "address"
        }
      ],
      "name": "transferOwnership",
      "outputs": [],
      "stateMutability": "nonpayable",
      "type": "function"
    },
    {
      "inputs": [
        {
          "internalType": "address",
          "name": "wallet",
          "type": "address"
        }
      ],
      "name": "withdrawAllFunds",
      "outputs": [],
      "stateMutability": "nonpayable",
      "type": "function"
    }
  ],
  "transactionHash": "0x35f521014d7fe135bb91319f4cd8081090279b53b4d03da95449b0d4670b575c",
  "args": [
    "0xc0f6567a4a653d315d829f6d2b3535dce101cd72",
    "0x4e777b826fbD60453CE9701dE5328a45E3fF1d44"
  ],
  "numDeployments": 3,
  "solcInputHash": "a338652804dfc529748fbb4826f39df6",
  "bytecode": "0x60a06040523480156200001157600080fd5b506040516200443a3803806200443a833981016040819052620000349162000169565b6200003f3362000081565b600280546001600160a01b0319166001600160a01b038316179055606082901b6001600160601b03191660805262000079600033620000d1565b5050620001c1565b600080546001600160a01b038381166001600160a01b0319831681178455604051919092169283917f8be0079c531659141344cd1fd0a4f28419497f9722a3daafe3b4186f6b6457e09190a35050565b620000dd8282620000e1565b5050565b60008281526001602090815260408083206001600160a01b038516845290915290205460ff16620000dd5760008281526001602081815260408084206001600160a01b0386168086529252808420805460ff19169093179092559051339285917f2f8788117e7eff1d82e926ec794901d17c78024a50270940304540a733656f0d9190a45050565b600080604083850312156200017d57600080fd5b82516200018a81620001a8565b60208401519092506200019d81620001a8565b809150509250929050565b6001600160a01b0381168114620001be57600080fd5b50565b60805160601c61423762000203600039600081816103f90152818161061c01528181610d1901528181610e220152818161110901526112d901526142376000f3fe60806040523480156200001157600080fd5b5060043610620001f55760003560e01c8063704802751162000119578063c6f5b0e011620000af578063dcc60128116200007a578063dcc601281462000587578063de05d1d814620005a0578063f2fde38b14620005aa578063f385e62f14620003c557600080fd5b8063c6f5b0e014620004e1578063cdc6c05a14620004f8578063d547741f1462000502578063d753a54e146200051957600080fd5b806391d1485411620000f057806391d1485414620003d7578063a217fddf14620003ee578063ad961f1314620003f7578063bd4fd7b3146200041e57600080fd5b80637048027514620003a4578063715018a614620003bb5780638da5cb5b14620003c557600080fd5b80632f2ff15d116200018f578063385aecae1162000166578063385aecae146200033957806341bec0d214620003505780634e87206014620003675780636e1989a0146200038d57600080fd5b80632f2ff15d14620002f457806332dee40b146200030b57806336568abe146200032257600080fd5b80631785f53c11620001d05780631785f53c146200026e578063248a9ca3146200028757806324d7806c14620002ae5780632b6acf8a14620002c557600080fd5b806301ffc9a714620001fa5780630fa059f31462000226578063123091ae146200023f575b600080fd5b620002116200020b36600462001a69565b620005c1565b60405190151581526020015b60405180910390f35b62000230620005f9565b6040519081526020016200021d565b6200021162000250366004620018f9565b6001600160a01b031660009081526006602052604090205460ff1690565b620002856200027f366004620018f9565b620006d8565b005b620002306200029836600462001a20565b6000908152600160208190526040909120015490565b62000211620002bf366004620018f9565b6200071e565b62000211620002d6366004620018f9565b6001600160a01b031660009081526005602052604090205460ff1690565b620002856200030536600462001a3a565b6200072c565b620002856200031c366004620018f9565b6200075b565b620002856200033336600462001a3a565b62000950565b620002856200034a36600462001aaf565b620009d2565b6200028562000361366004620018f9565b62000b10565b6002546001600160a01b03165b6040516001600160a01b0390911681526020016200021d565b620002856200039e36600462001917565b62000b5d565b62000285620003b5366004620018f9565b62000bb3565b6200028562000bed565b6000546001600160a01b031662000374565b62000211620003e836600462001a3a565b62000c28565b62000230600081565b7f000000000000000000000000000000000000000000000000000000000000000062000374565b620004a26200042f366004620018f9565b60408051608080820183526000808352602080840182905283850182905260609384018290526001600160a01b0395861682526007815290849020845192830185528054909516825260018501549082015260028401549281019290925260039092015460ff1615159181019190915290565b6040516200021d919081516001600160a01b03168152602080830151908201526040808301519082015260609182015115159181019190915260800190565b620004a2620004f236600462001a20565b62000c53565b6200023062000cf6565b620002856200051336600462001a3a565b62000dd5565b620002856200052a36600462001953565b6001600160a01b03918216600090815260076020908152604091829020835181546001600160a01b031916951694909417845582015160018401558101516002830155606001516003909101805460ff1916911515919091179055565b6200059162000dff565b6040516200021d919062001b55565b62000285620012c1565b62000285620005bb366004620018f9565b620014be565b60006001600160e01b03198216637965db0b60e01b1480620005f357506301ffc9a760e01b6001600160e01b03198316145b92915050565b6040516370a0823160e01b81523360048201526000906001906001600160a01b037f000000000000000000000000000000000000000000000000000000000000000016906370a082319060240160206040518083038186803b1580156200065f57600080fd5b505afa15801562000674573d6000803e3d6000fd5b505050506040513d601f19601f820116820180604052508101906200069a919062001a95565b108015620006b25750620006b060003362000c28565b155b15620006d157604051630e4316e360e01b815260040160405180910390fd5b5060035490565b6000546001600160a01b031633146200070e5760405162461bcd60e51b8152600401620007059062001bd9565b60405180910390fd5b6200071b60008262000dd5565b50565b6000620005f3818362000c28565b600082815260016020819052604090912001546200074a816200155d565b62000756838362001569565b505050565b6000546001600160a01b03163314620007885760405162461bcd60e51b8152600401620007059062001bd9565b6002546040516370a0823160e01b81523060048201526000916001600160a01b0316906370a082319060240160206040518083038186803b158015620007cd57600080fd5b505afa158015620007e2573d6000803e3d6000fd5b505050506040513d601f19601f8201168201806040525081019062000808919062001a95565b116200082757604051630eecc76760e21b815260040160405180910390fd5b6002546040516370a0823160e01b81523060048201526001600160a01b039091169063a9059cbb90839083906370a082319060240160206040518083038186803b1580156200087557600080fd5b505afa1580156200088a573d6000803e3d6000fd5b505050506040513d601f19601f82011682018060405250810190620008b0919062001a95565b6040516001600160e01b031960e085901b1681526001600160a01b0390921660048301526024820152604401602060405180830381600087803b158015620008f757600080fd5b505af11580156200090c573d6000803e3d6000fd5b505050506040513d601f19601f8201168201806040525081019062000932919062001a00565b6200071b5760405163c145dbb160e01b815260040160405180910390fd5b6001600160a01b0381163314620009c25760405162461bcd60e51b815260206004820152602f60248201527f416363657373436f6e74726f6c3a2063616e206f6e6c792072656e6f756e636560448201526e103937b632b9903337b91039b2b63360891b606482015260840162000705565b620009ce8282620015d7565b5050565b620009df60003362000c28565b620009fd5760405163f2ccaea160e01b815260040160405180910390fd5b82158062000a09575081155b8062000a13575080155b1562000a3257604051637d7469fd60e01b815260040160405180910390fd5b60003084848460405162000a4690620018c1565b6001600160a01b039094168452602084019290925260408301526060820152608001604051809103906000f08015801562000a85573d6000803e3d6000fd5b50600380546001810182556000919091527fc2575a0e9e593c00f959f8c92f12db2869c3395a3b0502d05e2516446f71f85b0180546001600160a01b0319166001600160a01b0383169081179091556040519081529091507f614ca6919ba91c4490374afff3f2460e29c9103e55c05d3a43252293586ed8229060200160405180910390a150505050565b62000b1d60003362000c28565b62000b3b5760405163f2ccaea160e01b815260040160405180910390fd5b600280546001600160a01b0319166001600160a01b0392909216919091179055565b62000b6a60003362000c28565b62000b885760405163f2ccaea160e01b815260040160405180910390fd5b6001600160a01b03919091166000908152600660205260409020805460ff1916911515919091179055565b6000546001600160a01b0316331462000be05760405162461bcd60e51b8152600401620007059062001bd9565b6200071b6000826200072c565b6000546001600160a01b0316331462000c1a5760405162461bcd60e51b8152600401620007059062001bd9565b62000c26600062001641565b565b60009182526001602090815260408084206001600160a01b0393909316845291905290205460ff1690565b604080516080810182526000808252602082018190529181018290526060810191909152600760006004848154811062000c915762000c9162001cae565b60009182526020808320909101546001600160a01b0390811684528382019490945260409283019091208251608081018452815490941684526001810154918401919091526002810154918301919091526003015460ff161515606082015292915050565b6040516370a0823160e01b81523360048201526000906001906001600160a01b037f000000000000000000000000000000000000000000000000000000000000000016906370a082319060240160206040518083038186803b15801562000d5c57600080fd5b505afa15801562000d71573d6000803e3d6000fd5b505050506040513d601f19601f8201168201806040525081019062000d97919062001a95565b10801562000daf575062000dad60003362000c28565b155b1562000dce57604051630e4316e360e01b815260040160405180910390fd5b5060045490565b6000828152600160208190526040909120015462000df3816200155d565b620007568383620015d7565b6040516370a0823160e01b81523360048201526060906001906001600160a01b037f000000000000000000000000000000000000000000000000000000000000000016906370a082319060240160206040518083038186803b15801562000e6557600080fd5b505afa15801562000e7a573d6000803e3d6000fd5b505050506040513d601f19601f8201168201806040525081019062000ea0919062001a95565b10801562000eb8575062000eb660003362000c28565b155b1562000ed757604051630e4316e360e01b815260040160405180910390fd5b60035460009067ffffffffffffffff81111562000ef85762000ef862001cc4565b60405190808252806020026020018201604052801562000f22578160200160208202803683370190505b50905062000f3260003362000c28565b1562000f9b57600380548060200260200160405190810160405280929190818152602001828054801562000f9057602002820191906000526020600020905b81546001600160a01b0316815260019091019060200180831162000f71575b505050505091505090565b3360009081526005602052604090205460ff1615620010f1573360009081526007602052604081206001015490805b600354811015620010e957826003828154811062000fec5762000fec62001cae565b60009182526020918290200154604080516303eeb32d60e41b815290516001600160a01b0390921692633eeb32d092600480840193829003018186803b1580156200103657600080fd5b505afa1580156200104b573d6000803e3d6000fd5b505050506040513d601f19601f8201168201806040525081019062001071919062001a95565b1415620010e057600381815481106200108e576200108e62001cae565b9060005260206000200160009054906101000a90046001600160a01b0316848381518110620010c157620010c162001cae565b6001600160a01b03909216602092830291909101909101526001909101905b60010162000fca565b505050905090565b6040516370a0823160e01b81523360048201526001907f00000000000000000000000000000000000000000000000000000000000000006001600160a01b0316906370a082319060240160206040518083038186803b1580156200115457600080fd5b505afa15801562001169573d6000803e3d6000fd5b505050506040513d601f19601f820116820180604052508101906200118f919062001a95565b10620012bc576000805b600354811015620012b95760038181548110620011ba57620011ba62001cae565b60009182526020918290200154604080516303eeb32d60e41b815290516001600160a01b0390921692633eeb32d092600480840193829003018186803b1580156200120457600080fd5b505afa15801562001219573d6000803e3d6000fd5b505050506040513d601f19601f820116820180604052508101906200123f919062001a95565b60011415620012b057600381815481106200125e576200125e62001cae565b9060005260206000200160009054906101000a90046001600160a01b031683838151811062001291576200129162001cae565b6001600160a01b03909216602092830291909101909101526001909101905b60010162001199565b50505b905090565b6040516370a0823160e01b81523360048201526001907f00000000000000000000000000000000000000000000000000000000000000006001600160a01b0316906370a082319060240160206040518083038186803b1580156200132457600080fd5b505afa15801562001339573d6000803e3d6000fd5b505050506040513d601f19601f820116820180604052508101906200135f919062001a95565b1080156200137757506200137560003362000c28565b155b156200139657604051630e4316e360e01b815260040160405180910390fd5b3360009081526005602052604090205460ff1615620013c757604051623e263360e61b815260040160405180910390fd5b6004805460018082019092557f8a35acfbc15ff81a39ae7d344fd709f28e8600b4aa8c65c6b64bfe7fe36bd19b018054336001600160a01b031991821681179092556000828152600560209081526040808320805460ff1990811688179091558151608081018352868152808401888152818401868152606083018781528988526007875296859020925183549098166001600160a01b0390981697909717825551978101979097559351600287015591516003909501805490931694151594909417909155519081527f8f444dc6f9b291701e8d4ae03fbb8cb1ce697ddbac3e0969f391589c23523758910160405180910390a1565b6000546001600160a01b03163314620014eb5760405162461bcd60e51b8152600401620007059062001bd9565b6001600160a01b038116620015525760405162461bcd60e51b815260206004820152602660248201527f4f776e61626c653a206e6577206f776e657220697320746865207a65726f206160448201526564647265737360d01b606482015260840162000705565b6200071b8162001641565b6200071b813362001691565b62001575828262000c28565b620009ce5760008281526001602081815260408084206001600160a01b0386168086529252808420805460ff19169093179092559051339285917f2f8788117e7eff1d82e926ec794901d17c78024a50270940304540a733656f0d9190a45050565b620015e3828262000c28565b15620009ce5760008281526001602090815260408083206001600160a01b0385168085529252808320805460ff1916905551339285917ff6391f5c32d9c69d2a47ea670b442974b53935d1edc7fd64eb21e047a839171b9190a45050565b600080546001600160a01b038381166001600160a01b0319831681178455604051919092169283917f8be0079c531659141344cd1fd0a4f28419497f9722a3daafe3b4186f6b6457e09190a35050565b6200169d828262000c28565b620009ce57620016b8816001600160a01b0316601462001700565b620016c583602062001700565b604051602001620016d892919062001adc565b60408051601f198184030181529082905262461bcd60e51b8252620007059160040162001ba4565b606060006200171183600262001c29565b6200171e90600262001c0e565b67ffffffffffffffff81111562001739576200173962001cc4565b6040519080825280601f01601f19166020018201604052801562001764576020820181803683370190505b509050600360fc1b8160008151811062001782576200178262001cae565b60200101906001600160f81b031916908160001a905350600f60fb1b81600181518110620017b457620017b462001cae565b60200101906001600160f81b031916908160001a9053506000620017da84600262001c29565b620017e790600162001c0e565b90505b600181111562001869576f181899199a1a9b1b9c1cb0b131b232b360811b85600f16601081106200181f576200181f62001cae565b1a60f81b82828151811062001838576200183862001cae565b60200101906001600160f81b031916908160001a90535060049490941c93620018618162001c7e565b9050620017ea565b508315620018ba5760405162461bcd60e51b815260206004820181905260248201527f537472696e67733a20686578206c656e67746820696e73756666696369656e74604482015260640162000705565b9392505050565b6125188062001cea83390190565b80356001600160a01b0381168114620018e757600080fd5b919050565b8035620018e78162001cda565b6000602082840312156200190c57600080fd5b620018ba82620018cf565b600080604083850312156200192b57600080fd5b6200193683620018cf565b91506020830135620019488162001cda565b809150509250929050565b60008082840360a08112156200196857600080fd5b6200197384620018cf565b92506080601f19820112156200198857600080fd5b506040516080810181811067ffffffffffffffff82111715620019bb57634e487b7160e01b600052604160045260246000fd5b604052620019cc60208501620018cf565b81526040840135602082015260608401356040820152620019f060808501620018ec565b6060820152809150509250929050565b60006020828403121562001a1357600080fd5b8151620018ba8162001cda565b60006020828403121562001a3357600080fd5b5035919050565b6000806040838503121562001a4e57600080fd5b8235915062001a6060208401620018cf565b90509250929050565b60006020828403121562001a7c57600080fd5b81356001600160e01b031981168114620018ba57600080fd5b60006020828403121562001aa857600080fd5b5051919050565b60008060006060848603121562001ac557600080fd5b505081359360208301359350604090920135919050565b7f416363657373436f6e74726f6c3a206163636f756e742000000000000000000081526000835162001b1681601785016020880162001c4b565b7001034b99036b4b9b9b4b733903937b6329607d1b601791840191820152835162001b4981602884016020880162001c4b565b01602801949350505050565b6020808252825182820181905260009190848201906040850190845b8181101562001b985783516001600160a01b03168352928401929184019160010162001b71565b50909695505050505050565b602081526000825180602084015262001bc581604085016020870162001c4b565b601f01601f19169190910160400192915050565b6020808252818101527f4f776e61626c653a2063616c6c6572206973206e6f7420746865206f776e6572604082015260600190565b6000821982111562001c245762001c2462001c98565b500190565b600081600019048311821515161562001c465762001c4662001c98565b500290565b60005b8381101562001c6857818101518382015260200162001c4e565b8381111562001c78576000848401525b50505050565b60008162001c905762001c9062001c98565b506000190190565b634e487b7160e01b600052601160045260246000fd5b634e487b7160e01b600052603260045260246000fd5b634e487b7160e01b600052604160045260246000fd5b80151581146200071b57600080fdfe60a06040523480156200001157600080fd5b50604051620025183803806200251883398101604081905262000034916200023e565b6200003f336200012f565b8215806200004b575081155b8062000055575080155b156200007457604051637d7469fd60e01b815260040160405180910390fd5b6001600160601b0319606085901b16608052600283905560038290556004819055620000a26000336200017f565b620001256000801b856001600160a01b031663f385e62f6040518163ffffffff1660e01b815260040160206040518083038186803b158015620000e457600080fd5b505afa158015620000f9573d6000803e3d6000fd5b505050506040513d601f19601f820116820180604052508101906200011f919062000217565b6200017f565b5050505062000299565b600080546001600160a01b038381166001600160a01b0319831681178455604051919092169283917f8be0079c531659141344cd1fd0a4f28419497f9722a3daafe3b4186f6b6457e09190a35050565b6200018b82826200018f565b5050565b60008281526001602090815260408083206001600160a01b038516845290915290205460ff166200018b5760008281526001602081815260408084206001600160a01b0386168086529252808420805460ff19169093179092559051339285917f2f8788117e7eff1d82e926ec794901d17c78024a50270940304540a733656f0d9190a45050565b6000602082840312156200022a57600080fd5b8151620002378162000280565b9392505050565b600080600080608085870312156200025557600080fd5b8451620002628162000280565b60208601516040870151606090970151919890975090945092505050565b6001600160a01b03811681146200029657600080fd5b50565b60805160601c612213620003056000396000818161060d0152818161073e015281816107e4015281816109d001528181610c6d01528181610db901528181610ec301528181611034015281816113860152818161173e01528181611866015261191701526122136000f3fe6080604052600436106101855760003560e01c80638da5cb5b116100d1578063a2e4f20b1161008a578063d0c433d311610064578063d0c433d314610488578063d547741f1461049d578063e91f760f146104bd578063f2fde38b146104dd57600080fd5b8063a2e4f20b1461043d578063b612414314610453578063cdc6c05a1461047357600080fd5b80638da5cb5b1461034d57806391d14854146103755780639d948d35146103955780639d9a7fe9146103c25780639edeb1f5146103dc578063a217fddf1461042857600080fd5b80633eeb32d01161013e578063606aead411610118578063606aead4146102d857806370480275146102f8578063715018a614610318578063838e5e621461032d57600080fd5b80633eeb32d01461027d57806342bb32fa14610293578063557441ad146102a857600080fd5b806301ffc9a7146101915780631785f53c146101c6578063248a9ca3146101e85780632f2ff15d1461022757806336568abe14610247578063381b239e1461026757600080fd5b3661018c57005b600080fd5b34801561019d57600080fd5b506101b16101ac366004611e19565b6104fd565b60405190151581526020015b60405180910390f35b3480156101d257600080fd5b506101e66101e1366004611d98565b61050e565b005b3480156101f457600080fd5b50610219610203366004611dd0565b6000908152600160208190526040909120015490565b6040519081526020016101bd565b34801561023357600080fd5b506101e6610242366004611de9565b61054f565b34801561025357600080fd5b506101e6610262366004611de9565b61057a565b34801561027357600080fd5b5061021960045481565b34801561028957600080fd5b5061021960035481565b34801561029f57600080fd5b506101e66105f8565b3480156102b457600080fd5b506101b16102c3366004611d98565b60076020526000908152604090205460ff1681565b3480156102e457600080fd5b506101e66102f3366004611eec565b610b08565b34801561030457600080fd5b506101e6610313366004611d98565b61114a565b34801561032457600080fd5b506101e661117f565b34801561033957600080fd5b506101e6610348366004611dd0565b6111b5565b34801561035957600080fd5b506000546040516001600160a01b0390911681526020016101bd565b34801561038157600080fd5b506101b1610390366004611de9565b611203565b3480156103a157600080fd5b506102196103b0366004611d98565b60086020526000908152604090205481565b3480156103ce57600080fd5b506005546101b19060ff1681565b3480156103e857600080fd5b506103fc6103f7366004611dd0565b61122e565b604080516001600160a01b039095168552602085019390935291830152151560608201526080016101bd565b34801561043457600080fd5b50610219600081565b34801561044957600080fd5b5061021960025481565b34801561045f57600080fd5b506101e661046e366004611dd0565b611275565b34801561047f57600080fd5b50600654610219565b34801561049457600080fd5b506101e66112c3565b3480156104a957600080fd5b506101e66104b8366004611de9565b611498565b3480156104c957600080fd5b506101e66104d8366004611dd0565b6114be565b3480156104e957600080fd5b506101e66104f8366004611d98565b61150c565b6000610508826115a4565b92915050565b6000546001600160a01b031633146105415760405162461bcd60e51b815260040161053890612068565b60405180910390fd5b61054c600082611498565b50565b6000828152600160208190526040909120015461056b816115d9565b61057583836115e3565b505050565b6001600160a01b03811633146105ea5760405162461bcd60e51b815260206004820152602f60248201527f416363657373436f6e74726f6c3a2063616e206f6e6c792072656e6f756e636560448201526e103937b632b9903337b91039b2b63360891b6064820152608401610538565b6105f4828261164e565b5050565b6040516315b567c560e11b81523360048201527f00000000000000000000000000000000000000000000000000000000000000006001600160a01b031690632b6acf8a9060240160206040518083038186803b15801561065757600080fd5b505afa15801561066b573d6000803e3d6000fd5b505050506040513d601f19601f8201168201806040525081019061068f9190611db5565b6106ac576040516389eb8ec360e01b815260040160405180910390fd5b60055460ff16156106d057604051631305bef760e11b815260040160405180910390fd5b3360009081526007602052604090205460ff161561070157604051637e63c82d60e11b815260040160405180910390fd5b600454600654141561072657604051633f538f0360e11b815260040160405180910390fd5b60405163bd4fd7b360e01b81523360048201526000907f00000000000000000000000000000000000000000000000000000000000000006001600160a01b03169063bd4fd7b39060240160806040518083038186803b15801561078857600080fd5b505afa15801561079c573d6000803e3d6000fd5b505050506040513d601f19601f820116820180604052508101906107c09190611e60565b805160405163091848d760e11b81526001600160a01b0391821660048201529192507f0000000000000000000000000000000000000000000000000000000000000000169063123091ae9060240160206040518083038186803b15801561082657600080fd5b505afa15801561083a573d6000803e3d6000fd5b505050506040513d601f19601f8201168201806040525081019061085e9190611db5565b1561087c5760405163022a8d2b60e51b815260040160405180910390fd5b600354816020015110156108a357604051630622fed760e41b815260040160405180910390fd5b60068054600180820183556000928352835160049092027ff652222313e28459528d920b65115c16c04f3efc82aaedc97be59f3f377c0d3f810180546001600160a01b039094166001600160a01b0319909416939093179092556020808501517ff652222313e28459528d920b65115c16c04f3efc82aaedc97be59f3f377c0d408401556040808601517ff652222313e28459528d920b65115c16c04f3efc82aaedc97be59f3f377c0d4185015560608601517ff652222313e28459528d920b65115c16c04f3efc82aaedc97be59f3f377c0d42909401805494151560ff199586161790553380865260078352948190208054909416909217909255519182527ff5da5eb274636ac306fbf0a82a1f3aeba8366f6053d784396ae36d02a839d0b5910160405180910390a17f00000000000000000000000000000000000000000000000000000000000000006001600160a01b0316634e8720606040518163ffffffff1660e01b815260040160206040518083038186803b158015610a2757600080fd5b505afa158015610a3b573d6000803e3d6000fd5b505050506040513d601f19601f82011682018060405250810190610a5f9190611e43565b6002546040516323b872dd60e01b815233600482015230602482015260448101919091526001600160a01b0391909116906323b872dd90606401602060405180830381600087803b158015610ab357600080fd5b505af1158015610ac7573d6000803e3d6000fd5b505050506040513d601f19601f82011682018060405250810190610aeb9190611db5565b61054c5760405163c145dbb160e01b815260040160405180910390fd5b610b13600033611203565b610b305760405163f2ccaea160e01b815260040160405180910390fd5b60055460ff1615610b5457604051631305bef760e11b815260040160405180910390fd5b821580610b6357506006548251105b80610b7057506006548151105b15610b8e57604051637d7469fd60e01b815260040160405180910390fd5b6005805460ff1916600117905560005b8251811015610c5d5760076000848381518110610bbd57610bbd61219c565b6020908102919091018101516001600160a01b031682528101919091526040016000205460ff16610c01576040516389eb8ec360e01b815260040160405180910390fd5b818181518110610c1357610c1361219c565b602002602001015160086000858481518110610c3157610c3161219c565b6020908102919091018101516001600160a01b0316825281019190915260400160002055600101610b9e565b5060005b60065481101561102f577f00000000000000000000000000000000000000000000000000000000000000006001600160a01b031663123091ae60068381548110610cad57610cad61219c565b600091825260209091206004918202015460405160e084901b6001600160e01b03191681526001600160a01b039091169181019190915260240160206040518083038186803b158015610cff57600080fd5b505afa158015610d13573d6000803e3d6000fd5b505050506040513d601f19601f82011682018060405250810190610d379190611db5565b61102757610db760646008600060068581548110610d5757610d5761219c565b600091825260208083206004909202909101546001600160a01b03168352820192909252604001902054860281610d9057610d90612186565b0460068381548110610da457610da461219c565b90600052602060002090600402016116b5565b7f00000000000000000000000000000000000000000000000000000000000000006001600160a01b031663d753a54e60068381548110610df957610df961219c565b6000918252602090912060049091020154600680546001600160a01b039092169185908110610e2a57610e2a61219c565b90600052602060002090600402016040518363ffffffff1660e01b8152600401610e8f9291906001600160a01b0392831681528154909216602083015260018101546040830152600281015460608301526003015460ff161515608082015260a00190565b600060405180830381600087803b158015610ea957600080fd5b505af1158015610ebd573d6000803e3d6000fd5b505050507f00000000000000000000000000000000000000000000000000000000000000006001600160a01b0316634e8720606040518163ffffffff1660e01b815260040160206040518083038186803b158015610f1a57600080fd5b505afa158015610f2e573d6000803e3d6000fd5b505050506040513d601f19601f82011682018060405250810190610f529190611e43565b6001600160a01b031663a9059cbb60068381548110610f7357610f7361219c565b600091825260209091206004918202015460025460405160e085901b6001600160e01b03191681526001600160a01b03909216928201929092526024810191909152604401602060405180830381600087803b158015610fd257600080fd5b505af1158015610fe6573d6000803e3d6000fd5b505050506040513d601f19601f8201168201806040525081019061100a9190611db5565b6110275760405163c145dbb160e01b815260040160405180910390fd5b600101610c61565b5060007f00000000000000000000000000000000000000000000000000000000000000006001600160a01b0316634e8720606040518163ffffffff1660e01b815260040160206040518083038186803b15801561108b57600080fd5b505afa15801561109f573d6000803e3d6000fd5b505050506040513d601f19601f820116820180604052508101906110c39190611e43565b6040516370a0823160e01b81523060048201526001600160a01b0391909116906370a082319060240160206040518083038186803b15801561110457600080fd5b505afa158015611118573d6000803e3d6000fd5b505050506040513d601f19601f8201168201806040525081019061113c9190611ed3565b111561057557610575611712565b6000546001600160a01b031633146111745760405162461bcd60e51b815260040161053890612068565b61054c60008261054f565b6000546001600160a01b031633146111a95760405162461bcd60e51b815260040161053890612068565b6111b36000611aba565b565b6111c0600033611203565b6111dd5760405163f2ccaea160e01b815260040160405180910390fd5b600654156111fe5760405163175208ef60e21b815260040160405180910390fd5b600255565b60009182526001602090815260408084206001600160a01b0393909316845291905290205460ff1690565b6006818154811061123e57600080fd5b600091825260209091206004909102018054600182015460028301546003909301546001600160a01b039092169350919060ff1684565b611280600033611203565b61129d5760405163f2ccaea160e01b815260040160405180910390fd5b600654156112be5760405163175208ef60e21b815260040160405180910390fd5b600355565b6112ce600033611203565b6112eb5760405163f2ccaea160e01b815260040160405180910390fd5b60055460ff1661130e57604051634342f06d60e01b815260040160405180910390fd5b6000471161132f57604051633868d38360e01b815260040160405180910390fd5b4760005b6006548110156105f4576000600682815481106113525761135261219c565b600091825260209091206004918202015460405163091848d760e11b81526001600160a01b039182169281018390529192507f0000000000000000000000000000000000000000000000000000000000000000169063123091ae9060240160206040518083038186803b1580156113c857600080fd5b505afa1580156113dc573d6000803e3d6000fd5b505050506040513d601f19601f820116820180604052508101906114009190611db5565b61148f576001600160a01b03811660008181526008602052604081205490919060649086020460405160006040518083038185875af1925050503d8060008114611466576040519150601f19603f3d011682016040523d82523d6000602084013e61146b565b606091505b505090508061148d5760405163169940fd60e21b815260040160405180910390fd5b505b50600101611333565b600082815260016020819052604090912001546114b4816115d9565b610575838361164e565b6114c9600033611203565b6114e65760405163f2ccaea160e01b815260040160405180910390fd5b600654156115075760405163175208ef60e21b815260040160405180910390fd5b600455565b6000546001600160a01b031633146115365760405162461bcd60e51b815260040161053890612068565b6001600160a01b03811661159b5760405162461bcd60e51b815260206004820152602660248201527f4f776e61626c653a206e6577206f776e657220697320746865207a65726f206160448201526564647265737360d01b6064820152608401610538565b61054c81611aba565b60006001600160e01b03198216637965db0b60e01b148061050857506301ffc9a760e01b6001600160e01b0319831614610508565b61054c8133611b0a565b6115ed8282611203565b6105f45760008281526001602081815260408084206001600160a01b0386168086529252808420805460ff19169093179092559051339285917f2f8788117e7eff1d82e926ec794901d17c78024a50270940304540a733656f0d9190a45050565b6116588282611203565b156105f45760008281526001602090815260408083206001600160a01b0385168085529252808320805460ff1916905551339285917ff6391f5c32d9c69d2a47ea670b442974b53935d1edc7fd64eb21e047a839171b9190a45050565b6116c0600033611203565b6116dd5760405163f2ccaea160e01b815260040160405180910390fd5b600281015482015b816001015460640281106117095760018083018054918201905560640290036116e5565b60029091015550565b61171d600033611203565b61173a5760405163f2ccaea160e01b815260040160405180910390fd5b60007f00000000000000000000000000000000000000000000000000000000000000006001600160a01b0316634e8720606040518163ffffffff1660e01b815260040160206040518083038186803b15801561179557600080fd5b505afa1580156117a9573d6000803e3d6000fd5b505050506040513d601f19601f820116820180604052508101906117cd9190611e43565b6040516370a0823160e01b81523060048201526001600160a01b0391909116906370a082319060240160206040518083038186803b15801561180e57600080fd5b505afa158015611822573d6000803e3d6000fd5b505050506040513d601f19601f820116820180604052508101906118469190611ed3565b1161186457604051630eecc76760e21b815260040160405180910390fd5b7f00000000000000000000000000000000000000000000000000000000000000006001600160a01b0316634e8720606040518163ffffffff1660e01b815260040160206040518083038186803b1580156118bd57600080fd5b505afa1580156118d1573d6000803e3d6000fd5b505050506040513d601f19601f820116820180604052508101906118f59190611e43565b6001600160a01b031663a9059cbb6119156000546001600160a01b031690565b7f00000000000000000000000000000000000000000000000000000000000000006001600160a01b0316634e8720606040518163ffffffff1660e01b815260040160206040518083038186803b15801561196e57600080fd5b505afa158015611982573d6000803e3d6000fd5b505050506040513d601f19601f820116820180604052508101906119a69190611e43565b6040516370a0823160e01b81523060048201526001600160a01b0391909116906370a082319060240160206040518083038186803b1580156119e757600080fd5b505afa1580156119fb573d6000803e3d6000fd5b505050506040513d601f19601f82011682018060405250810190611a1f9190611ed3565b6040516001600160e01b031960e085901b1681526001600160a01b0390921660048301526024820152604401602060405180830381600087803b158015611a6557600080fd5b505af1158015611a79573d6000803e3d6000fd5b505050506040513d601f19601f82011682018060405250810190611a9d9190611db5565b6111b35760405163c145dbb160e01b815260040160405180910390fd5b600080546001600160a01b038381166001600160a01b0319831681178455604051919092169283917f8be0079c531659141344cd1fd0a4f28419497f9722a3daafe3b4186f6b6457e09190a35050565b611b148282611203565b6105f457611b2c816001600160a01b03166014611b6e565b611b37836020611b6e565b604051602001611b48929190611fc0565b60408051601f198184030181529082905262461bcd60e51b825261053891600401612035565b60606000611b7d83600261210a565b611b889060026120f2565b67ffffffffffffffff811115611ba057611ba06121b2565b6040519080825280601f01601f191660200182016040528015611bca576020820181803683370190505b509050600360fc1b81600081518110611be557611be561219c565b60200101906001600160f81b031916908160001a905350600f60fb1b81600181518110611c1457611c1461219c565b60200101906001600160f81b031916908160001a9053506000611c3884600261210a565b611c439060016120f2565b90505b6001811115611cbb576f181899199a1a9b1b9c1cb0b131b232b360811b85600f1660108110611c7757611c7761219c565b1a60f81b828281518110611c8d57611c8d61219c565b60200101906001600160f81b031916908160001a90535060049490941c93611cb481612159565b9050611c46565b508315611d0a5760405162461bcd60e51b815260206004820181905260248201527f537472696e67733a20686578206c656e67746820696e73756666696369656e746044820152606401610538565b9392505050565b600082601f830112611d2257600080fd5b81356020611d37611d32836120ce565b61209d565b80838252828201915082860187848660051b8901011115611d5757600080fd5b60005b85811015611d7657813584529284019290840190600101611d5a565b5090979650505050505050565b80518015158114611d9357600080fd5b919050565b600060208284031215611daa57600080fd5b8135611d0a816121c8565b600060208284031215611dc757600080fd5b611d0a82611d83565b600060208284031215611de257600080fd5b5035919050565b60008060408385031215611dfc57600080fd5b823591506020830135611e0e816121c8565b809150509250929050565b600060208284031215611e2b57600080fd5b81356001600160e01b031981168114611d0a57600080fd5b600060208284031215611e5557600080fd5b8151611d0a816121c8565b600060808284031215611e7257600080fd5b6040516080810181811067ffffffffffffffff82111715611e9557611e956121b2565b6040528251611ea3816121c8565b808252506020830151602082015260408301516040820152611ec760608401611d83565b60608201529392505050565b600060208284031215611ee557600080fd5b5051919050565b600080600060608486031215611f0157600080fd5b8335925060208085013567ffffffffffffffff80821115611f2157600080fd5b818701915087601f830112611f3557600080fd5b8135611f43611d32826120ce565b8082825285820191508585018b878560051b8801011115611f6357600080fd5b600095505b83861015611f8f578035611f7b816121c8565b835260019590950194918601918601611f68565b50965050506040870135925080831115611fa857600080fd5b5050611fb686828701611d11565b9150509250925092565b7f416363657373436f6e74726f6c3a206163636f756e7420000000000000000000815260008351611ff8816017850160208801612129565b7001034b99036b4b9b9b4b733903937b6329607d1b6017918401918201528351612029816028840160208801612129565b01602801949350505050565b6020815260008251806020840152612054816040850160208701612129565b601f01601f19169190910160400192915050565b6020808252818101527f4f776e61626c653a2063616c6c6572206973206e6f7420746865206f776e6572604082015260600190565b604051601f8201601f1916810167ffffffffffffffff811182821017156120c6576120c66121b2565b604052919050565b600067ffffffffffffffff8211156120e8576120e86121b2565b5060051b60200190565b6000821982111561210557612105612170565b500190565b600081600019048311821515161561212457612124612170565b500290565b60005b8381101561214457818101518382015260200161212c565b83811115612153576000848401525b50505050565b60008161216857612168612170565b506000190190565b634e487b7160e01b600052601160045260246000fd5b634e487b7160e01b600052601260045260246000fd5b634e487b7160e01b600052603260045260246000fd5b634e487b7160e01b600052604160045260246000fd5b6001600160a01b038116811461054c57600080fdfea2646970667358221220edaffd26fa2920dc82b5bba4129e39b7394151a10a5774958a0ff5d41cf110f764736f6c63430008070033a26469706673582212201e490e04eeccb92617214d7612451cd1cdb8b20f4f8c26e7266fc462b9c8057964736f6c63430008070033",
  "devdoc": {
    "kind": "dev",
    "methods": {
      "addAdmin(address)": {
        "details": "Only callable by the Admin"
      },
      "createProject(uint256,uint256,uint256)": {
        "details": "Only callable by Admins"
      },
      "getContributorsNumber()": {
        "details": "Only callable by Holders"
      },
      "getProjects()": {
        "details": "Only callable by Holders"
      },
      "getProjectsNumber()": {
        "details": "Only callable by Holders"
      },
      "getRoleAdmin(bytes32)": {
        "details": "Returns the admin role that controls `role`. See {grantRole} and {revokeRole}. To change a role's admin, use {_setRoleAdmin}."
      },
      "grantRole(bytes32,address)": {
        "details": "Grants `role` to `account`. If `account` had not been already granted `role`, emits a {RoleGranted} event. Requirements: - the caller must have ``role``'s admin role."
      },
      "hasRole(bytes32,address)": {
        "details": "Returns `true` if `account` has been granted `role`."
      },
      "isContributorBanned(address)": {
        "details": "Only callable by Admins."
      },
      "owner()": {
        "details": "Returns the address of the current owner."
      },
      "registerContributor()": {
        "details": "Only callable by Holders who are not aldeady Contributors"
      },
      "removeAdmin(address)": {
        "details": "Only callable by the Admin"
      },
      "renounceOwnership()": {
        "details": "Leaves the contract without owner. It will not be possible to call `onlyOwner` functions anymore. Can only be called by the current owner. NOTE: Renouncing ownership will leave the contract without an owner, thereby removing any functionality that is only available to the owner."
      },
      "renounceRole(bytes32,address)": {
        "details": "Revokes `role` from the calling account. Roles are often managed via {grantRole} and {revokeRole}: this function's purpose is to provide a mechanism for accounts to lose their privileges if they are compromised (such as when a trusted device is misplaced). If the calling account had been revoked `role`, emits a {RoleRevoked} event. Requirements: - the caller must be `account`."
      },
      "revokeRole(bytes32,address)": {
        "details": "Revokes `role` from `account`. If `account` had been granted `role`, emits a {RoleRevoked} event. Requirements: - the caller must have ``role``'s admin role."
      },
      "setContributorStateToBanList(address,bool)": {
        "details": "Only callable by Admins."
      },
      "setERC20Address(address)": {
        "details": "Only callable by the Admin"
      },
      "supportsInterface(bytes4)": {
        "details": "See {IERC165-supportsInterface}."
      },
      "transferOwnership(address)": {
        "details": "Transfers ownership of the contract to a new account (`newOwner`). Can only be called by the current owner."
      },
      "withdrawAllFunds(address)": {
        "details": "Only owner is able to call this function"
      }
    },
    "version": 1
  },
  "userdoc": {
    "events": {
      "newContributorRegistered(address)": {
        "notice": "Events"
      }
    },
    "kind": "user",
    "methods": {
      "addAdmin(address)": {
        "notice": "Set new Admin"
      },
      "createProject(uint256,uint256,uint256)": {
        "notice": "Create Project"
      },
      "getAccountToContributorData(address)": {
        "notice": "Get Contributor Data by address"
      },
      "getContributor(uint256)": {
        "notice": "Get  Contributor by index"
      },
      "getContributorsNumber()": {
        "notice": "Get total number of contributors"
      },
      "getERC20Interface()": {
        "notice": "Returns ERC20 address"
      },
      "getMRCInterface()": {
        "notice": "Returns MRC address"
      },
      "getProjects()": {
        "notice": "Get  projects depending on Level"
      },
      "getProjectsNumber()": {
        "notice": "Get total number of projects"
      },
      "getRacksPMOwner()": {
        "notice": "Returns Contract Owner"
      },
      "isAdmin(address)": {
        "notice": "Returns whether an address is admin or not"
      },
      "isContributorBanned(address)": {
        "notice": "Check whether an account is banned or not"
      },
      "isWalletContributor(address)": {
        "notice": "Check whether an address is Contributor or not"
      },
      "registerContributor()": {
        "notice": "Add Contributor"
      },
      "removeAdmin(address)": {
        "notice": "Remove an account from the user role"
      },
      "setAccountToContributorData(address,(address,uint256,uint256,bool))": {
        "notice": "Set Contributor Data by address"
      },
      "setContributorStateToBanList(address,bool)": {
        "notice": "Set a ban state for a Contributor"
      },
      "setERC20Address(address)": {
        "notice": "Set new ERC20 Token"
      },
      "withdrawAllFunds(address)": {
        "notice": "Used to withdraw All funds"
      }
    },
    "version": 1
  },
  "storageLayout": {
    "storage": [
      {
        "astId": 400,
        "contract": "contracts/RacksProjectManager.sol:RacksProjectManager",
        "label": "_owner",
        "offset": 0,
        "slot": "0",
        "type": "t_address"
      },
      {
        "astId": 24,
        "contract": "contracts/RacksProjectManager.sol:RacksProjectManager",
        "label": "_roles",
        "offset": 0,
        "slot": "1",
        "type": "t_mapping(t_bytes32,t_struct(RoleData)19_storage)"
      },
      {
        "astId": 3959,
        "contract": "contracts/RacksProjectManager.sol:RacksProjectManager",
        "label": "erc20",
        "offset": 0,
        "slot": "2",
        "type": "t_contract(IERC20)1161"
      },
      {
        "astId": 3967,
        "contract": "contracts/RacksProjectManager.sol:RacksProjectManager",
        "label": "projects",
        "offset": 0,
        "slot": "3",
        "type": "t_array(t_contract(Project)3936)dyn_storage"
      },
      {
        "astId": 3970,
        "contract": "contracts/RacksProjectManager.sol:RacksProjectManager",
        "label": "contributors",
        "offset": 0,
        "slot": "4",
        "type": "t_array(t_address)dyn_storage"
      },
      {
        "astId": 3974,
        "contract": "contracts/RacksProjectManager.sol:RacksProjectManager",
        "label": "walletIsContributor",
        "offset": 0,
        "slot": "5",
        "type": "t_mapping(t_address,t_bool)"
      },
      {
        "astId": 3978,
        "contract": "contracts/RacksProjectManager.sol:RacksProjectManager",
        "label": "accountIsBanned",
        "offset": 0,
        "slot": "6",
        "type": "t_mapping(t_address,t_bool)"
      },
      {
        "astId": 3983,
        "contract": "contracts/RacksProjectManager.sol:RacksProjectManager",
        "label": "accountToContributorData",
        "offset": 0,
        "slot": "7",
        "type": "t_mapping(t_address,t_struct(Contributor)3149_storage)"
      }
    ],
    "types": {
      "t_address": {
        "encoding": "inplace",
        "label": "address",
        "numberOfBytes": "20"
      },
      "t_array(t_address)dyn_storage": {
        "base": "t_address",
        "encoding": "dynamic_array",
        "label": "address[]",
        "numberOfBytes": "32"
      },
      "t_array(t_contract(Project)3936)dyn_storage": {
        "base": "t_contract(Project)3936",
        "encoding": "dynamic_array",
        "label": "contract Project[]",
        "numberOfBytes": "32"
      },
      "t_bool": {
        "encoding": "inplace",
        "label": "bool",
        "numberOfBytes": "1"
      },
      "t_bytes32": {
        "encoding": "inplace",
        "label": "bytes32",
        "numberOfBytes": "32"
      },
      "t_contract(IERC20)1161": {
        "encoding": "inplace",
        "label": "contract IERC20",
        "numberOfBytes": "20"
      },
      "t_contract(Project)3936": {
        "encoding": "inplace",
        "label": "contract Project",
        "numberOfBytes": "20"
      },
      "t_mapping(t_address,t_bool)": {
        "encoding": "mapping",
        "key": "t_address",
        "label": "mapping(address => bool)",
        "numberOfBytes": "32",
        "value": "t_bool"
      },
      "t_mapping(t_address,t_struct(Contributor)3149_storage)": {
        "encoding": "mapping",
        "key": "t_address",
        "label": "mapping(address => struct Contributor)",
        "numberOfBytes": "32",
        "value": "t_struct(Contributor)3149_storage"
      },
      "t_mapping(t_bytes32,t_struct(RoleData)19_storage)": {
        "encoding": "mapping",
        "key": "t_bytes32",
        "label": "mapping(bytes32 => struct AccessControl.RoleData)",
        "numberOfBytes": "32",
        "value": "t_struct(RoleData)19_storage"
      },
      "t_struct(Contributor)3149_storage": {
        "encoding": "inplace",
        "label": "struct Contributor",
        "members": [
          {
            "astId": 3142,
            "contract": "contracts/RacksProjectManager.sol:RacksProjectManager",
            "label": "wallet",
            "offset": 0,
            "slot": "0",
            "type": "t_address"
          },
          {
            "astId": 3144,
            "contract": "contracts/RacksProjectManager.sol:RacksProjectManager",
            "label": "reputationLevel",
            "offset": 0,
            "slot": "1",
            "type": "t_uint256"
          },
          {
            "astId": 3146,
            "contract": "contracts/RacksProjectManager.sol:RacksProjectManager",
            "label": "reputationPoints",
            "offset": 0,
            "slot": "2",
            "type": "t_uint256"
          },
          {
            "astId": 3148,
            "contract": "contracts/RacksProjectManager.sol:RacksProjectManager",
            "label": "banned",
            "offset": 0,
            "slot": "3",
            "type": "t_bool"
          }
        ],
        "numberOfBytes": "128"
      },
      "t_struct(RoleData)19_storage": {
        "encoding": "inplace",
        "label": "struct AccessControl.RoleData",
        "members": [
          {
            "astId": 16,
            "contract": "contracts/RacksProjectManager.sol:RacksProjectManager",
            "label": "members",
            "offset": 0,
            "slot": "0",
            "type": "t_mapping(t_address,t_bool)"
          },
          {
            "astId": 18,
            "contract": "contracts/RacksProjectManager.sol:RacksProjectManager",
            "label": "adminRole",
            "offset": 0,
            "slot": "1",
            "type": "t_bytes32"
          }
        ],
        "numberOfBytes": "64"
      },
      "t_uint256": {
        "encoding": "inplace",
        "label": "uint256",
        "numberOfBytes": "32"
      }
    }
  }
}