{
  "address": "0x5efCf4D044356713218989833def44aC0232E7C0",
  "abi": [
    {
      "inputs": [
        {
          "internalType": "contract IMRC",
          "name": "_mrc",
          "type": "address"
        },
        {
          "internalType": "contract IERC20",
          "name": "_erc20",
          "type": "address"
        }
      ],
      "stateMutability": "nonpayable",
      "type": "constructor"
    },
    {
      "inputs": [],
      "name": "adminErr",
      "type": "error"
    },
    {
      "inputs": [],
      "name": "contributorAlreadyExistsErr",
      "type": "error"
    },
    {
      "inputs": [],
      "name": "erc20TransferFailed",
      "type": "error"
    },
    {
      "inputs": [],
      "name": "holderErr",
      "type": "error"
    },
    {
      "inputs": [],
      "name": "noFundsWithdrawErr",
      "type": "error"
    },
    {
      "inputs": [],
      "name": "pausedErr",
      "type": "error"
    },
    {
      "inputs": [],
      "name": "projectInvalidParameterErr",
      "type": "error"
    },
    {
      "anonymous": false,
      "inputs": [
        {
          "indexed": true,
          "internalType": "address",
          "name": "previousOwner",
          "type": "address"
        },
        {
          "indexed": true,
          "internalType": "address",
          "name": "newOwner",
          "type": "address"
        }
      ],
      "name": "OwnershipTransferred",
      "type": "event"
    },
    {
      "anonymous": false,
      "inputs": [
        {
          "indexed": true,
          "internalType": "bytes32",
          "name": "role",
          "type": "bytes32"
        },
        {
          "indexed": true,
          "internalType": "bytes32",
          "name": "previousAdminRole",
          "type": "bytes32"
        },
        {
          "indexed": true,
          "internalType": "bytes32",
          "name": "newAdminRole",
          "type": "bytes32"
        }
      ],
      "name": "RoleAdminChanged",
      "type": "event"
    },
    {
      "anonymous": false,
      "inputs": [
        {
          "indexed": true,
          "internalType": "bytes32",
          "name": "role",
          "type": "bytes32"
        },
        {
          "indexed": true,
          "internalType": "address",
          "name": "account",
          "type": "address"
        },
        {
          "indexed": true,
          "internalType": "address",
          "name": "sender",
          "type": "address"
        }
      ],
      "name": "RoleGranted",
      "type": "event"
    },
    {
      "anonymous": false,
      "inputs": [
        {
          "indexed": true,
          "internalType": "bytes32",
          "name": "role",
          "type": "bytes32"
        },
        {
          "indexed": true,
          "internalType": "address",
          "name": "account",
          "type": "address"
        },
        {
          "indexed": true,
          "internalType": "address",
          "name": "sender",
          "type": "address"
        }
      ],
      "name": "RoleRevoked",
      "type": "event"
    },
    {
      "anonymous": false,
      "inputs": [
        {
          "indexed": false,
          "internalType": "address",
          "name": "newContributor",
          "type": "address"
        }
      ],
      "name": "newContributorRegistered",
      "type": "event"
    },
    {
      "anonymous": false,
      "inputs": [
        {
          "indexed": false,
          "internalType": "string",
          "name": "name",
          "type": "string"
        },
        {
          "indexed": false,
          "internalType": "address",
          "name": "newProjectAddress",
          "type": "address"
        }
      ],
      "name": "newProjectCreated",
      "type": "event"
    },
    {
      "inputs": [],
      "name": "DEFAULT_ADMIN_ROLE",
      "outputs": [
        {
          "internalType": "bytes32",
          "name": "",
          "type": "bytes32"
        }
      ],
      "stateMutability": "view",
      "type": "function"
    },
    {
      "inputs": [
        {
          "internalType": "address",
          "name": "_newAdmin",
          "type": "address"
        }
      ],
      "name": "addAdmin",
      "outputs": [],
      "stateMutability": "nonpayable",
      "type": "function"
    },
    {
      "inputs": [
        {
          "internalType": "string",
          "name": "_name",
          "type": "string"
        },
        {
          "internalType": "uint256",
          "name": "_colateralCost",
          "type": "uint256"
        },
        {
          "internalType": "uint256",
          "name": "_reputationLevel",
          "type": "uint256"
        },
        {
          "internalType": "uint256",
          "name": "_maxContributorsNumber",
          "type": "uint256"
        }
      ],
      "name": "createProject",
      "outputs": [],
      "stateMutability": "nonpayable",
      "type": "function"
    },
    {
      "inputs": [],
      "name": "deleteProject",
      "outputs": [],
      "stateMutability": "nonpayable",
      "type": "function"
    },
    {
      "inputs": [
        {
          "internalType": "address",
          "name": "_account",
          "type": "address"
        }
      ],
      "name": "getAccountToContributorData",
      "outputs": [
        {
          "components": [
            {
              "internalType": "address",
              "name": "wallet",
              "type": "address"
            },
            {
              "internalType": "uint256",
              "name": "reputationLevel",
              "type": "uint256"
            },
            {
              "internalType": "uint256",
              "name": "reputationPoints",
              "type": "uint256"
            },
            {
              "internalType": "bool",
              "name": "banned",
              "type": "bool"
            }
          ],
          "internalType": "struct Contributor",
          "name": "",
          "type": "tuple"
        }
      ],
      "stateMutability": "view",
      "type": "function"
    },
    {
      "inputs": [],
      "name": "getAllProject",
      "outputs": [
        {
          "internalType": "contract Project[]",
          "name": "",
          "type": "address[]"
        }
      ],
      "stateMutability": "view",
      "type": "function"
    },
    {
      "inputs": [
        {
          "internalType": "uint256",
          "name": "_index",
          "type": "uint256"
        }
      ],
      "name": "getContributor",
      "outputs": [
        {
          "components": [
            {
              "internalType": "address",
              "name": "wallet",
              "type": "address"
            },
            {
              "internalType": "uint256",
              "name": "reputationLevel",
              "type": "uint256"
            },
            {
              "internalType": "uint256",
              "name": "reputationPoints",
              "type": "uint256"
            },
            {
              "internalType": "bool",
              "name": "banned",
              "type": "bool"
            }
          ],
          "internalType": "struct Contributor",
          "name": "",
          "type": "tuple"
        }
      ],
      "stateMutability": "view",
      "type": "function"
    },
    {
      "inputs": [],
      "name": "getContributorsNumber",
      "outputs": [
        {
          "internalType": "uint256",
          "name": "",
          "type": "uint256"
        }
      ],
      "stateMutability": "view",
      "type": "function"
    },
    {
      "inputs": [],
      "name": "getERC20Interface",
      "outputs": [
        {
          "internalType": "contract IERC20",
          "name": "",
          "type": "address"
        }
      ],
      "stateMutability": "view",
      "type": "function"
    },
    {
      "inputs": [],
      "name": "getIsPaused",
      "outputs": [
        {
          "internalType": "bool",
          "name": "",
          "type": "bool"
        }
      ],
      "stateMutability": "view",
      "type": "function"
    },
    {
      "inputs": [],
      "name": "getMRCInterface",
      "outputs": [
        {
          "internalType": "contract IMRC",
          "name": "",
          "type": "address"
        }
      ],
      "stateMutability": "view",
      "type": "function"
    },
    {
      "inputs": [],
      "name": "getProjects",
      "outputs": [
        {
          "internalType": "contract Project[]",
          "name": "",
          "type": "address[]"
        }
      ],
      "stateMutability": "view",
      "type": "function"
    },
    {
      "inputs": [],
      "name": "getProjectsDeleted",
      "outputs": [
        {
          "internalType": "contract Project[]",
          "name": "",
          "type": "address[]"
        }
      ],
      "stateMutability": "view",
      "type": "function"
    },
    {
      "inputs": [],
      "name": "getProjectsNumber",
      "outputs": [
        {
          "internalType": "uint256",
          "name": "",
          "type": "uint256"
        }
      ],
      "stateMutability": "view",
      "type": "function"
    },
    {
      "inputs": [],
      "name": "getRacksPMOwner",
      "outputs": [
        {
          "internalType": "address",
          "name": "",
          "type": "address"
        }
      ],
      "stateMutability": "view",
      "type": "function"
    },
    {
      "inputs": [
        {
          "internalType": "bytes32",
          "name": "role",
          "type": "bytes32"
        }
      ],
      "name": "getRoleAdmin",
      "outputs": [
        {
          "internalType": "bytes32",
          "name": "",
          "type": "bytes32"
        }
      ],
      "stateMutability": "view",
      "type": "function"
    },
    {
      "inputs": [
        {
          "internalType": "bytes32",
          "name": "role",
          "type": "bytes32"
        },
        {
          "internalType": "address",
          "name": "account",
          "type": "address"
        }
      ],
      "name": "grantRole",
      "outputs": [],
      "stateMutability": "nonpayable",
      "type": "function"
    },
    {
      "inputs": [
        {
          "internalType": "bytes32",
          "name": "role",
          "type": "bytes32"
        },
        {
          "internalType": "address",
          "name": "account",
          "type": "address"
        }
      ],
      "name": "hasRole",
      "outputs": [
        {
          "internalType": "bool",
          "name": "",
          "type": "bool"
        }
      ],
      "stateMutability": "view",
      "type": "function"
    },
    {
      "inputs": [
        {
          "internalType": "address",
          "name": "_account",
          "type": "address"
        }
      ],
      "name": "isAdmin",
      "outputs": [
        {
          "internalType": "bool",
          "name": "",
          "type": "bool"
        }
      ],
      "stateMutability": "view",
      "type": "function"
    },
    {
      "inputs": [
        {
          "internalType": "address",
          "name": "_account",
          "type": "address"
        }
      ],
      "name": "isContributorBanned",
      "outputs": [
        {
          "internalType": "bool",
          "name": "",
          "type": "bool"
        }
      ],
      "stateMutability": "view",
      "type": "function"
    },
    {
      "inputs": [
        {
          "internalType": "address",
          "name": "_account",
          "type": "address"
        }
      ],
      "name": "isWalletContributor",
      "outputs": [
        {
          "internalType": "bool",
          "name": "",
          "type": "bool"
        }
      ],
      "stateMutability": "view",
      "type": "function"
    },
    {
      "inputs": [],
      "name": "owner",
      "outputs": [
        {
          "internalType": "address",
          "name": "",
          "type": "address"
        }
      ],
      "stateMutability": "view",
      "type": "function"
    },
    {
      "inputs": [],
      "name": "registerContributor",
      "outputs": [],
      "stateMutability": "nonpayable",
      "type": "function"
    },
    {
      "inputs": [
        {
          "internalType": "address",
          "name": "_account",
          "type": "address"
        }
      ],
      "name": "removeAdmin",
      "outputs": [],
      "stateMutability": "nonpayable",
      "type": "function"
    },
    {
      "inputs": [],
      "name": "renounceOwnership",
      "outputs": [],
      "stateMutability": "nonpayable",
      "type": "function"
    },
    {
      "inputs": [
        {
          "internalType": "bytes32",
          "name": "role",
          "type": "bytes32"
        },
        {
          "internalType": "address",
          "name": "account",
          "type": "address"
        }
      ],
      "name": "renounceRole",
      "outputs": [],
      "stateMutability": "nonpayable",
      "type": "function"
    },
    {
      "inputs": [
        {
          "internalType": "bytes32",
          "name": "role",
          "type": "bytes32"
        },
        {
          "internalType": "address",
          "name": "account",
          "type": "address"
        }
      ],
      "name": "revokeRole",
      "outputs": [],
      "stateMutability": "nonpayable",
      "type": "function"
    },
    {
      "inputs": [
        {
          "internalType": "address",
          "name": "_account",
          "type": "address"
        },
        {
          "components": [
            {
              "internalType": "address",
              "name": "wallet",
              "type": "address"
            },
            {
              "internalType": "uint256",
              "name": "reputationLevel",
              "type": "uint256"
            },
            {
              "internalType": "uint256",
              "name": "reputationPoints",
              "type": "uint256"
            },
            {
              "internalType": "bool",
              "name": "banned",
              "type": "bool"
            }
          ],
          "internalType": "struct Contributor",
          "name": "_newData",
          "type": "tuple"
        }
      ],
      "name": "setAccountToContributorData",
      "outputs": [],
      "stateMutability": "nonpayable",
      "type": "function"
    },
    {
      "inputs": [
        {
          "internalType": "address",
          "name": "_account",
          "type": "address"
        },
        {
          "internalType": "bool",
          "name": "_state",
          "type": "bool"
        }
      ],
      "name": "setContributorStateToBanList",
      "outputs": [],
      "stateMutability": "nonpayable",
      "type": "function"
    },
    {
      "inputs": [
        {
          "internalType": "address",
          "name": "_erc20",
          "type": "address"
        }
      ],
      "name": "setERC20Address",
      "outputs": [],
      "stateMutability": "nonpayable",
      "type": "function"
    },
    {
      "inputs": [
        {
          "internalType": "bool",
          "name": "_newPausedValue",
          "type": "bool"
        }
      ],
      "name": "setIsPaused",
      "outputs": [],
      "stateMutability": "nonpayable",
      "type": "function"
    },
    {
      "inputs": [
        {
          "internalType": "bytes4",
          "name": "interfaceId",
          "type": "bytes4"
        }
      ],
      "name": "supportsInterface",
      "outputs": [
        {
          "internalType": "bool",
          "name": "",
          "type": "bool"
        }
      ],
      "stateMutability": "view",
      "type": "function"
    },
    {
      "inputs": [
        {
          "internalType": "address",
          "name": "newOwner",
          "type": "address"
        }
      ],
      "name": "transferOwnership",
      "outputs": [],
      "stateMutability": "nonpayable",
      "type": "function"
    },
    {
      "inputs": [
        {
          "internalType": "address",
          "name": "_wallet",
          "type": "address"
        }
      ],
      "name": "withdrawAllFunds",
      "outputs": [],
      "stateMutability": "nonpayable",
      "type": "function"
    }
  ],
  "transactionHash": "0x49b93254de070efc6e31b7f509d1531ad23b470db9f1a2ea5e657ceae1b79996",
  "args": [
    "0xc0f6567a4a653d315d829f6d2b3535dce101cd72",
    "0x4e777b826fbD60453CE9701dE5328a45E3fF1d44"
  ],
  "numDeployments": 7,
  "solcInputHash": "3f98244d012c721853be418aacbad2e2",
  "bytecode": "0x60a06040523480156200001157600080fd5b5060405162005b8138038062005b81833981016040819052620000349162000169565b6200003f3362000081565b600280546001600160a01b0319166001600160a01b038316179055606082901b6001600160601b03191660805262000079600033620000d1565b5050620001c1565b600080546001600160a01b038381166001600160a01b0319831681178455604051919092169283917f8be0079c531659141344cd1fd0a4f28419497f9722a3daafe3b4186f6b6457e09190a35050565b620000dd8282620000e1565b5050565b60008281526001602090815260408083206001600160a01b038516845290915290205460ff16620000dd5760008281526001602081815260408084206001600160a01b0386168086529252808420805460ff19169093179092559051339285917f2f8788117e7eff1d82e926ec794901d17c78024a50270940304540a733656f0d9190a45050565b600080604083850312156200017d57600080fd5b82516200018a81620001a8565b60208401519092506200019d81620001a8565b809150509250929050565b6001600160a01b0381168114620001be57600080fd5b50565b60805160601c615985620001fc600039600081816104560152818161064201528181611040015281816112c4015261156801526159856000f3fe60806040523480156200001157600080fd5b5060043610620002315760003560e01c8063715018a61162000131578063cdc6c05a11620000bb578063dcc601281162000086578063dcc6012814620005b0578063de05d1d814620005ba578063f2a6f21514620005c4578063f2fde38b14620005d0578063f385e62f146200042257600080fd5b8063cdc6c05a146200056e578063d547741f1462000578578063d70ed498146200058f578063d753a54e146200059957600080fd5b8063ad961f1311620000fc578063ad961f131462000454578063bb4e37ff146200047b578063bd4fd7b31462000494578063c6f5b0e0146200055757600080fd5b8063715018a614620004185780638da5cb5b146200042257806391d148541462000434578063a217fddf146200044b57600080fd5b80632b6acf8a11620001bf57806341bec0d2116200018a57806341bec0d214620003965780634e87206014620003ad578063610a6a2a14620003d35780636e1989a014620003ea57806370480275146200040157600080fd5b80632b6acf8a14620003225780632f2ff15d146200035157806332dee40b146200036857806336568abe146200037f57600080fd5b8063240976bf1162000200578063240976bf14620002c3578063248a9ca314620002da57806324d7806c14620003015780632941b725146200031857600080fd5b806301ffc9a714620002365780630fa059f31462000262578063123091ae146200027b5780631785f53c14620002aa575b600080fd5b6200024d6200024736600462001fba565b620005e7565b60405190151581526020015b60405180910390f35b6200026c6200061f565b60405190815260200162000259565b6200024d6200028c36600462001e34565b6001600160a01b03166000908152600b602052604090205460ff1690565b620002c1620002bb36600462001e34565b62000703565b005b620002c1620002d436600462001f31565b62000749565b6200026c620002eb36600462001f71565b6000908152600160208190526040909120015490565b6200024d6200031236600462001e34565b62000787565b620002c162000795565b6200024d6200033336600462001e34565b6001600160a01b03166000908152600a602052604090205460ff1690565b620002c16200036236600462001f8b565b620007ba565b620002c16200037936600462001e34565b620007e9565b620002c16200039036600462001f8b565b62000a03565b620002c1620003a736600462001e34565b62000a81565b6002546001600160a01b03165b6040516001600160a01b03909116815260200162000259565b620002c1620003e436600462001fe6565b62000ace565b620002c1620003fb36600462001e52565b62000c58565b620002c16200041236600462001e34565b62000e76565b620002c162000eb0565b6000546001600160a01b0316620003ba565b6200024d6200044536600462001f8b565b62000eeb565b6200026c600081565b7f0000000000000000000000000000000000000000000000000000000000000000620003ba565b6200048562000f16565b6040516200025991906200215c565b62000518620004a536600462001e34565b60408051608080820183526000808352602080840182905283850182905260609384018290526001600160a01b039586168252600d815290849020845192830185528054909516825260018501549082015260028401549281019290925260039092015460ff1615159181019190915290565b60405162000259919081516001600160a01b03168152602080830151908201526040808301519082015260609182015115159181019190915260800190565b620005186200056836600462001f71565b62000f7a565b6200026c6200101d565b620002c16200058936600462001f8b565b620010fc565b6200048562001126565b620002c1620005aa36600462001e8e565b62001219565b62000485620012a1565b620002c162001550565b60045460ff166200024d565b620002c1620005e136600462001e34565b62001772565b60006001600160e01b03198216637965db0b60e01b14806200061957506301ffc9a760e01b6001600160e01b03198316145b92915050565b6040516370a0823160e01b81523360048201526000906001906001600160a01b037f000000000000000000000000000000000000000000000000000000000000000016906370a082319060240160206040518083038186803b1580156200068557600080fd5b505afa1580156200069a573d6000803e3d6000fd5b505050506040513d601f19601f82011682018060405250810190620006c091906200209b565b108015620006d85750620006d660003362000eeb565b155b15620006f757604051630e4316e360e01b815260040160405180910390fd5b5060065490565b905090565b6000546001600160a01b03163314620007395760405162461bcd60e51b815260040162000730906200222f565b60405180910390fd5b62000746600082620010fc565b50565b6200075660003362000eeb565b620007745760405163f2ccaea160e01b815260040160405180910390fd5b6004805460ff1916911515919091179055565b600062000619818362000eeb565b336000908152600c602052604081208054919055620007b660068262001811565b5050565b60008281526001602081905260409091200154620007d881620018b4565b620007e48383620018c0565b505050565b6000546001600160a01b03163314620008165760405162461bcd60e51b815260040162000730906200222f565b60045460ff16156200083b57604051635e0ff51760e01b815260040160405180910390fd5b6002546040516370a0823160e01b81523060048201526000916001600160a01b0316906370a082319060240160206040518083038186803b1580156200088057600080fd5b505afa15801562000895573d6000803e3d6000fd5b505050506040513d601f19601f82011682018060405250810190620008bb91906200209b565b11620008da57604051630eecc76760e21b815260040160405180910390fd5b6002546040516370a0823160e01b81523060048201526001600160a01b039091169063a9059cbb90839083906370a082319060240160206040518083038186803b1580156200092857600080fd5b505afa1580156200093d573d6000803e3d6000fd5b505050506040513d601f19601f820116820180604052508101906200096391906200209b565b6040516001600160e01b031960e085901b1681526001600160a01b0390921660048301526024820152604401602060405180830381600087803b158015620009aa57600080fd5b505af1158015620009bf573d6000803e3d6000fd5b505050506040513d601f19601f82011682018060405250810190620009e5919062001f51565b620007465760405163c145dbb160e01b815260040160405180910390fd5b6001600160a01b038116331462000a755760405162461bcd60e51b815260206004820152602f60248201527f416363657373436f6e74726f6c3a2063616e206f6e6c792072656e6f756e636560448201526e103937b632b9903337b91039b2b63360891b606482015260840162000730565b620007b682826200192e565b62000a8e60003362000eeb565b62000aac5760405163f2ccaea160e01b815260040160405180910390fd5b600280546001600160a01b0319166001600160a01b0392909216919091179055565b62000adb60003362000eeb565b62000af95760405163f2ccaea160e01b815260040160405180910390fd5b60045460ff161562000b1e57604051635e0ff51760e01b815260040160405180910390fd5b82158062000b2a575081155b8062000b34575080155b8062000b3f57508351155b1562000b5e57604051637d7469fd60e01b815260040160405180910390fd5b6000308585858560405162000b739062001e09565b62000b83959493929190620021ab565b604051809103906000f08015801562000ba0573d6000803e3d6000fd5b5060058054919250600062000bb58362002338565b909155505060058054600090815260086020908152604080832080546001600160a01b0319166001600160a01b0387169081179091559354938352600c909152902081905562000c089060069062001998565b5062000c16600082620019af565b7fe5fa4b83d53d02837558550b56d2dc3cfdda3e2e3bfad34cb78b26a543235017858260405162000c4992919062002203565b60405180910390a15050505050565b62000c6560003362000eeb565b62000c835760405163f2ccaea160e01b815260040160405180910390fd5b6001600160a01b0382166000908152600b60205260409020805460ff191682151590811790915560011415620007b65760008062000cc3600682620019bb565b915091505b801580159062000cd55750815b1562000e705760008181526008602090815260409182902054825163fba7cc7960e01b815292516001600160a01b0390911692839263fba7cc7992600480840193829003018186803b15801562000d2b57600080fd5b505afa15801562000d40573d6000803e3d6000fd5b505050506040513d601f19601f8201168201806040525081019062000d66919062001f51565b801562000deb57506040516308827fb760e31b81526001600160a01b038681166004830152821690634413fdb89060240160206040518083038186803b15801562000db057600080fd5b505afa15801562000dc5573d6000803e3d6000fd5b505050506040513d601f19601f8201168201806040525081019062000deb919062001f51565b1562000e5657604051631ff37f3b60e21b81526001600160a01b03868116600483015260006024830152821690637fcdfcec90604401600060405180830381600087803b15801562000e3c57600080fd5b505af115801562000e51573d6000803e3d6000fd5b505050505b62000e63600683620019bb565b909350915062000cc89050565b50505050565b6000546001600160a01b0316331462000ea35760405162461bcd60e51b815260040162000730906200222f565b62000746600082620007ba565b6000546001600160a01b0316331462000edd5760405162461bcd60e51b815260040162000730906200222f565b62000ee96000620019d7565b565b60009182526001602090815260408084206001600160a01b0393909316845291905290205460ff1690565b6060600980548060200260200160405190810160405280929190818152602001828054801562000f7057602002820191906000526020600020905b81546001600160a01b0316815260019091019060200180831162000f51575b5050505050905090565b604080516080810182526000808252602082018190529181018290526060810191909152600d60006003848154811062000fb85762000fb86200236c565b60009182526020808320909101546001600160a01b0390811684528382019490945260409283019091208251608081018452815490941684526001810154918401919091526002810154918301919091526003015460ff161515606082015292915050565b6040516370a0823160e01b81523360048201526000906001906001600160a01b037f000000000000000000000000000000000000000000000000000000000000000016906370a082319060240160206040518083038186803b1580156200108357600080fd5b505afa15801562001098573d6000803e3d6000fd5b505050506040513d601f19601f82011682018060405250810190620010be91906200209b565b108015620010d65750620010d460003362000eeb565b155b15620010f557604051630e4316e360e01b815260040160405180910390fd5b5060035490565b600082815260016020819052604090912001546200111a81620018b4565b620007e483836200192e565b6060600060055467ffffffffffffffff81111562001148576200114862002382565b60405190808252806020026020018201604052801562001172578160200160208202803683370190505b5090506000808062001186600682620019bb565b915091505b8015801590620011985750815b15620012105760008181526008602052604090205484516001600160a01b0390911690859085908110620011d057620011d06200236c565b6001600160a01b039092166020928302919091019091015282620011f48162002338565b9350620012059050600682620019bb565b90925090506200118b565b50919392505050565b6200122660003362000eeb565b620012445760405163f2ccaea160e01b815260040160405180910390fd5b6001600160a01b039182166000908152600d6020908152604091829020835181546001600160a01b031916951694909417845582015160018401558101516002830155606001516003909101805460ff1916911515919091179055565b6040516370a0823160e01b81523360048201526060906001906001600160a01b037f000000000000000000000000000000000000000000000000000000000000000016906370a082319060240160206040518083038186803b1580156200130757600080fd5b505afa1580156200131c573d6000803e3d6000fd5b505050506040513d601f19601f820116820180604052508101906200134291906200209b565b1080156200135a57506200135860003362000eeb565b155b156200137957604051630e4316e360e01b815260040160405180910390fd5b6200138660003362000eeb565b156200139657620006fe62001126565b6000620013a260065490565b67ffffffffffffffff811115620013bd57620013bd62002382565b604051908082528060200260200182016040528015620013e7578160200160208202803683370190505b50336000908152600a60205260408120549192509060ff166200140c57600162001420565b336000908152600d60205260409020600101545b90506000808062001433600682620019bb565b915091505b8015801590620014455750815b156200154657600081815260086020908152604091829020548251634da9e84960e01b8152925187936001600160a01b0390921692634da9e8499260048082019391829003018186803b1580156200149c57600080fd5b505afa158015620014b1573d6000803e3d6000fd5b505050506040513d601f19601f82011682018060405250810190620014d791906200209b565b116200152e5760008181526008602052604090205485516001600160a01b03909116908690859081106200150f576200150f6200236c565b6001600160a01b03909216602092830291909101909101526001909201915b6200153b600682620019bb565b909250905062001438565b5092935050505090565b6040516370a0823160e01b81523360048201526001907f00000000000000000000000000000000000000000000000000000000000000006001600160a01b0316906370a082319060240160206040518083038186803b158015620015b357600080fd5b505afa158015620015c8573d6000803e3d6000fd5b505050506040513d601f19601f82011682018060405250810190620015ee91906200209b565b1080156200160657506200160460003362000eeb565b155b156200162557604051630e4316e360e01b815260040160405180910390fd5b60045460ff16156200164a57604051635e0ff51760e01b815260040160405180910390fd5b336000908152600a602052604090205460ff16156200167b57604051623e263360e61b815260040160405180910390fd5b60038054600180820183557fc2575a0e9e593c00f959f8c92f12db2869c3395a3b0502d05e2516446f71f85b9091018054336001600160a01b031991821681179092556000828152600a60209081526040808320805460ff199081168817909155815160808101835286815280840188815281840186815260608301878152898852600d875296859020925183549098166001600160a01b03909816979097178255519781019790975593516002870155915194909501805490921693151593909317905590519081527f8f444dc6f9b291701e8d4ae03fbb8cb1ce697ddbac3e0969f391589c23523758910160405180910390a1565b6000546001600160a01b031633146200179f5760405162461bcd60e51b815260040162000730906200222f565b6001600160a01b038116620018065760405162461bcd60e51b815260206004820152602660248201527f4f776e61626c653a206e6577206f776e657220697320746865207a65726f206160448201526564647265737360d01b606482015260840162000730565b6200074681620019d7565b60008115806200182a575062001828838362001a27565b155b15620018395750600062000619565b6000828152600184810160209081526040808420848052909152808320548284529220546200186d92869290919062001ab1565b60008281526001848101602090815260408084208480529091528083208390558183528220829055845490918591620018a8908490620022d5565b90915550919392505050565b62000746813362001ae6565b620018cc828262000eeb565b620007b65760008281526001602081815260408084206001600160a01b0386168086529252808420805460ff19169093179092559051339285917f2f8788117e7eff1d82e926ec794901d17c78024a50270940304540a733656f0d9190a45050565b6200193a828262000eeb565b15620007b65760008281526001602090815260408083206001600160a01b0385168085529252808320805460ff1916905551339285917ff6391f5c32d9c69d2a47ea670b442974b53935d1edc7fd64eb21e047a839171b9190a45050565b6000620019a88383600162001b55565b9392505050565b620007b68282620018c0565b600080620019cc8484600162001b6e565b915091509250929050565b600080546001600160a01b038381166001600160a01b0319831681178455604051919092169283917f8be0079c531659141344cd1fd0a4f28419497f9722a3daafe3b4186f6b6457e09190a35050565b6000818152600183016020908152604080832083805290915281205415801562001a6b57506000828152600180850160209081526040808420928452919052902054155b1562001aa857600080805260018085016020908152604080842092845291905290205482141562001a9f5750600162000619565b50600062000619565b50600162000619565b600082815260019094016020818152604080872093158088529382528087208690559486529081528385209115855252912055565b62001af2828262000eeb565b620007b65762001b0d816001600160a01b0316601462001bb9565b62001b1a83602062001bb9565b60405160200162001b2d929190620020e3565b60408051601f198184030181529082905262461bcd60e51b82526200073091600401620021ee565b600062001b66846000858562001d73565b949350505050565b60008062001b7d858562001a27565b62001b8e5750600090508062001bb1565b505060008281526001848101602090815260408084208515158552909152909120545b935093915050565b6060600062001bca836002620022b3565b62001bd790600262002298565b67ffffffffffffffff81111562001bf25762001bf262002382565b6040519080825280601f01601f19166020018201604052801562001c1d576020820181803683370190505b509050600360fc1b8160008151811062001c3b5762001c3b6200236c565b60200101906001600160f81b031916908160001a905350600f60fb1b8160018151811062001c6d5762001c6d6200236c565b60200101906001600160f81b031916908160001a905350600062001c93846002620022b3565b62001ca090600162002298565b90505b600181111562001d22576f181899199a1a9b1b9c1cb0b131b232b360811b85600f166010811062001cd85762001cd86200236c565b1a60f81b82828151811062001cf15762001cf16200236c565b60200101906001600160f81b031916908160001a90535060049490941c9362001d1a816200231e565b905062001ca3565b508315620019a85760405162461bcd60e51b815260206004820181905260248201527f537472696e67733a20686578206c656e67746820696e73756666696369656e74604482015260640162000730565b600062001d81858462001a27565b15801562001d96575062001d96858562001a27565b1562001dfe5760008481526001860160209081526040808320851515845290915290205462001dc88686868662001ab1565b62001dd68685838662001ab1565b600186600001600082825462001ded919062002298565b909155506001925062001b66915050565b506000949350505050565b6135a880620023a883390190565b80356001600160a01b038116811462001e2f57600080fd5b919050565b60006020828403121562001e4757600080fd5b620019a88262001e17565b6000806040838503121562001e6657600080fd5b62001e718362001e17565b9150602083013562001e838162002398565b809150509250929050565b60008082840360a081121562001ea357600080fd5b62001eae8462001e17565b92506080601f198201121562001ec357600080fd5b506040516080810181811067ffffffffffffffff8211171562001eea5762001eea62002382565b60405262001efb6020850162001e17565b81526040840135602082015260608401356040820152608084013562001f218162002398565b6060820152919491935090915050565b60006020828403121562001f4457600080fd5b8135620019a88162002398565b60006020828403121562001f6457600080fd5b8151620019a88162002398565b60006020828403121562001f8457600080fd5b5035919050565b6000806040838503121562001f9f57600080fd5b8235915062001fb16020840162001e17565b90509250929050565b60006020828403121562001fcd57600080fd5b81356001600160e01b031981168114620019a857600080fd5b6000806000806080858703121562001ffd57600080fd5b843567ffffffffffffffff808211156200201657600080fd5b818701915087601f8301126200202b57600080fd5b813560208282111562002042576200204262002382565b62002056601f8301601f1916820162002264565b925081835289818386010111156200206d57600080fd5b8181850182850137600091830181019190915290989087013597506040870135966060013595509350505050565b600060208284031215620020ae57600080fd5b5051919050565b60008151808452620020cf816020860160208601620022ef565b601f01601f19169290920160200192915050565b7f416363657373436f6e74726f6c3a206163636f756e74200000000000000000008152600083516200211d816017850160208801620022ef565b7001034b99036b4b9b9b4b733903937b6329607d1b601791840191820152835162002150816028840160208801620022ef565b01602801949350505050565b6020808252825182820181905260009190848201906040850190845b818110156200219f5783516001600160a01b03168352928401929184019160010162002178565b50909695505050505050565b6001600160a01b038616815260a060208201819052600090620021d190830187620020b5565b604083019590955250606081019290925260809091015292915050565b602081526000620019a86020830184620020b5565b604081526000620022186040830185620020b5565b905060018060a01b03831660208301529392505050565b6020808252818101527f4f776e61626c653a2063616c6c6572206973206e6f7420746865206f776e6572604082015260600190565b604051601f8201601f1916810167ffffffffffffffff8111828210171562002290576200229062002382565b604052919050565b60008219821115620022ae57620022ae62002356565b500190565b6000816000190483118215151615620022d057620022d062002356565b500290565b600082821015620022ea57620022ea62002356565b500390565b60005b838110156200230c578181015183820152602001620022f2565b8381111562000e705750506000910152565b60008162002330576200233062002356565b506000190190565b60006000198214156200234f576200234f62002356565b5060010190565b634e487b7160e01b600052601160045260246000fd5b634e487b7160e01b600052603260045260246000fd5b634e487b7160e01b600052604160045260246000fd5b80151581146200074657600080fdfe60c060405260006004553480156200001657600080fd5b50604051620035a8380380620035a8833981016040819052620000399162000391565b6200004433620001dc565b82158062000050575081155b806200005a575080155b806200006557508351155b156200008457604051637d7469fd60e01b815260040160405180910390fd5b6001600160601b0319606086901b166080528351620000ab906008906020870190620002c4565b506009839055600a829055600b819055620000c86000336200022c565b6200014b6000801b866001600160a01b031663f385e62f6040518163ffffffff1660e01b815260040160206040518083038186803b1580156200010a57600080fd5b505afa1580156200011f573d6000803e3d6000fd5b505050506040513d601f19601f820116820180604052508101906200014591906200036a565b6200022c565b846001600160a01b0316634e8720606040518163ffffffff1660e01b815260040160206040518083038186803b1580156200018557600080fd5b505afa1580156200019a573d6000803e3d6000fd5b505050506040513d601f19601f82011682018060405250810190620001c091906200036a565b60601b6001600160601b03191660a052506200050b9350505050565b600080546001600160a01b038381166001600160a01b0319831681178455604051919092169283917f8be0079c531659141344cd1fd0a4f28419497f9722a3daafe3b4186f6b6457e09190a35050565b6200023882826200023c565b5050565b60008281526001602090815260408083206001600160a01b038516845290915290205460ff16620002385760008281526001602081815260408084206001600160a01b0386168086529252808420805460ff19169093179092559051339285917f2f8788117e7eff1d82e926ec794901d17c78024a50270940304540a733656f0d9190a45050565b828054620002d2906200049f565b90600052602060002090601f016020900481019282620002f6576000855562000341565b82601f106200031157805160ff191683800117855562000341565b8280016001018555821562000341579182015b828111156200034157825182559160200191906001019062000324565b506200034f92915062000353565b5090565b5b808211156200034f576000815560010162000354565b6000602082840312156200037d57600080fd5b81516200038a81620004f2565b9392505050565b600080600080600060a08688031215620003aa57600080fd5b8551620003b781620004f2565b602087810151919650906001600160401b0380821115620003d757600080fd5b818901915089601f830112620003ec57600080fd5b815181811115620004015762000401620004dc565b604051601f8201601f19908116603f011681019083821181831017156200042c576200042c620004dc565b816040528281528c868487010111156200044557600080fd5b600093505b828410156200046957848401860151818501870152928501926200044a565b828411156200047b5760008684830101525b60408c015160608d01516080909d01519b9e919d509b9a9950975050505050505050565b600181811c90821680620004b457607f821691505b60208210811415620004d657634e487b7160e01b600052602260045260246000fd5b50919050565b634e487b7160e01b600052604160045260246000fd5b6001600160a01b03811681146200050857600080fd5b50565b60805160601c60a05160601c612ffa620005ae60003960008181610e3501528181611266015281816113380152818161155d015281816121a201528181612246015261229a01526000818161086d0152818161099e01528181610a7701528181610bc701528181610c6d01528181610f3b015281816111b40152818161164d0152818161182b0152818161198a01528181611ade0152611dc20152612ffa6000f3fe6080604052600436106101fd5760003560e01c80638c3944531161010d578063cdc6c05a116100a0578063e91f760f1161006f578063e91f760f146105c1578063f2fde38b146105e1578063f7723f8114610601578063fa391c6414610616578063fba7cc791461062b57600080fd5b8063cdc6c05a14610557578063d0c433d31461056c578063d547741f14610581578063d85f5f97146105a157600080fd5b80639710ce0f116100dc5780639710ce0f146104ed578063a217fddf14610502578063b612414314610517578063c47f00271461053757600080fd5b80638c394453146104705780638da5cb5b146104855780638df8be65146104ad57806391d14854146104cd57600080fd5b806336568abe11610190578063606aead41161015f578063606aead4146103db57806370480275146103fb578063715018a61461041b5780637fcdfcec14610430578063838e5e621461045057600080fd5b806336568abe1461035957806342bb32fa146103795780634413fdb81461038e5780634da9e849146103c657600080fd5b806317d7de7c116101cc57806317d7de7c146102d1578063248a9ca3146102f35780632941b725146103245780632f2ff15d1461033957600080fd5b806301ffc9a7146102095780630ff4c9161461023e57806311f244f71461026b5780631785f53c146102af57600080fd5b3661020457005b600080fd5b34801561021557600080fd5b50610229610224366004612a00565b610640565b60405190151581526020015b60405180910390f35b34801561024a57600080fd5b5061025e6102593660046129c2565b610651565b6040516102359190612dd7565b34801561027757600080fd5b506102a161028636600461294f565b6001600160a01b031660009081526007602052604090205490565b604051908152602001610235565b3480156102bb57600080fd5b506102cf6102ca36600461294f565b6106c2565b005b3480156102dd57600080fd5b506102e661073b565b6040516102359190612d6f565b3480156102ff57600080fd5b506102a161030e3660046129c2565b6000908152600160208190526040909120015490565b34801561033057600080fd5b506102cf6107cd565b34801561034557600080fd5b506102cf6103543660046129db565b6108e0565b34801561036557600080fd5b506102cf6103743660046129db565b61090b565b34801561038557600080fd5b506102cf610989565b34801561039a57600080fd5b506102296103a936600461294f565b6001600160a01b0316600090815260066020526040902054151590565b3480156103d257600080fd5b50600a546102a1565b3480156103e757600080fd5b506102cf6103f6366004612b4d565b610ed9565b34801561040757600080fd5b506102cf61041636600461294f565b6113c8565b34801561042757600080fd5b506102cf611435565b34801561043c57600080fd5b506102cf61044b36600461296c565b61146b565b34801561045c57600080fd5b506102cf61046b3660046129c2565b6115f9565b34801561047c57600080fd5b50610229611758565b34801561049157600080fd5b506000546040516001600160a01b039091168152602001610235565b3480156104b957600080fd5b5061025e6104c83660046129c2565b61177a565b3480156104d957600080fd5b506102296104e83660046129db565b6117ac565b3480156104f957600080fd5b506009546102a1565b34801561050e57600080fd5b506102a1600081565b34801561052357600080fd5b506102cf6105323660046129c2565b6117d7565b34801561054357600080fd5b506102cf610552366004612a2a565b611936565b34801561056357600080fd5b506102a1611aa4565b34801561057857600080fd5b506102cf611ab4565b34801561058d57600080fd5b506102cf61059c3660046129db565b611cee565b3480156105ad57600080fd5b506102cf6105bc366004612c21565b611d14565b3480156105cd57600080fd5b506102cf6105dc3660046129c2565b611d6e565b3480156105ed57600080fd5b506102cf6105fc36600461294f565b611ecd565b34801561060d57600080fd5b50600b546102a1565b34801561062257600080fd5b50610229611f65565b34801561063757600080fd5b50610229611f6e565b600061064b82611f76565b92915050565b6040805160808082018352600080835260208084018290528385018290526060938401829052948152600585528390208351918201845280546001600160a01b0316825260018101549482019490945260028401549281019290925260039092015460ff1615159181019190915290565b6000546001600160a01b031633146106f55760405162461bcd60e51b81526004016106ec90612da2565b60405180910390fd5b6002600c5460ff16600281111561070e5761070e612f5f565b141561072d57604051639edec15160e01b815260040160405180910390fd5b610738600082611cee565b50565b60606008805461074a90612ef3565b80601f016020809104026020016040519081016040528092919081815260200182805461077690612ef3565b80156107c35780601f10610798576101008083540402835291602001916107c3565b820191906000526020600020905b8154815290600101906020018083116107a657829003601f168201915b5050505050905090565b6107d86000336117ac565b6107f55760405163f2ccaea160e01b815260040160405180910390fd5b6002600c5460ff16600281111561080e5761080e612f5f565b141561082d57604051639edec15160e01b815260040160405180910390fd5b600061083860025490565b11156108575760405163175208ef60e21b815260040160405180910390fd5b600c80546002919060ff191660018302179055507f00000000000000000000000000000000000000000000000000000000000000006001600160a01b0316632941b7256040518163ffffffff1660e01b8152600401600060405180830381600087803b1580156108c657600080fd5b505af11580156108da573d6000803e3d6000fd5b50505050565b600082815260016020819052604090912001546108fc81611fab565b6109068383611fb5565b505050565b6001600160a01b038116331461097b5760405162461bcd60e51b815260206004820152602f60248201527f416363657373436f6e74726f6c3a2063616e206f6e6c792072656e6f756e636560448201526e103937b632b9903337b91039b2b63360891b60648201526084016106ec565b6109858282612020565b5050565b6040516315b567c560e11b81523360048201527f00000000000000000000000000000000000000000000000000000000000000006001600160a01b031690632b6acf8a9060240160206040518083038186803b1580156109e857600080fd5b505afa1580156109fc573d6000803e3d6000fd5b505050506040513d601f19601f82011682018060405250810190610a2091906129a5565b610a3d576040516389eb8ec360e01b815260040160405180910390fd5b6001600c5460ff166002811115610a5657610a56612f5f565b1415610a7557604051631305bef760e11b815260040160405180910390fd5b7f00000000000000000000000000000000000000000000000000000000000000006001600160a01b031663f2a6f2156040518163ffffffff1660e01b815260040160206040518083038186803b158015610ace57600080fd5b505afa158015610ae2573d6000803e3d6000fd5b505050506040513d601f19601f82011682018060405250810190610b0691906129a5565b15610b2457604051635e0ff51760e01b815260040160405180910390fd5b6002600c5460ff166002811115610b3d57610b3d612f5f565b1415610b5c57604051639edec15160e01b815260040160405180910390fd5b3360009081526006602052604090205415610b8a57604051637e63c82d60e11b815260040160405180910390fd5b600b546002541415610baf57604051633f538f0360e11b815260040160405180910390fd5b60405163bd4fd7b360e01b81523360048201526000907f00000000000000000000000000000000000000000000000000000000000000006001600160a01b03169063bd4fd7b39060240160806040518083038186803b158015610c1157600080fd5b505afa158015610c25573d6000803e3d6000fd5b505050506040513d601f19601f82011682018060405250810190610c499190612abf565b805160405163091848d760e11b81526001600160a01b0391821660048201529192507f0000000000000000000000000000000000000000000000000000000000000000169063123091ae9060240160206040518083038186803b158015610caf57600080fd5b505afa158015610cc3573d6000803e3d6000fd5b505050506040513d601f19601f82011682018060405250810190610ce791906129a5565b15610d055760405163022a8d2b60e51b815260040160405180910390fd5b600a5481602001511015610d2c57604051630622fed760e41b815260040160405180910390fd5b60048054906000610d3c83612f2e565b909155505060048054600090815260056020908152604091829020845181546001600160a01b0319166001600160a01b039091161781559084015160018201559083015160028083019190915560608401516003909201805460ff1916921515929092179091559054610daf9190612087565b5060045481516001600160a01b031660009081526006602090815260409182902092909255805130815233928101929092527fb2c403c260948e14f478d9c656d65ea064871e2ada0ec4f47a4a9523791e8d36910160405180910390a16009546040516323b872dd60e01b815233600482015230602482015260448101919091526000907f00000000000000000000000000000000000000000000000000000000000000006001600160a01b0316906323b872dd90606401602060405180830381600087803b158015610e8157600080fd5b505af1158015610e95573d6000803e3d6000fd5b505050506040513d601f19601f82011682018060405250810190610eb991906129a5565b9050806109855760405163c145dbb160e01b815260040160405180910390fd5b610ee46000336117ac565b610f015760405163f2ccaea160e01b815260040160405180910390fd5b6001600c5460ff166002811115610f1a57610f1a612f5f565b1415610f3957604051631305bef760e11b815260040160405180910390fd5b7f00000000000000000000000000000000000000000000000000000000000000006001600160a01b031663f2a6f2156040518163ffffffff1660e01b815260040160206040518083038186803b158015610f9257600080fd5b505afa158015610fa6573d6000803e3d6000fd5b505050506040513d601f19601f82011682018060405250810190610fca91906129a5565b15610fe857604051635e0ff51760e01b815260040160405180910390fd5b6002600c5460ff16600281111561100157611001612f5f565b141561102057604051639edec15160e01b815260040160405180910390fd5b8215806110305750600254825114155b8061103e5750600254815114155b1561105c57604051637d7469fd60e01b815260040160405180910390fd5b600c805460ff191660011790556000805b8351811015611133576110b084828151811061108b5761108b612f75565b60200260200101516001600160a01b0316600090815260066020526040902054151590565b6110cd576040516389eb8ec360e01b815260040160405180910390fd5b60008382815181106110e1576110e1612f75565b60200260200101519050806007600087858151811061110257611102612f75565b6020908102919091018101516001600160a01b0316825281019190915260400160002055919091019060010161106d565b50606481111561115657604051637d7469fd60e01b815260040160405180910390fd5b60008061116460028261209c565b915091505b80158015906111755750815b1561131e57600061118582610651565b516001600160a01b0381166000908152600760205260409020549091506064908802046111b281846120b6565b7f00000000000000000000000000000000000000000000000000000000000000006001600160a01b031663d753a54e836111eb86610651565b6040518363ffffffff1660e01b8152600401611208929190612d29565b600060405180830381600087803b15801561122257600080fd5b505af1158015611236573d6000803e3d6000fd5b505060095460405163a9059cbb60e01b81526001600160a01b0386811660048301526024820192909252600093507f0000000000000000000000000000000000000000000000000000000000000000909116915063a9059cbb90604401602060405180830381600087803b1580156112ad57600080fd5b505af11580156112c1573d6000803e3d6000fd5b505050506040513d601f19601f820116820180604052508101906112e591906129a5565b9050806113055760405163c145dbb160e01b815260040160405180910390fd5b61131060028561209c565b909550935061116992505050565b50506040516370a0823160e01b81523060048201526000907f00000000000000000000000000000000000000000000000000000000000000006001600160a01b0316906370a082319060240160206040518083038186803b15801561138257600080fd5b505afa158015611396573d6000803e3d6000fd5b505050506040513d601f19601f820116820180604052508101906113ba9190612b34565b11156108da576108da612162565b6000546001600160a01b031633146113f25760405162461bcd60e51b81526004016106ec90612da2565b6002600c5460ff16600281111561140b5761140b612f5f565b141561142a57604051639edec15160e01b815260040160405180910390fd5b6107386000826108e0565b6000546001600160a01b0316331461145f5760405162461bcd60e51b81526004016106ec90612da2565b61146960006123ba565b565b6114766000336117ac565b6114935760405163f2ccaea160e01b815260040160405180910390fd5b6002600c5460ff1660028111156114ac576114ac612f5f565b14156114cb57604051639edec15160e01b815260040160405180910390fd5b6001600160a01b038216600090815260066020526040902054611501576040516389eb8ec360e01b815260040160405180910390fd5b6001600160a01b0382166000908152600660205260408120805491905561152960028261240a565b5081156109065760095460405163a9059cbb60e01b81526001600160a01b03858116600483015260248201929092526000917f0000000000000000000000000000000000000000000000000000000000000000169063a9059cbb90604401602060405180830381600087803b1580156115a157600080fd5b505af11580156115b5573d6000803e3d6000fd5b505050506040513d601f19601f820116820180604052508101906115d991906129a5565b9050806108da5760405163c145dbb160e01b815260040160405180910390fd5b6116046000336117ac565b6116215760405163f2ccaea160e01b815260040160405180910390fd5b600061162c60025490565b111561164b5760405163175208ef60e21b815260040160405180910390fd5b7f00000000000000000000000000000000000000000000000000000000000000006001600160a01b031663f2a6f2156040518163ffffffff1660e01b815260040160206040518083038186803b1580156116a457600080fd5b505afa1580156116b8573d6000803e3d6000fd5b505050506040513d601f19601f820116820180604052508101906116dc91906129a5565b156116fa57604051635e0ff51760e01b815260040160405180910390fd5b6002600c5460ff16600281111561171357611713612f5f565b141561173257604051639edec15160e01b815260040160405180910390fd5b6000811161175357604051637d7469fd60e01b815260040160405180910390fd5b600955565b600060025b600c5460ff16600281111561177457611774612f5f565b14905090565b60408051608081018252600080825260208201819052918101829052606081019190915261064b610259836001612e62565b60009182526001602090815260408084206001600160a01b0393909316845291905290205460ff1690565b6117e26000336117ac565b6117ff5760405163f2ccaea160e01b815260040160405180910390fd5b600061180a60025490565b11156118295760405163175208ef60e21b815260040160405180910390fd5b7f00000000000000000000000000000000000000000000000000000000000000006001600160a01b031663f2a6f2156040518163ffffffff1660e01b815260040160206040518083038186803b15801561188257600080fd5b505afa158015611896573d6000803e3d6000fd5b505050506040513d601f19601f820116820180604052508101906118ba91906129a5565b156118d857604051635e0ff51760e01b815260040160405180910390fd5b6002600c5460ff1660028111156118f1576118f1612f5f565b141561191057604051639edec15160e01b815260040160405180910390fd5b6000811161193157604051637d7469fd60e01b815260040160405180910390fd5b600a55565b6119416000336117ac565b61195e5760405163f2ccaea160e01b815260040160405180910390fd5b600061196960025490565b11156119885760405163175208ef60e21b815260040160405180910390fd5b7f00000000000000000000000000000000000000000000000000000000000000006001600160a01b031663f2a6f2156040518163ffffffff1660e01b815260040160206040518083038186803b1580156119e157600080fd5b505afa1580156119f5573d6000803e3d6000fd5b505050506040513d601f19601f82011682018060405250810190611a1991906129a5565b15611a3757604051635e0ff51760e01b815260040160405180910390fd5b6002600c5460ff166002811115611a5057611a50612f5f565b1415611a6f57604051639edec15160e01b815260040160405180910390fd5b6000815111611a9157604051637d7469fd60e01b815260040160405180910390fd5b8051610985906008906020840190612844565b6000611aaf60025490565b905090565b611abf6000336117ac565b611adc5760405163f2ccaea160e01b815260040160405180910390fd5b7f00000000000000000000000000000000000000000000000000000000000000006001600160a01b031663f2a6f2156040518163ffffffff1660e01b815260040160206040518083038186803b158015611b3557600080fd5b505afa158015611b49573d6000803e3d6000fd5b505050506040513d601f19601f82011682018060405250810190611b6d91906129a5565b15611b8b57604051635e0ff51760e01b815260040160405180910390fd5b6002600c5460ff166002811115611ba457611ba4612f5f565b1415611bc357604051639edec15160e01b815260040160405180910390fd5b6001600c5460ff166002811115611bdc57611bdc612f5f565b14611bfa57604051634342f06d60e01b815260040160405180910390fd5b60004711611c1b57604051633868d38360e01b815260040160405180910390fd5b47600080611c2a60028261209c565b915091505b8015801590611c3b5750815b15610906576000611c4b82610651565b516001600160a01b0381166000818152600760205260408120549293509160649087020460405160006040518083038185875af1925050503d8060008114611caf576040519150601f19603f3d011682016040523d82523d6000602084013e611cb4565b606091505b5050905080611cd65760405163169940fd60e21b815260040160405180910390fd5b611ce160028461209c565b9094509250611c2f915050565b60008281526001602081905260409091200154611d0a81611fab565b6109068383612020565b600091825260056020908152604092839020825181546001600160a01b0319166001600160a01b03909116178155908201516001820155918101516002830155606001516003909101805460ff1916911515919091179055565b611d796000336117ac565b611d965760405163f2ccaea160e01b815260040160405180910390fd5b6000611da160025490565b1115611dc05760405163175208ef60e21b815260040160405180910390fd5b7f00000000000000000000000000000000000000000000000000000000000000006001600160a01b031663f2a6f2156040518163ffffffff1660e01b815260040160206040518083038186803b158015611e1957600080fd5b505afa158015611e2d573d6000803e3d6000fd5b505050506040513d601f19601f82011682018060405250810190611e5191906129a5565b15611e6f57604051635e0ff51760e01b815260040160405180910390fd5b6002600c5460ff166002811115611e8857611e88612f5f565b1415611ea757604051639edec15160e01b815260040160405180910390fd5b60008111611ec857604051637d7469fd60e01b815260040160405180910390fd5b600b55565b6000546001600160a01b03163314611ef75760405162461bcd60e51b81526004016106ec90612da2565b6001600160a01b038116611f5c5760405162461bcd60e51b815260206004820152602660248201527f4f776e61626c653a206e6577206f776e657220697320746865207a65726f206160448201526564647265737360d01b60648201526084016106ec565b610738816123ba565b6000600161175d565b60008061175d565b60006001600160e01b03198216637965db0b60e01b148061064b57506301ffc9a760e01b6001600160e01b031983161461064b565b61073881336124a4565b611fbf82826117ac565b6109855760008281526001602081815260408084206001600160a01b0386168086529252808420805460ff19169093179092559051339285917f2f8788117e7eff1d82e926ec794901d17c78024a50270940304540a733656f0d9190a45050565b61202a82826117ac565b156109855760008281526001602090815260408083206001600160a01b0385168085529252808320805460ff1916905551339285917ff6391f5c32d9c69d2a47ea670b442974b53935d1edc7fd64eb21e047a839171b9190a45050565b600061209583836001612508565b9392505050565b6000806120ab8484600161251f565b915091509250929050565b6120c16000336117ac565b6120de5760405163f2ccaea160e01b815260040160405180910390fd5b6002600c5460ff1660028111156120f7576120f7612f5f565b141561211657604051639edec15160e01b815260040160405180910390fd5b600061212182610651565b604081015190915083015b816020015160640281106121515760208201805160018101909152606402900361212c565b604082018190526108da8383611d14565b61216d6000336117ac565b61218a5760405163f2ccaea160e01b815260040160405180910390fd5b6040516370a0823160e01b81523060048201526000907f00000000000000000000000000000000000000000000000000000000000000006001600160a01b0316906370a082319060240160206040518083038186803b1580156121ec57600080fd5b505afa158015612200573d6000803e3d6000fd5b505050506040513d601f19601f820116820180604052508101906122249190612b34565b1161224257604051630eecc76760e21b815260040160405180910390fd5b60007f00000000000000000000000000000000000000000000000000000000000000006001600160a01b031663a9059cbb6122856000546001600160a01b031690565b6040516370a0823160e01b81523060048201527f00000000000000000000000000000000000000000000000000000000000000006001600160a01b0316906370a082319060240160206040518083038186803b1580156122e457600080fd5b505afa1580156122f8573d6000803e3d6000fd5b505050506040513d601f19601f8201168201806040525081019061231c9190612b34565b6040516001600160e01b031960e085901b1681526001600160a01b0390921660048301526024820152604401602060405180830381600087803b15801561236257600080fd5b505af1158015612376573d6000803e3d6000fd5b505050506040513d601f19601f8201168201806040525081019061239a91906129a5565b9050806107385760405163c145dbb160e01b815260040160405180910390fd5b600080546001600160a01b038381166001600160a01b0319831681178455604051919092169283917f8be0079c531659141344cd1fd0a4f28419497f9722a3daafe3b4186f6b6457e09190a35050565b6000811580612420575061241e8383612566565b155b1561242d5750600061064b565b60008281526001848101602090815260408084208480529091528083205482845292205461245f9286929091906125ea565b60008281526001848101602090815260408084208480529091528083208390558183528220829055845490918591612498908490612e99565b90915550919392505050565b6124ae82826117ac565b610985576124c6816001600160a01b0316601461261f565b6124d183602061261f565b6040516020016124e2929190612cb4565b60408051601f198184030181529082905262461bcd60e51b82526106ec91600401612d6f565b600061251784600085856127bb565b949350505050565b60008061252c8585612566565b61253b5750600090508061255e565b505060008281526001848101602090815260408084208515158552909152909120545b935093915050565b600081815260018301602090815260408083208380529091528120541580156125a957506000828152600180850160209081526040808420928452919052902054155b156125e25760008080526001808501602090815260408084209284529190529020548214156125da5750600161064b565b50600061064b565b50600161064b565b600082815260019094016020818152604080872093158088529382528087208690559486529081528385209115855252912055565b6060600061262e836002612e7a565b612639906002612e62565b67ffffffffffffffff81111561265157612651612f8b565b6040519080825280601f01601f19166020018201604052801561267b576020820181803683370190505b509050600360fc1b8160008151811061269657612696612f75565b60200101906001600160f81b031916908160001a905350600f60fb1b816001815181106126c5576126c5612f75565b60200101906001600160f81b031916908160001a90535060006126e9846002612e7a565b6126f4906001612e62565b90505b600181111561276c576f181899199a1a9b1b9c1cb0b131b232b360811b85600f166010811061272857612728612f75565b1a60f81b82828151811061273e5761273e612f75565b60200101906001600160f81b031916908160001a90535060049490941c9361276581612edc565b90506126f7565b5083156120955760405162461bcd60e51b815260206004820181905260248201527f537472696e67733a20686578206c656e67746820696e73756666696369656e7460448201526064016106ec565b60006127c78584612566565b1580156127d957506127d98585612566565b1561283957600084815260018601602090815260408083208515158452909152902054612808868686866125ea565b612814868583866125ea565b60018660000160008282546128299190612e62565b9091555060019250612517915050565b506000949350505050565b82805461285090612ef3565b90600052602060002090601f01602090048101928261287257600085556128b8565b82601f1061288b57805160ff19168380011785556128b8565b828001600101855582156128b8579182015b828111156128b857825182559160200191906001019061289d565b506128c49291506128c8565b5090565b5b808211156128c457600081556001016128c9565b600082601f8301126128ee57600080fd5b813560206129036128fe83612e3e565b612e0d565b80838252828201915082860187848660051b890101111561292357600080fd5b60005b8581101561294257813584529284019290840190600101612926565b5090979650505050505050565b60006020828403121561296157600080fd5b813561209581612fa1565b6000806040838503121561297f57600080fd5b823561298a81612fa1565b9150602083013561299a81612fb6565b809150509250929050565b6000602082840312156129b757600080fd5b815161209581612fb6565b6000602082840312156129d457600080fd5b5035919050565b600080604083850312156129ee57600080fd5b82359150602083013561299a81612fa1565b600060208284031215612a1257600080fd5b81356001600160e01b03198116811461209557600080fd5b60006020808385031215612a3d57600080fd5b823567ffffffffffffffff80821115612a5557600080fd5b818501915085601f830112612a6957600080fd5b813581811115612a7b57612a7b612f8b565b612a8d601f8201601f19168501612e0d565b91508082528684828501011115612aa357600080fd5b8084840185840137600090820190930192909252509392505050565b600060808284031215612ad157600080fd5b6040516080810181811067ffffffffffffffff82111715612af457612af4612f8b565b6040528251612b0281612fa1565b8082525060208301516020820152604083015160408201526060830151612b2881612fb6565b60608201529392505050565b600060208284031215612b4657600080fd5b5051919050565b600080600060608486031215612b6257600080fd5b8335925060208085013567ffffffffffffffff80821115612b8257600080fd5b818701915087601f830112612b9657600080fd5b8135612ba46128fe82612e3e565b8082825285820191508585018b878560051b8801011115612bc457600080fd5b600095505b83861015612bf0578035612bdc81612fa1565b835260019590950194918601918601612bc9565b50965050506040870135925080831115612c0957600080fd5b5050612c17868287016128dd565b9150509250925092565b60008082840360a0811215612c3557600080fd5b833592506080601f1982011215612c4b57600080fd5b506040516080810181811067ffffffffffffffff82111715612c6f57612c6f612f8b565b6040526020840135612c8081612fa1565b815260408481013560208301526060850135908201526080840135612ca481612fb6565b6060820152919491935090915050565b7f416363657373436f6e74726f6c3a206163636f756e7420000000000000000000815260008351612cec816017850160208801612eb0565b7001034b99036b4b9b9b4b733903937b6329607d1b6017918401918201528351612d1d816028840160208801612eb0565b01602801949350505050565b6001600160a01b038316815260a08101612095602083018480516001600160a01b0316825260208082015190830152604080820151908301526060908101511515910152565b6020815260008251806020840152612d8e816040850160208701612eb0565b601f01601f19169190910160400192915050565b6020808252818101527f4f776e61626c653a2063616c6c6572206973206e6f7420746865206f776e6572604082015260600190565b81516001600160a01b0316815260208083015190820152604080830151908201526060808301511515908201526080810161064b565b604051601f8201601f1916810167ffffffffffffffff81118282101715612e3657612e36612f8b565b604052919050565b600067ffffffffffffffff821115612e5857612e58612f8b565b5060051b60200190565b60008219821115612e7557612e75612f49565b500190565b6000816000190483118215151615612e9457612e94612f49565b500290565b600082821015612eab57612eab612f49565b500390565b60005b83811015612ecb578181015183820152602001612eb3565b838111156108da5750506000910152565b600081612eeb57612eeb612f49565b506000190190565b600181811c90821680612f0757607f821691505b60208210811415612f2857634e487b7160e01b600052602260045260246000fd5b50919050565b6000600019821415612f4257612f42612f49565b5060010190565b634e487b7160e01b600052601160045260246000fd5b634e487b7160e01b600052602160045260246000fd5b634e487b7160e01b600052603260045260246000fd5b634e487b7160e01b600052604160045260246000fd5b6001600160a01b038116811461073857600080fd5b801515811461073857600080fdfea26469706673582212201edee7e8c5048dc7b64f6aac7cdb038a16b521de5fcd808fe6c3aee8f9ea068c64736f6c63430008070033a2646970667358221220cdecd4e5ebd41ae631338072eddf91eb4a5ac6e0cfaf878418d309bde5c6335664736f6c63430008070033",
  "devdoc": {
    "kind": "dev",
    "methods": {
      "addAdmin(address)": {
        "details": "Only callable by the Admin"
      },
      "createProject(string,uint256,uint256,uint256)": {
        "details": "Only callable by Admins"
      },
      "getContributorsNumber()": {
        "details": "Only callable by Holders"
      },
      "getProjects()": {
        "details": "Only callable by Holders"
      },
      "getProjectsNumber()": {
        "details": "Only callable by Holders"
      },
      "getRoleAdmin(bytes32)": {
        "details": "Returns the admin role that controls `role`. See {grantRole} and {revokeRole}. To change a role's admin, use {_setRoleAdmin}."
      },
      "grantRole(bytes32,address)": {
        "details": "Grants `role` to `account`. If `account` had not been already granted `role`, emits a {RoleGranted} event. Requirements: - the caller must have ``role``'s admin role."
      },
      "hasRole(bytes32,address)": {
        "details": "Returns `true` if `account` has been granted `role`."
      },
      "isContributorBanned(address)": {
        "details": "Only callable by Admins."
      },
      "owner()": {
        "details": "Returns the address of the current owner."
      },
      "registerContributor()": {
        "details": "Only callable by Holders who are not already Contributors"
      },
      "removeAdmin(address)": {
        "details": "Only callable by the Admin"
      },
      "renounceOwnership()": {
        "details": "Leaves the contract without owner. It will not be possible to call `onlyOwner` functions anymore. Can only be called by the current owner. NOTE: Renouncing ownership will leave the contract without an owner, thereby removing any functionality that is only available to the owner."
      },
      "renounceRole(bytes32,address)": {
        "details": "Revokes `role` from the calling account. Roles are often managed via {grantRole} and {revokeRole}: this function's purpose is to provide a mechanism for accounts to lose their privileges if they are compromised (such as when a trusted device is misplaced). If the calling account had been revoked `role`, emits a {RoleRevoked} event. Requirements: - the caller must be `account`."
      },
      "revokeRole(bytes32,address)": {
        "details": "Revokes `role` from `account`. If `account` had been granted `role`, emits a {RoleRevoked} event. Requirements: - the caller must have ``role``'s admin role."
      },
      "setAccountToContributorData(address,(address,uint256,uint256,bool))": {
        "details": "Only callable by Admins."
      },
      "setContributorStateToBanList(address,bool)": {
        "details": "Only callable by Admins."
      },
      "setERC20Address(address)": {
        "details": "Only callable by the Admin"
      },
      "supportsInterface(bytes4)": {
        "details": "See {IERC165-supportsInterface}."
      },
      "transferOwnership(address)": {
        "details": "Transfers ownership of the contract to a new account (`newOwner`). Can only be called by the current owner."
      },
      "withdrawAllFunds(address)": {
        "details": "Only owner is able to call this function"
      }
    },
    "version": 1
  },
  "userdoc": {
    "events": {
      "newContributorRegistered(address)": {
        "notice": "Events"
      }
    },
    "kind": "user",
    "methods": {
      "addAdmin(address)": {
        "notice": "Set new Admin"
      },
      "createProject(string,uint256,uint256,uint256)": {
        "notice": "Create Project"
      },
      "getAccountToContributorData(address)": {
        "notice": "Get Contributor Data by address"
      },
      "getContributor(uint256)": {
        "notice": "Get Contributor by index"
      },
      "getContributorsNumber()": {
        "notice": "Get total number of contributors"
      },
      "getERC20Interface()": {
        "notice": "Returns ERC20 address"
      },
      "getMRCInterface()": {
        "notice": "Returns MRC address"
      },
      "getProjects()": {
        "notice": "Get projects depending on Level"
      },
      "getProjectsNumber()": {
        "notice": "Get total number of projects"
      },
      "getRacksPMOwner()": {
        "notice": "Returns Contract Owner"
      },
      "isAdmin(address)": {
        "notice": "Returns whether an address is admin or not"
      },
      "isContributorBanned(address)": {
        "notice": "Check whether an account is banned or not"
      },
      "isWalletContributor(address)": {
        "notice": "Check whether an address is Contributor or not"
      },
      "registerContributor()": {
        "notice": "Add Contributor"
      },
      "removeAdmin(address)": {
        "notice": "Remove an account from the user role"
      },
      "setAccountToContributorData(address,(address,uint256,uint256,bool))": {
        "notice": "Set Contributor Data by address"
      },
      "setContributorStateToBanList(address,bool)": {
        "notice": "Set a ban state for a Contributor"
      },
      "setERC20Address(address)": {
        "notice": "Set new ERC20 Token"
      },
      "withdrawAllFunds(address)": {
        "notice": "Used to withdraw All funds"
      }
    },
    "version": 1
  },
  "storageLayout": {
    "storage": [
      {
        "astId": 400,
        "contract": "contracts/RacksProjectManager.sol:RacksProjectManager",
        "label": "_owner",
        "offset": 0,
        "slot": "0",
        "type": "t_address"
      },
      {
        "astId": 24,
        "contract": "contracts/RacksProjectManager.sol:RacksProjectManager",
        "label": "_roles",
        "offset": 0,
        "slot": "1",
        "type": "t_mapping(t_bytes32,t_struct(RoleData)19_storage)"
      },
      {
        "astId": 4423,
        "contract": "contracts/RacksProjectManager.sol:RacksProjectManager",
        "label": "erc20",
        "offset": 0,
        "slot": "2",
        "type": "t_contract(IERC20)1161"
      },
      {
        "astId": 4430,
        "contract": "contracts/RacksProjectManager.sol:RacksProjectManager",
        "label": "contributors",
        "offset": 0,
        "slot": "3",
        "type": "t_array(t_address)dyn_storage"
      },
      {
        "astId": 4432,
        "contract": "contracts/RacksProjectManager.sol:RacksProjectManager",
        "label": "isPaused",
        "offset": 0,
        "slot": "4",
        "type": "t_bool"
      },
      {
        "astId": 4434,
        "contract": "contracts/RacksProjectManager.sol:RacksProjectManager",
        "label": "progressiveId",
        "offset": 0,
        "slot": "5",
        "type": "t_uint256"
      },
      {
        "astId": 4441,
        "contract": "contracts/RacksProjectManager.sol:RacksProjectManager",
        "label": "projectsList",
        "offset": 0,
        "slot": "6",
        "type": "t_struct(List)5250_storage"
      },
      {
        "astId": 4446,
        "contract": "contracts/RacksProjectManager.sol:RacksProjectManager",
        "label": "projectStore",
        "offset": 0,
        "slot": "8",
        "type": "t_mapping(t_uint256,t_contract(Project)4399)"
      },
      {
        "astId": 4450,
        "contract": "contracts/RacksProjectManager.sol:RacksProjectManager",
        "label": "projectsDeleted",
        "offset": 0,
        "slot": "9",
        "type": "t_array(t_contract(Project)4399)dyn_storage"
      },
      {
        "astId": 4454,
        "contract": "contracts/RacksProjectManager.sol:RacksProjectManager",
        "label": "walletIsContributor",
        "offset": 0,
        "slot": "10",
        "type": "t_mapping(t_address,t_bool)"
      },
      {
        "astId": 4458,
        "contract": "contracts/RacksProjectManager.sol:RacksProjectManager",
        "label": "accountIsBanned",
        "offset": 0,
        "slot": "11",
        "type": "t_mapping(t_address,t_bool)"
      },
      {
        "astId": 4462,
        "contract": "contracts/RacksProjectManager.sol:RacksProjectManager",
        "label": "projectId",
        "offset": 0,
        "slot": "12",
        "type": "t_mapping(t_address,t_uint256)"
      },
      {
        "astId": 4467,
        "contract": "contracts/RacksProjectManager.sol:RacksProjectManager",
        "label": "accountToContributorData",
        "offset": 0,
        "slot": "13",
        "type": "t_mapping(t_address,t_struct(Contributor)3149_storage)"
      }
    ],
    "types": {
      "t_address": {
        "encoding": "inplace",
        "label": "address",
        "numberOfBytes": "20"
      },
      "t_array(t_address)dyn_storage": {
        "base": "t_address",
        "encoding": "dynamic_array",
        "label": "address[]",
        "numberOfBytes": "32"
      },
      "t_array(t_contract(Project)4399)dyn_storage": {
        "base": "t_contract(Project)4399",
        "encoding": "dynamic_array",
        "label": "contract Project[]",
        "numberOfBytes": "32"
      },
      "t_bool": {
        "encoding": "inplace",
        "label": "bool",
        "numberOfBytes": "1"
      },
      "t_bytes32": {
        "encoding": "inplace",
        "label": "bytes32",
        "numberOfBytes": "32"
      },
      "t_contract(IERC20)1161": {
        "encoding": "inplace",
        "label": "contract IERC20",
        "numberOfBytes": "20"
      },
      "t_contract(Project)4399": {
        "encoding": "inplace",
        "label": "contract Project",
        "numberOfBytes": "20"
      },
      "t_mapping(t_address,t_bool)": {
        "encoding": "mapping",
        "key": "t_address",
        "label": "mapping(address => bool)",
        "numberOfBytes": "32",
        "value": "t_bool"
      },
      "t_mapping(t_address,t_struct(Contributor)3149_storage)": {
        "encoding": "mapping",
        "key": "t_address",
        "label": "mapping(address => struct Contributor)",
        "numberOfBytes": "32",
        "value": "t_struct(Contributor)3149_storage"
      },
      "t_mapping(t_address,t_uint256)": {
        "encoding": "mapping",
        "key": "t_address",
        "label": "mapping(address => uint256)",
        "numberOfBytes": "32",
        "value": "t_uint256"
      },
      "t_mapping(t_bool,t_uint256)": {
        "encoding": "mapping",
        "key": "t_bool",
        "label": "mapping(bool => uint256)",
        "numberOfBytes": "32",
        "value": "t_uint256"
      },
      "t_mapping(t_bytes32,t_struct(RoleData)19_storage)": {
        "encoding": "mapping",
        "key": "t_bytes32",
        "label": "mapping(bytes32 => struct AccessControl.RoleData)",
        "numberOfBytes": "32",
        "value": "t_struct(RoleData)19_storage"
      },
      "t_mapping(t_uint256,t_contract(Project)4399)": {
        "encoding": "mapping",
        "key": "t_uint256",
        "label": "mapping(uint256 => contract Project)",
        "numberOfBytes": "32",
        "value": "t_contract(Project)4399"
      },
      "t_mapping(t_uint256,t_mapping(t_bool,t_uint256))": {
        "encoding": "mapping",
        "key": "t_uint256",
        "label": "mapping(uint256 => mapping(bool => uint256))",
        "numberOfBytes": "32",
        "value": "t_mapping(t_bool,t_uint256)"
      },
      "t_struct(Contributor)3149_storage": {
        "encoding": "inplace",
        "label": "struct Contributor",
        "members": [
          {
            "astId": 3142,
            "contract": "contracts/RacksProjectManager.sol:RacksProjectManager",
            "label": "wallet",
            "offset": 0,
            "slot": "0",
            "type": "t_address"
          },
          {
            "astId": 3144,
            "contract": "contracts/RacksProjectManager.sol:RacksProjectManager",
            "label": "reputationLevel",
            "offset": 0,
            "slot": "1",
            "type": "t_uint256"
          },
          {
            "astId": 3146,
            "contract": "contracts/RacksProjectManager.sol:RacksProjectManager",
            "label": "reputationPoints",
            "offset": 0,
            "slot": "2",
            "type": "t_uint256"
          },
          {
            "astId": 3148,
            "contract": "contracts/RacksProjectManager.sol:RacksProjectManager",
            "label": "banned",
            "offset": 0,
            "slot": "3",
            "type": "t_bool"
          }
        ],
        "numberOfBytes": "128"
      },
      "t_struct(List)5250_storage": {
        "encoding": "inplace",
        "label": "struct StructuredLinkedList.List",
        "members": [
          {
            "astId": 5243,
            "contract": "contracts/RacksProjectManager.sol:RacksProjectManager",
            "label": "size",
            "offset": 0,
            "slot": "0",
            "type": "t_uint256"
          },
          {
            "astId": 5249,
            "contract": "contracts/RacksProjectManager.sol:RacksProjectManager",
            "label": "list",
            "offset": 0,
            "slot": "1",
            "type": "t_mapping(t_uint256,t_mapping(t_bool,t_uint256))"
          }
        ],
        "numberOfBytes": "64"
      },
      "t_struct(RoleData)19_storage": {
        "encoding": "inplace",
        "label": "struct AccessControl.RoleData",
        "members": [
          {
            "astId": 16,
            "contract": "contracts/RacksProjectManager.sol:RacksProjectManager",
            "label": "members",
            "offset": 0,
            "slot": "0",
            "type": "t_mapping(t_address,t_bool)"
          },
          {
            "astId": 18,
            "contract": "contracts/RacksProjectManager.sol:RacksProjectManager",
            "label": "adminRole",
            "offset": 0,
            "slot": "1",
            "type": "t_bytes32"
          }
        ],
        "numberOfBytes": "64"
      },
      "t_uint256": {
        "encoding": "inplace",
        "label": "uint256",
        "numberOfBytes": "32"
      }
    }
  }
}